:100000000C944F030C946C030C946C030C946C03D1
:100010000C946C030C946C030C946C030C946C03A4
:100020000C946C030C946C030C94EC220C94BE2383
:100030000C94611B0C946C030C946C030C946C0377
:100040000C946C030C946C030C946C030C946C0374
:100050000C946C030C94C91B0C946C030C946C03EF
:100060000C946C030C946C030C946C030C946C0354
:100070000C946C030C946C030C946C030C946C0344
:100080000C946C030C946C030C946C030C946C0334
:100090000C946C030C946C030C946C030C946C0324
:1000A0000C946C030C946C030C946C03C203C50396
:1000B000C803CB03CE03D103D40395069A06A40646
:1000C00098069D06A206A0062F0831083C083308B2
:1000D0003508370839083B083E08400842084D08F3
:1000E0004408460848084A084C084F088110811007
:1000F000B310B310EA100A117312D1124C11D112BD
:10010000F911F9116A12D112D112CB12061206128C
:10011000061206120612061206120612061206121F
:1001200006120612061206120612061217122412E0
:100130002B1232123C125C135C136E136E13651398
:100140006E136E136E135C135C136A136E136E13CF
:100150006A132B2452244425522444259E24C1246E
:100160004425172526256572676F646F785F657A69
:100170002F353335326636323163626364346266FA
:100180003438363531204020302E362E3332352D5E
:1001900036372D67303631326339000000F0A13533
:1001A000002B002961E100025800001E0034000409
:1001B000003300E3002C001F00360012001400E39F
:1001C000004B022000370008000D000158280021D4
:1001D00000130018000E00E200520022001C000C68
:1001E000001B00000050004C002A0000002C000002
:1001F000004F004C002A00000001000000A800236E
:100200000009000700050000004F0024000A000B51
:10021000001000E200A9002500060017001A0001E6
:10022000582C002600150011001900E3004E00278D
:10023000000F0016001D00E300AA00310038002D59
:1002400071E50002580000010001000100010010EA
:10025000500000010001000100010001004C0001FC
:100260000001005000010001004B0001005200514C
:1002700000F10001004E0001000100FB00F0000150
:10028000004D000100F900FC00FA0000004A0046A1
:100290000001000000010000000100460001000014
:1002A0000001000000010001000100010001000048
:1002B0000001000100F400F200F400105001000100
:1002C00000F000F100F500010001000100F500F36D
:1002D000000100010001000100F300010001000124
:1002E0000001000100010001000100105000003574
:1002F0000201002961E100105000003A004A00317B
:1003000000330210502A003B002D00540038021028
:1003100050E1003C0008002602510036022C004D3E
:10032000002E0008005200105001003E004B00312A
:10033000024E000000010044002A000000280000D6
:1003400000390045002A00000028000000A8003FF6
:1003500000540025022D0000000100400024005040
:10036000001E001050A900410025005D001F00275D
:10037000002C0042002600230020001050E500431E
:10038000004F002D0028001050AA00010001002D90
:1003900071E5001050000000000000000000002A7D
:1003A0002B280000000000000000000000000000FA
:1003B000000029000000002C1E34202122243426B5
:1003C00027252E362D3738271E1F202122232425AE
:1003D000263333362E37381F0405060708090A0B63
:1003E0000C0D0E0F101112131415161718191A1BD5
:1003F0001C1D2F3130232D350405060708090A0B73
:100400000C0D0E0F101112131415161718191A1BB4
:100410001C1D2F3130354C00000000000000000092
:1004200000000000000000000000000000000000CC
:1004300000000000000000000000000000000000BC
:1004400000000000000000000000000000000000AC
:10045000000000000000000000000000000000009C
:10046000000000000000000000000000000000008C
:10047000000000000000000000000000000000007C
:10048000000000000000000000000000000000006C
:10049000000000000000000000000000000000005C
:1004A000000000000000000000000000000000004C
:1004B0000000000000000000010101010101000135
:1004C0000101010000000000000000000000000029
:1004D000000100010001010101010101010101010F
:1004E00001010101010101010101010101010101FC
:1004F00001010000000101000000000000000000F8
:1005000000000000000000000000000000000000EB
:100510000000010101010004033000000016034542
:1005200000720067006F0044006F007800200045F3
:10053000005A00000016034500720067006F004477
:10054000006F007800200045005A000000040309F5
:100550000409023B00020100A0FA090400000103A3
:10056000010100092111010001224000070581035A
:1005700008000A090401000103000000092111011B
:10058000000122C0000705820320000A12011001A9
:1005900000000008EDFE0713010001020301050140
:1005A0000902A10185020901A10005091901290516
:1005B00015002501950575018102950175038101DD
:1005C0000501093009311581257F950275088106DD
:1005D00009381581257F950175088106050C0A38B3
:1005E000021581257F950175088106C0C0050109A6
:1005F00080A10185031601002603001A81002A83C9
:1006000000751095018100C0050C0901A101850448
:10061000160100269C021A01002A9C027510950101
:100620008100C005010906A1018505050719E0291A
:10063000E7150025019508750181020508190129B2
:10064000059505750191029501750391010507193D
:100650000029EF1500250195F075018102C0050103
:100660000906A101050719E029E7150025019508EC
:100670007501810295017508810105081901290597
:100680009505750191029501750391010507190002
:1006900029FF150026FF00950675088100C011246A
:1006A0001FBECFEFDAE0DEBFCDBF11E0A0E0B1E0CA
:1006B000EEE2FEE402C005900D92A23CB107D9F72C
:1006C00022E0A2ECB1E001C01D92AA3FB207E1F71F
:1006D0000E9410200C9415270C94000080B38C709D
:1006E00080BB81B3836F81BB089584B1807F84B95F
:1006F00085B1807F85B98AB1837F8AB98BB1837FC9
:100700008BB93E9846980895CF93E82F873080F5AF
:100710008091060190910701892B09F047C0CE2FE7
:1007200064E670E080E40E94CC049093070180931B
:100730000601892BD1F464E670E082E10E94230572
:100740009093070180930601892B79F481E090E072
:1007500001C0880FCA95EAF764E670E080950E94B0
:1007600023059093070180930601CF910C9478059F
:1007700090E0FC013797E730F105C0F4EA5AFF4FEB
:100780000C94A025209A289811C0219A29980EC06F
:10079000229A2A980BC0239A2B9808C0529A5A98EA
:1007A00005C0539A5B9802C03E9A4698CF9108952F
:1007B000CF93873008F03FC08091060190910701E8
:1007C000892B09F041C064E670E080E40E94CC040B
:1007D0009093070180930601892B11F0C0E027C098
:1007E00064E670E083E10E94230590930701809303
:1007F0000601892B99F764E670E081E40E94CC043D
:100800009093070180930601892B41F784E690E0DD
:100810000E94530597FF05C090930701809306013E
:10082000DDCFC82FC09510920701109206010E94DB
:1008300078058C2F0AC09FB18FB1807F86958695F1
:100840009370892B809501C080E0CF910895089521
:1008500008950C9428040E94EA0590E09093070103
:10086000809306010E9475030E946E03A1EDB1E022
:10087000E3ECF1E08EE08E0F11921D928E13FCCF0F
:100880008EE00E94830B0C945D070E94EA0590E0C5
:1008900090930701809306010E9475030E946E03E6
:1008A000E3ECF1E08EE08E0F11928E13FDCF0895F0
:1008B000CF92DF92EF92FF920F931F93CF93DF932C
:1008C0008091060190910701892B91F08091C201DE
:1008D0008F5F8093C20181110BC00E94EA0590E0F6
:1008E0009093070180930601892B11F40E947C05E7
:1008F00091EDE92E91E0F92E08ED11E0C0E0D12C48
:1009000087E0C82ECC0E8C2F0E9484038C2D0E9471
:1009100084038C2F0E94D803F7019081981719F057
:100920008083D1E001C0D0E08C2D0E94D803F80173
:100930009081981719F0808381E001C080E0D82B66
:10094000DD2A0E947503CF5FFFEFEF1AFF0A0F5FEA
:100950001F4FC730A9F62D2D4EE063EC71E081EDFD
:1009600091E00E94EF0B0E94670781E0DF91CF9139
:100970001F910F91FF90EF90DF90CF900895E82F97
:10098000F0E0ED53FE4F8081089508951092B90074
:100990008CE08093B8000895EF92FF920F931F931D
:1009A000CF93DF93182FEB011092BC0084EA809361
:1009B000BC000E94931B7C019091BC0097FD0EC06F
:1009C000CF3F8FEFD807C1F30E94931B8E199F0969
:1009D0008C179D0788F38EEF9FEF2EC09091B90082
:1009E000987F983041F09091B900987F903119F03C
:1009F0008FEF9FEF21C01093BB0084E88093BC0071
:100A00000E94931B8C019091BC0097FD0CC0CF3FBE
:100A10008FEFD807C1F30E94931B801B910B8C179B
:100A20009D0788F3D8CF8091B900887F883111F075
:100A30008034F1F680E090E0DF91CF911F910F912B
:100A4000FF90EF9008950F931F93CF93DF93EB01E7
:100A50008093BB0084E88093BC000E94931B8C01B0
:100A60009091BC0097FD0EC0CF3F8FEFD807C1F328
:100A70000E94931B801B910B8C179D0788F38EEFB0
:100A80009FEF0CC02091B900287F81E090E02832D0
:100A900011F480E090E0919581959109DF91CF91DB
:100AA0001F910F9108950F931F93CF93DF93EC0144
:100AB00084E88093BC000E94931B8C019091BC0041
:100AC00097FD0EC0CF3F8FEFD807C1F30E94931B55
:100AD000801B910B8C179D0788F38EEF9FEF03C04F
:100AE0008091BB0090E0DF91CF911F910F9108950D
:100AF00084E98093BC00089556985E9825982D98B7
:100B000026982E9827982F988FEF90E09093890041
:100B10008093880090938B0080938A0090938D003F
:100B200080938C00259A2D9A2FEF80E792E0215038
:100B300080409040E1F700C00000269A2E9A2FEFE7
:100B400080E792E0215080409040E1F700C0000033
:100B5000279A2F9A2FEF80E792E021508040904013
:100B6000E1F700C0000025982D982FEF80E792E074
:100B7000215080409040E1F700C0000026982E9858
:100B80002FEF80E792E0215080409040E1F700C0D5
:100B9000000027982F9856985E9825982D982698AB
:100BA0002E9827982F98089589EA8093800089E0ED
:100BB0008093810024982C983F988AB18F7C8AB9C1
:100BC0006E98479A8BB180638BB9769A0E947C05A8
:100BD0000C94270480E290E0909307018093060133
:100BE0008091DF0181110EC00E94C60481E08093D4
:100BF000DF012FEF83ED90E3215080409040E1F73B
:100C000000C0000064E670E080E40E94CC04909391
:100C1000070180930601892B09F04EC064E670E05D
:100C200080E00E9423059093070180930601892BA1
:100C300009F042C064E670E080E00E9423059093D2
:100C4000070180930601892BB9F564E670E08FE314
:100C50000E9423059093070180930601892B61F57B
:100C60000E94780564E670E080E40E94CC049093D2
:100C7000070180930601892BF9F464E670E08CE0AB
:100C80000E9423059093070180930601892BA1F40C
:100C900064E670E080E00E94230590930701809352
:100CA0000601892B49F464E670E08FE30E94230576
:100CB00090930701809306010E94780580910601B8
:100CC0000895611108C0FC018281882321F086E625
:100CD00091E00E945A0780E090E00895813F9C4592
:100CE00041F4FB018281882329F00E947F1A80E071
:100CF000089581E00895CF92DF92EF92FF926B0109
:100D00007C010E94B51956985E9825982D982698D2
:100D10002E9827982F9890E0FC013197E730F10545
:100D2000A8F4E35AFF4F0C94A025259A2D9A0EC0E3
:100D3000259A2D9A269A2E9A09C0259A2D9A04C092
:100D4000259A2D9A269A2E9A279A2F9AC701B6018C
:100D5000FF90EF90DF90CF90089581E008950C947C
:100D60006E061F93CF93DF9300D000D01F92CDB7B4
:100D7000DEB749835A8320910E0289819A8121111D
:100D800012C0662349F00E948218182F682F8981AB
:100D90009A810E94251803C00E945518182F698156
:100DA0007A81812F04C00E94821869817A810F9014
:100DB0000F900F900F900F90DF91CF911F910C9497
:100DC0000409FC01408151816281738184810C940A
:100DD000B1061F93CF93DF93282F30E0F901E95636
:100DE000FC4F1491F901E956FB4FE491C1E0E11188
:100DF00001C0C0E0F901E95EFB4F2491D1E021116F
:100E000001C0D0E0CC2319F081EE0E94B10EDD23A9
:100E100019F086EE0E94B10E812F0E943710DD235B
:100E200019F086EE0E94CF0FCC2331F081EEDF91D6
:100E3000CF911F910C94CF0FDF91CF911F91089507
:100E40000F931F93CF93DF93EC01062FFE01849144
:100E5000882359F19E012F5F3F4F813041F4E90112
:100E6000F9011491812F0E94B10E812F0DC08230A3
:100E700031F4E901F90184910E94B10E0AC0833076
:100E800031F4E901F90184910E94CF0F02C00E9460
:100E9000E9062196802F8823C9F2EFE9FFE0319718
:100EA000F1F700C000008150F6CFDF91CF911F9184
:100EB0000F91089560E00C9420070E94051A81119B
:100EC00002C00E947F1A0E94470C0C94D4050C9417
:100ED0002904282F2F7041F0822F90E02A3010F43F
:100EE0004D9608950697089587E290E00895089535
:100EF0000C9477070C94780708950E944C130E9475
:100F00007C072FEF84E39CE0215080409040E1F784
:100F100000C000000C94EF1B0F931F93CF93DF933F
:100F20008C010E94E106EC01B8010E94AF06882303
:100F300009F463C1B801CE010E94C60C882309F4EC
:100F40005CC1C73DFCE5DF0761F5F80182818823BC
:100F500051F01092E5010E94931B9093E20180935F
:100F6000E10182E03BC00E94021985FF05C081E0DB
:100F70008093E5018093E6018091E50181110FC026
:100F80008091E1019091E2010E949F1B883C9105B4
:100F900030F486E20E94B10E86E20E94CF0F82E01A
:100FA0002FC0C83D8CE5D80770F1CC3D8CE5D80743
:100FB00009F4D5C008F0DAC0C83DFCE5DF0709F048
:100FC000F3C0F8018281882361F01092E6010E944B
:100FD000931B9093E4018093E30180E20E943F1011
:100FE0000CC10E94021981FF05C081E08093E501D8
:100FF0008093E6018091E601882309F4C4C080E271
:101000000E944610FAC0C531ECE5DE0708F07DC04D
:10101000C230FCE5DF0708F452C0F8018281882362
:1010200009F459C00E94051A811102C00E947F1A5A
:101030000E94181A90E09093E8028093E702FE0164
:10104000E350FC45E231F10530F4EC59FF4F80915B
:10105000E7020C94A0258091E702816027C082609E
:1010600025C0846023C0806121C080621FC080646D
:101070001DC080681BC08460886018C08E7F16C049
:101080008D7F14C08B7F12C08F7E10C08F7D0EC0ED
:101090008F7B0CC08F770AC08B7F877F07C087FB51
:1010A000222720F991E0922790FB87F98093E702AD
:1010B0008091E7020E941C1A0E944C139EC0C11529
:1010C0008CE5D80779F0C130DC45A1F081E0809350
:1010D000E5018093E601C801DF91CF911F910F9147
:1010E0000C94AD06F8018281882309F486C00E9421
:1010F0007D0783C0F8018281882309F47EC0809136
:10110000AD0281608093AD0278C0C631DC45F1F656
:101110000E940219282FF801828140910801509104
:101120000901882379F02A7A91E009F490E09093FC
:10113000E001911102C069E201C065E3CA010E94A9
:10114000E61A0AC08091E001811102C069E201C083
:1011500065E3CA010E94F11A0E9451194EC0F801BC
:101160008281882309F449C080E00AC0CD3DECE5C6
:10117000DE07D1F5F8018281882309F43EC082E0C0
:101180000E94AF203AC08091E3019091E4010E9457
:101190009F1B883C910508F032CF87E20E94B10E78
:1011A00087E20E94CF0F2BCFC93DDC4509F08ECFDF
:1011B000F8018281811109CF8091E60181111FCF51
:1011C0008091E3019091E4010E949F1B883C91056E
:1011D00008F015CF80E20E94461088E20E94B10E0E
:1011E00088E20E94CF0F09C0CE3DDC4509F06ECFEA
:1011F000F801828181110E947F1A80E0DF91CF91F6
:101200001F910F910895089596E0799FF0011124A0
:1012100094E5899FE00DF11D1124E60FF11DEE0FFD
:10122000FF1FE156FE4F859194910895880F991FF5
:10123000FC01E556FE4F859194910895CF93DF937D
:101240000E9404090E94E30AEC01811520E592073F
:10125000F0F5811530E4930708F029C1883E910527
:1012600000F5803E910508F0AAC1883A910570F416
:10127000853A910508F0A4C08130910509F49FC119
:1012800008F450C1049708F09AC14CC18F3B9105F6
:1012900008F4A1C0803C910508F444C1805C910928
:1012A000F9C0811540E2940758F4C11581E0D807D0
:1012B00008F085C1C03FD10508F434C1D0657FC1B5
:1012C000811520E3920708F0E9C09F70E3C0811503
:1012D00035E5930708F044C0811544E5940708F00C
:1012E000FDC0C11582E5D80708F5C11521E5D20773
:1012F00008F0E0C08C2F837021E030E002C0220FA4
:10130000331F8A95E2F73C68CE0174E09695879585
:101310007A95E1F78370382BCF70C695C69540E279
:10132000C49FE0011124C22BD32B49C12C2F269539
:101330002695CE0183709927C115D34508F0BFC00B
:1013400040E2249F90011124C1E0D0E002C0CC0F04
:10135000DD1F8A95E2F72C2B3D2BE901DC682FC1BC
:1013600081154AE59407A0F4C11589E5D80708F06E
:10137000C4C0C11526E5D20708F4B5C0C11538E5CB
:10138000D30708F4CFC0DC2FCC27C06FD06A17C1B9
:1013900081159B4508F4C6C0C1158CE5D80708F433
:1013A000BEC0CE0190568115904208F0BBC08D2F73
:1013B0008F710E94600BDD27D0628F71D82BFFC028
:1013C000853A910509F4B1C0863A910509F0B0C09B
:1013D000C2E8D0E4F4C0883A910509F4ACC0893A77
:1013E000910509F4ABC08A3A910509F4AAC08B3A79
:1013F000910509F4A9C08C3A910509F4A8C08B3B6A
:10140000910509F4A7C08C3B910509F4A6C08D3A5B
:10141000910509F4A5C0803B910509F4A4C08E3A5A
:10142000910509F4A3C08F3A910509F4A2C0813B4C
:10143000910509F4A1C0823B910509F4A0C0833B4A
:10144000910509F49FC0843B910509F49EC0853B3A
:10145000910509F49DC0863B910509F49CC0873B2A
:10146000910509F49BC0883B910509F49AC0893B1A
:10147000910509F499C08D3B910509F498C08E3B04
:10148000910509F497C08A3B910509F496C0C0E024
:10149000D4E495C00E941609EC0191C09927D3FFAE
:1014A00003C0EC01D86C8BC0EC01D06C88C0DF703D
:1014B000D06A85C0DC2FCC27C16FD06A80C040E2E3
:1014C000249F90011124C1E0D0E002C0CC0FDD1FA9
:1014D0008A95E2F7C22BD32BDA6871C0D82FCC27BC
:1014E000C46FD06A6CC08C2F0E94600B8F71C82FA4
:1014F000D0E0DC2FCC27D06262C08C2F8F700E948E
:10150000600B94E0D695C7959A95E1F7CF70D0E03F
:10151000DC2FCC27D06A8F70806EC82B50C0DD279F
:10152000D0664DC0C0E0D0E04AC0C1E8D0E447C0BA
:10153000C3E8D0E444C0C2EED4E441C0C9EED4E470
:101540003EC0CAEED4E43BC0C5EBD4E438C0C6EB21
:10155000D4E435C0C3EBD4E432C0C4EBD4E42FC030
:10156000C7EBD4E42CC0CCECD4E429C0CDECD4E45B
:1015700026C0C3E8D5E423C0CAE8D5E420C0C2E948
:10158000D5E41DC0C4E9D5E41AC0C1E2D6E417C051
:10159000C3E2D6E414C0C4E2D6E411C0C5E2D6E486
:1015A0000EC0C6E2D6E40BC0C7E2D6E408C0CFE660
:1015B000D4E405C0C0E7D4E402C0CAE2D6E4CE0158
:1015C000DF91CF9108958238910549F1B0F48133CC
:1015D000910509F458C048F48932910509F44EC0C8
:1015E0008A32910509F454C008958533910509F4B0
:1015F00040C08933910599F00895833E910529F102
:1016000038F4803E910591F0823E9105A1F0089555
:10161000863E9105F9F0873E910531F108952091BC
:10162000E70220FD3AC021FD38C008958091E7020D
:1016300080FD35C032C08091E70282FF32C08091C8
:10164000E70284FD30C083EE39C08091E70282FD5D
:1016500028C0F5CF8091E70283FF27C08091E70281
:1016600084FD21C087EE2AC08091E70283FD1DC062
:10167000F5CF8091E70285FD1AC01BC08091E7027B
:1016800085FD17C014C08091E70286FD14C015C007
:101690008091E70286FD11C00EC080EE0FC089E385
:1016A0000DC082EE0BC080E009C086EE07C089E263
:1016B00005C085E303C08AE201C081E390E008959C
:1016C0009091E70292FF0DC0282F2871283019F45D
:1016D000877F846006C0282F2471243011F48B7F0B
:1016E000886093FF0DC0282F2871283119F4877E58
:1016F000846106C0282F2471243111F48B7E886107
:1017000094FD877E0895CF93C82F90E00E94A62570
:101710008093E8019093E901282FFC019BEF8E2F25
:10172000821B8C1710F49193FACFCF9108950F93E9
:101730001F93CF93DF931092E7015091E801E52FBB
:10174000F091E90140E0A62FB0E07BEFCAEFD0E0D6
:101750009E2F951B9817D0F490819B3FA9F0292FBD
:1017600030E0691728F08D01021B130B980106C0A9
:101770008E01021B130B98012A0F3B1F25303105E8
:1017800014F0708301C041E03196E2CF4093E7014D
:10179000DF91CF911F910F910895CF93DF935091D7
:1017A000E8013091E701DB01E52FF091E9016E2FAF
:1017B000651B641778F47C91EC016991CE01C081BE
:1017C000CB3F29F4761719F020836C9331E03196E2
:1017D0001196EDCF3093E701DF91CF910895DF921D
:1017E000EF92FF920F931F93CF93DF9300D0CDB76B
:1017F000DEB78C017B01D22E4A830E94931B6AEFD5
:1018000070E00E947825282F8091E7014A81882383
:10181000D9F0622F842F29830E94970B29814A8156
:10182000DD2069F0B701C8010F900F90DF91CF91D3
:101830001F910F91FF90EF90DF900C94CD0B809152
:10184000E701882379F302C0D110ECCF0F900F90FD
:10185000DF91CF911F910F91FF90EF90DF9008954E
:10186000CF93DF93813020E8920768F0FB0122815B
:10187000222349F0EC010E945D0CCE019F770E946B
:10188000A90C0E94920C81E0DF91CF9108958CE029
:1018900090E00E94D32690E0A0E0B0E08093DD02CB
:1018A0009093DE02A093DF02B093E002089560916E
:1018B000DD028CE090E00C94E1260E9402198093F6
:1018C000EA010E9415198091DD02813071F048F023
:1018D0008230D9F08430F9F486EE0E94371088E126
:1018E00018C082EE0E94B10E16C080EE0E94B10EAA
:1018F00081EE0E94B10E88E10E94371081EE0E94B5
:10190000CF0F80EE0E94CF0F06C082EE0E94B10E74
:1019100087E50E9437108FE39CE90197F1F700C03B
:10192000000008958091DD02813039F040F082306E
:1019300031F0843051F488E206C08CE204C082EEBB
:101940000E94CF0F02C00E9437108091EA010C94D0
:1019500012190F931F93CF93DF938C01CCE0D0E04B
:10196000C8010C2E02C0969587950A94E2F78F70F5
:101970000E9469070E9437102497CC3F8FEFD80749
:1019800079F7DF91CF911F910F9108950F931F93D6
:10199000CF93DF93EC018B01FB018281882319F146
:1019A000C33EFCE5DF07C1F050F4C13EECE5DE07C5
:1019B00081F0C23EFCE5DF07B1F481E010C0C43E17
:1019C0008CE5D80759F0C53EECE5DE0761F484E00C
:1019D00006C01092DD0205C082E001C083E0809362
:1019E000DD020E94570CB801CE01DF91CF911F910B
:1019F0000F910C94300C9093F0018093EF010895B7
:101A0000E091EF01F091F001309721F00190F08129
:101A1000E02D099480E00895E091EF01F091F0014C
:101A2000309799F020911901222359F02091E70273
:101A300027FF07C0DC012C9111962C93119725E00C
:101A40002C930280F381E02D09940895E091EF0139
:101A5000F091F001309739F022E0DC012C93048002
:101A6000F581E02D099408952091ED013091EE016A
:101A70008217930771F09093EE018093ED01E0914E
:101A8000EF01F091F001309721F00680F781E02D11
:101A9000099408952091EB013091EC01821793078E
:101AA00071F09093EC018093EB01E091EF01F091E4
:101AB000F001309721F00084F185E02D099408951C
:101AC00085B7806885BF85B7806885BF089508950C
:101AD00008950C94680D08950C946B0D0E94600D90
:101AE0000E94670D0C94690D81E008950E948A1B85
:101AF0000E942B040E94211C0C946C0DCF92DF924B
:101B0000EF92FF920F931F93CF93DF93CDB7DEB782
:101B10002B970FB6F894DEBF0FBECDBF0E945804BE
:101B20000E94740D811111C08FEF89838A831B82FB
:101B30000E94931B8160782F9D838C8349815A81F9
:101B40006B818D810E94620E56C082EFC82E81E0AB
:101B5000D82E00E010E0E02E802F0E94BF04F60196
:101B600041916F01F42EF82631F40F5F1F4F0E30B4
:101B7000110589F7D9CF9091AD0291FF04C08B87F1
:101B80000E94C5048B8520E030E04F2D50E0922F5D
:101B9000BA01022E02C0759567950A94E2F760FFBC
:101BA00024C02E83EF8221E030E0690102C0CC0C1A
:101BB000DD1C9A95E2F790E08C219D21892B09F498
:101BC00020E028870E94931B8160782F9A8789875D
:101BD0004E815F8168858A850E94620EF801EE5011
:101BE000FE4F8081C826C08206C02F5F3F4F26303F
:101BF000310569F6BACF0E94B41D1091F1010E941F
:101C0000000D1817A1F00E94000D8093F1012B9692
:101C10000FB6F894DEBF0FBECDBFDF91CF911F91FD
:101C20000F91FF90EF90DF90CF900C947A072B9656
:101C30000FB6F894DEBF0FBECDBFDF91CF911F91DD
:101C40000F91FF90EF90DF90CF900895DC011196F7
:101C50002C9111978C91682F70E041E050E001C009
:101C6000440F8A95EAF712968C91129730E08823F8
:101C700029F0809110028823E9F006C0F901E050B4
:101C8000FE4F90819423B1F086E0829FF001839F04
:101C9000F00D1124E60FF71FEE0FFF1FE65EFE4F5B
:101CA000808191818D939C93F901E050FE4F80815A
:101CB000482B06C0F901E050FE4F40958081482333
:101CC00040830895CF93DF93CDB7DEB72B970FB640
:101CD000F894DEBF0FBECDBF942F4F83252F5887BA
:101CE00069877A878B874A855B85452B21F02F3F53
:101CF00009F59F3FF9F4DE01119686E0FD0111928E
:101D00008A95E9F785E0FE01379601900D928A9554
:101D1000E1F749815A816B817C818D819E810E948E
:101D2000F6152B960FB6F894DEBF0FBECDBFDF9130
:101D3000CF910895CE0107960E94260EDCCFFC01BC
:101D4000808191810E94C31892959F70963041F4D2
:101D50008091100291E089278093100290930F02E6
:101D60000895882309F41AC18238C1F40E94000D35
:101D700081FD14C169E380910801909109010E94DD
:101D8000E61A0E9451192FEF81EE94E02150804015
:101D90009040E1F700C0000069E319C08338F9F40E
:101DA0000E94000D80FDFAC063E5809108019091CA
:101DB00009010E94E61A0E9451192FEF81EE94E06A
:101DC000215080409040E1F700C0000063E5809121
:101DD0000801909109010E94F11A0C94511984385C
:101DE000C1F40E94000D82FDD9C067E48091080112
:101DF000909109010E94E61A0E9451192FEF81EE7D
:101E000094E0215080409040E1F700C0000067E47A
:101E1000DECF9CEF980F913A40F4682F8091080133
:101E2000909109010E94E61AD8CF90E2980F98305D
:101E300050F4877091E001C0990F8A95EAF7892FD5
:101E40000E940519CACF9BE5980F933070F4853A2C
:101E500029F0863A31F083E890E005C081E890E00F
:101E600002C082E890E00C94340D98E5980F973109
:101E700008F08EC0883A09F445C0893A09F445C093
:101E80008A3A09F445C08B3A09F445C08C3A09F402
:101E900045C08B3B09F445C08C3B09F445C08D3AE5
:101EA00009F445C0803B09F445C08E3A09F445C0A9
:101EB0008F3A09F445C0813B09F445C0823B09F4DF
:101EC00045C0833B09F445C0843B09F445C0853BCC
:101ED00009F445C0863B09F445C0873B09F445C079
:101EE000883B09F445C0893B09F445C08D3B09F4A2
:101EF00045C08E3B09F445C08A3B09F445C080E0EB
:101F000090E044C082EE90E041C089EE90E03EC097
:101F10008AEE90E03BC085EB90E038C086EB90E025
:101F200035C083EB90E032C084EB90E02FC087EBAC
:101F300090E02CC08CEC90E029C08DEC90E026C0A5
:101F400083E891E023C08AE891E020C082E991E033
:101F50001DC084E991E01AC081E292E017C083E2DB
:101F600092E014C084E292E011C085E292E00EC0DB
:101F700086E292E00BC087E292E008C08FE690E034
:101F800005C080E790E002C08AE292E00C944A0D1E
:101F9000803F20F00E94BC1C0C94A91D089588234A
:101FA00009F464C0823879F40E94000D81FF5EC09C
:101FB00069E380910801909109010E94E61A0E944C
:101FC000511969E310C08338B1F40E94000D80FFFD
:101FD0004DC063E580910801909109010E94E61AC5
:101FE0000E94511963E580910801909109010E94B6
:101FF000F11A0C945119843879F40E94000D82FF73
:1020000035C067E480910801909109010E94E61AA9
:102010000E94511967E4E7CF9CEF980F913A10F4B2
:10202000682FE1CF90E2980F983050F4877091E0DC
:1020300001C0990F8A95EAF7892F0E940B19D9CF11
:102040009BE5980F933020F480E090E00C94340DE1
:1020500098E5980F973120F480E090E00C944A0DB9
:10206000803F20F00E94241D0C94A91D0895CF9359
:10207000C82F0E94B10E8C2FCF910C94CF0F8823C4
:1020800021F00E9405190C9451190895882321F01C
:102090000E940B190C94511908958F929F92AF9240
:1020A000BF92DF92EF92FF920F931F93CF93DF9334
:1020B0007C01D62FC72FFC01058102950F7012817C
:1020C00011110E9425190E94FB18882379F0112311
:1020D00069F080E28D0F883048F082E00E949C1900
:1020E0000E94FB1891E0D82ED92601C0D12CAC2E2D
:1020F000A2948FE0A822B12CF501EA58FF4F0C946E
:10210000A0258C2F807FCF70882311F0C295C07FCF
:10211000112399F0CC2309F4C8C180E28D0F8830D7
:1021200010F0D11104C08C2F0E94051903C08C2F10
:102130000E9418190E945119B8C18D2F0E94CF0F0B
:10214000CC2309F42EC280E28D0F883010F0D1111B
:1021500004C08C2F0E940B1903C08C2F0E941E19E3
:102160000E9451191EC28C2F807FCF70803211F0D7
:10217000C295C07FDD2319F0D130C9F021C01123F1
:1021800071F0002341F0013031F40E9438198C2B9A
:102190000E943E1906C20E9438198C2B3FC10023B1
:1021A00019F0013009F4FDC10E94471911C0112333
:1021B00021F0023008F0F5C107C00111F2C108C0DA
:1021C000112321F0011171C18C2F28C101117EC191
:1021D0008C2F2AC18C2F86958695837090E000976E
:1021E00019F0019761F0DDC1112321F08D2F9C2F93
:1021F000937002C080E090E00E94340DE2C1112390
:1022000021F08D2F9C2F937002C080E090E00E94FF
:102210004A0DD7C11123F9F0D53F51F0D63F71F0E7
:10222000D43FA9F48091E1029091E20281600BC059
:102230008091E1029091E202826005C08091E1020A
:102240009091E20284609093E2028093E1028D2FEC
:102250000E94BC1C1EC0D53F51F0D63F71F0D43F48
:10226000A9F48091E1029091E2028E7F0BC08091EF
:10227000E1029091E2028D7F05C08091E102909190
:10228000E2028B7F9093E2028093E1028D2F0E9405
:10229000241D0E94A91D95C18C2F837009F050C088
:1022A00011118BC18D2F829586958770880F880FAD
:1022B0009D2F9F70892E912CA12CB12C082E04C02B
:1022C000880C991CAA1CBB1C0A94D2F7D4FF14C01A
:1022D0000FE010E020E030E0B901A80104C0440F95
:1022E000551F661F771F8A95D2F7CB01BA016095FB
:1022F00070958095909503C060E070E0CB01C69525
:10230000C695C370D0E0C230D10561F0C330D105AD
:1023100081F0682979298A299B29219771F00E94E7
:102320003B174BC1682979298A299B290E944D179F
:1023300044C10E943B17C501B4010E9429173DC149
:10234000112319F08C2F817001C08695882309F420
:1023500034C18D2F829586958770880F880F9D2FA9
:102360009F70892E912CA12CB12C082E04C0880CB2
:10237000991CAA1CBB1C0A94D2F7D4FF14C00FE00E
:1023800010E020E030E0B901A80104C0440F551F5F
:10239000661F771F8A95D2F7CB01BA0160957095B9
:1023A0008095909503C060E070E0CB01C695C6951E
:1023B000C3704C2F50E04230510569F04330510555
:1023C00089F0682979298A299B294130510571F0C2
:1023D0000E940018F2C0682979298A299B290E9445
:1023E0001218EBC00E940018C501B4010E94EE173C
:1023F000E4C08D2F90E0FC01E05EF109E531F105CC
:1024000008F04FC0EA57FF4F0C94A025DF708C2FC7
:102410008F71112331F00E9487178D2F0E943F107A
:10242000C0C00E94A8178D2F0E944610BAC0112369
:1024300039F00111B6C08C2F8F710E94CD17B1C039
:10244000023008F0AEC0F7CF112339F08C2F8F7116
:102450000E948717A6C01123C9F38C2F8F710E9489
:10246000A8179FC0112329F08C2F8F710E9472171B
:1024700098C00E946D1795C0112349F0CF718C2F21
:102480000E94871763E08C2F0E9487198AC081E021
:102490000E949C19023008F484C082E00E949C19BA
:1024A00080C0112331F0002389F28D2F0E94B10EDC
:1024B00078C0002391F2D93349F45FEF67EE73E0FF
:1024C000515060407040E1F700C000008D2F0E9425
:1024D000CF0F67C04C2F4F706D2FC7010E94610650
:1024E0000E949A166EC0D23FB1F028F4D03F49F056
:1024F000D13FF9F028C0D43FB9F058F0D53F71F082
:1025000022C0112309F447C09091100281E089276D
:1025100008C081E01827109310023DC011113BC084
:1025200081E08093100237C0111135C01092100263
:1025300032C0112329F080910F02882329F329C08A
:10254000002311F328C080910F020023C1F08823DB
:1025500041F09091100281E089278093100210923F
:102560000F028D2F112319F00E94B10E14C00E948A
:10257000CF0F86E0F70111928A95E9F70CC0882306
:1025800051F0111108C09091100281E089278093C9
:10259000100210920F024C2F4F706D2FC7010E9436
:1025A0000309F8E0AF16B10441F05CF04AE0A41A68
:1025B000B10852E0A516B10420F40E94000D0E945B
:1025C0007A07DD20E1F00E94F71880FD18C0F701BE
:1025D00012820E94F1180E948717C7010E940B13F4
:1025E0000E94F118DF91CF911F910F91FF90EF9012
:1025F000DF90BF90AF909F908F900C94A817DF91C1
:10260000CF911F910F91FF90EF90DF90BF90AF900F
:102610009F908F9008950F931F93CF93DF93EC01BA
:10262000888199812B813C81232BB9F09F3F11F444
:102630008F3F99F0CE010E948C07882371F068814A
:1026400079818A810E94CE188C010E9424180E94F0
:102650002617B801CE010E944D10DF91CF911F9136
:102660000F9108950E9425190E9435190E94511951
:102670000E94421E0E94A91D80E090E00E94340D3D
:1026800080E090E00C944A0D80910801909109013E
:102690000E94FC1A0C9432130E9415190C944413D6
:1026A000E92FE295EF70F0E03297EE30F105B0F4EB
:1026B000E556FF4F0C94A025803F91F018F4803E22
:1026C00068F40EC0843F51F40BC0803E48F0813F57
:1026D00029F406C093FB882780F9089580E00895C7
:1026E00081E008950E94C3180E9450130895CF936B
:1026F000DF9300D000D01F92CDB7DEB70F900F90C0
:102700000F900F900F90DF91CF910895CF93DF93AB
:1027100000D000D000D0CDB7DEB726960FB6F89423
:10272000DEBF0FBECDBFDF91CF9108951F93CF9332
:10273000DF93C091110216E080911202C81799F040
:10274000D0E01C9FF0011D9FF00D1124ED5EFD4FA8
:102750004081518162817381848195810E948613B9
:102760002196C770E9CFDF91CF911F9108954091D5
:10277000430250914402609145027091460280915B
:102780004702909148020C948613809148028295EA
:102790008F7009F054C080914502882309F44FC01E
:1027A00080911102A0911202609143027091440243
:1027B0004091460250914702B6E08A1709F43FC0A3
:1027C00090E041155105C1F17F3F11F46F3FA1F138
:1027D000B89FF001B99FF00D1124ED5EFD4F2181EE
:1027E00072132AC02081621327C02281211124C0C4
:1027F000238134812417350710F421503109241B1B
:10280000350B283C3105C0F4209148022F7020611F
:102810002093480226E0289FF001299FF00D112403
:10282000E85EFD4F80818F708061808383E492E059
:102830000E940B130C94961301968770BECF0895D7
:10284000CF92DF92EF92FF920F931F93CF93DF937C
:10285000CDB7DEB762970FB6F894DEBF0FBECDBF1F
:102860008C0185E0F801DE011D9601900D928A959C
:10287000E1F7D8014C9111965C91119712966C91E9
:1028800012971396CD90DC9014973091430270917B
:1028900044028091460290914702009709F46BC16F
:1028A0007F3F19F43F3F09F466C1E0904502EE20F6
:1028B00009F4C0C020914802C816D90628F0F601D4
:1028C000E81BF90BCF0104C0809590958C0D9D1DE0
:1028D000FF24F394883C910578F0F12C207F09F0D7
:1028E000C6C07C2DD98AC88A89890E94771383E45F
:1028F00092E00E940B13B1C0822F807F09F046C086
:10290000751314C0341312C0611110C02F702061F0
:10291000209348020E94B71383E492E00E940B13B5
:1029200080914802D80115968C932EC0CD2819F1BC
:102930005F3F11F44F3FF9F0F62E61111CC08091FA
:1029400011022091120236E0821709F45AC090E079
:10295000389FF001399FF00D1124ED5EFD4F71811C
:10296000571306C07081471303C07281711103C0F1
:1029700001968770E9CFF62E662309F427C180916E
:102980004802816080934802F12C20C1751308C071
:10299000341306C0611104C080914802D801C3C03D
:1029A0004D875E878D859E856A8B0E9472136A892A
:1029B0008823E1F16623D1F120914802822F82958C
:1029C0008F7090E0029774F08091430290914402DE
:1029D00098878F831986DB86CA862C87CE01079657
:1029E0000E940B1386E0F801A3E4B2E001900D927F
:1029F0008A95E1F70E94C5130E94B713FF24F39450
:102A0000E5C04D875E878D859E850E94C318292F5E
:102A100022952F7030E0223031050CF0CBC09F7032
:102A200009F0C5C0805E883008F4D0C0C8010E949B
:102A30000B13E4CFC816D90608F453C0F601E81BFF
:102A4000F90BCF01883C910508F450C0F12C7C2D86
:102A5000D98AC88A89890E947713E3E4F2E086E084
:102A6000DF011D928A95E9F70E94B713AFC0751375
:102A700014C0341312C0611110C080914802F801D3
:102A80008583C8010E940B1386E0E3E4F2E0DF01D6
:102A90001D928A95E9F7FE2C99C04D875E878D853A
:102AA0009E856A8B0E9472136A89882309F4BECFBF
:102AB000662309F4BBCF20914802822F82958F7044
:102AC00090E002970CF48ECF8091430290914402E3
:102AD0009A8389831B82DD82CC822E83CE0101966C
:102AE0007FCF809590958C0D9D1DACCFF62E6623E3
:102AF00009F49CCF75132EC034132CC020914802CA
:102B000020FD1FC0822F82958F70D9F0D8011596B5
:102B10002C9315978F3049F08F5F982F9295907F67
:102B2000822F8F70892B15968C93C8010E940B13EE
:102B300086E0F801A3E4B2E001900D928A95E1F7F6
:102B400093CF86E0F801A3E4B2E001900D928A955C
:102B5000E1F73CC04D875E878D859E850E9472138C
:102B6000811140CF80914802816080934802C80162
:102B70000E940B132BC0662309F458CF4D875E8744
:102B80008D859E850E947213F82E882309F44ECFFE
:102B900086E0F801A3E4B2E001900D928A95E1F796
:102BA00083E492E00E949F0E0E94C5135DCF8111C5
:102BB00039CF0CC0243031050CF038CF9F7009F4A8
:102BC00031CFF8019581907F09F02CCF8F2D62963F
:102BD0000FB6F894DEBF0FBECDBFDF91CF911F912E
:102BE0000F91FF90EF90DF90CF9008951F93CF93B8
:102BF000DF93CDB7DEB72C970FB6F894DEBF0FBECC
:102C0000CDBF4F83588769877A878B879C87CE0192
:102C100007960E942014882369F08F8198852A8561
:102C20003B85232BF1F19F3F09F063C08F3F09F0F3
:102C300060C037C086E0FE013796DE011196019034
:102C40000D928A95E1F76F817885EA85FB8530974B
:102C500041F17F3F11F46F3F21F12091120230E0EA
:102C6000C9010196877099274091110250E084179D
:102C7000950709F447C069837A83FD83EC8396E066
:102C8000929FD001939FB00D1124AD5EBD4FFE0108
:102C9000319601900D929A95E1F7809312020E946D
:102CA000961316E080911102909112028917C1F1DA
:102CB000189FC00111248D5E9D4F0E94201488230F
:102CC00079F1E09111021E9FF0011124ED5EFD4F9C
:102CD0004081518162817381848195810E94861334
:102CE0008091110290E001968770992780931102DC
:102CF000D9CF4F81588569857A858B859C850E94BF
:102D00008613CFCF0E944C13109212021092110220
:102D1000E3E4F2E086E0DF011D928A95E9F7C1CF96
:102D20002C960FB6F894DEBF0FBECDBFDF91CF91CA
:102D30001F910895EF92FF920F931F93CF93DF930C
:102D40008C01892B09F46CC0F12CEE24E394E8018A
:102D50002196F8018491843740F4843008F051C002
:102D6000813081F0823019F15BC0853709F444C0AD
:102D7000A8F19CE7980F903708F052C08F770E9417
:102D8000CF0F41C00E5F1F4FFE01C49180E28C0F38
:102D9000883048F4C7708E2D01C0880FCA95EAF7B5
:102DA0000E94281914C08C2F0E94B10E2DC00E5FF6
:102DB0001F4FFE01C49180E28C0F883058F4C77019
:102DC0008E2D01C0880FCA95EAF70E942E190E9425
:102DD00051191AC08C2F0E94CF0F16C00E5F1F4FC3
:102DE000FE01C491CC2381F08FE99FE00197F1F7B8
:102DF00000C00000C150F6CF0E5F1F4FFE01F490DF
:102E000003C00E94B10E8E018F2D882309F49FCF3D
:102E1000EFE9FFE03197F1F700C000008150F5CFF6
:102E2000DF91CF911F910F91FF90EF90089508953A
:102E30000C9417170E9418176093840270938502F0
:102E400080938602909387020C94321308950C9419
:102E50001A170F931F9300918402109185022091FD
:102E6000860230918702602B712B822B932B1F914E
:102E70000F910C941A170F931F93009184021091D5
:102E8000850220918602309187026023712382237C
:102E900093231F910F910C941A170F931F93009176
:102EA000840210918502209186023091870260276A
:102EB0007127822793271F910F910C941A170C9456
:102EC0007B060E945F17609380027093810280935B
:102ED0008202909383020C94321360E070E0CB0185
:102EE0000C9461170F931F9341E050E060E070E095
:102EF0008A019B0104C0000F111F221F331F8A95F6
:102F0000D2F7C901B8011F910F910C9461170F936B
:102F10001F9341E050E060E070E004C0440F551F93
:102F2000661F771F8A95D2F7809180029091810267
:102F3000A0918202B09183028A019B01082B192B78
:102F40002A2B3B2BC901B8011F910F910C946117DB
:102F50000F931F9341E050E060E070E004C0440F25
:102F6000551F661F771F8A95D2F74095509560953B
:102F700070958091800290918102A0918202B0911F
:102F800083028A019B01082319232A233B23C901B9
:102F9000B8011F910F910C9461170F931F9341E09B
:102FA00050E060E070E004C0440F551F661F771FBB
:102FB0008A95D2F78091800290918102A09182023D
:102FC000B09183028A019B01082719272A273B27F2
:102FD000C901B8011F910F910C9461170F931F93B2
:102FE000009180021091810220918202309183022F
:102FF000602B712B822B932B1F910F910C946117D7
:103000000F931F9300918002109181022091820200
:103010003091830260237123822393231F910F91A8
:103020000C9461170F931F930091800210918102FD
:103030002091820230918302602771278227932793
:103040001F910F910C9461170895292F220F920F51
:10305000990F890FA82FA695A695A695877051E080
:1030600001C0550F8A95EAF785E0A89FD001112489
:1030700020E030E070E0F901EA0FFB1FE75BFD4F55
:103080004081CB01022E02C0969587950A94E2F703
:1030900081709927819584278523842780832F5FDA
:1030A0003F4F2530310539F70895292F220F920F10
:1030B000990F890F682F669566956695982F97707A
:1030C00085E0689FB001112440E050E080E0FA0103
:1030D000E60FF71FE75BFD4F208130E0092E02C0AD
:1030E000369527950A94E2F721703327042E01C004
:1030F000220F0A94EAF7822B4F5F5F4F453051054C
:1031000031F70895BF92CF92DF92EF92FF920F9323
:103110001F93CF93DF938C01C0908402D0908502DF
:10312000E0908602F0908702809180029091810267
:10313000A0918202B0918302C82AD92AEA2AFB2AE6
:10314000CFE1D0E0D701C6010C2E04C0B695A795FB
:10315000979587950A94D2F780FF07C0BC2EB801D7
:103160008C2F0E941E09019719F4219758F7B12C52
:103170008B2DDF91CF911F910F91FF90EF90DF90FA
:10318000CF90BF900895CF93DF93EC010E948218F7
:10319000BE010E941E09DF91CF9108951F93CF9326
:1031A000DF93EB0190910E02992321F0CB010E9455
:1031B000C31813C0882349F0CB010E948218182F2E
:1031C000682FCE010E94251804C0CB010E9455181B
:1031D000182FBE01812F0E941E09DF91CF911F91F0
:1031E00008958091880285958595859508958091AB
:1031F00088028770089590918802977081E009F4A1
:1032000080E008958091AC0208959091AC02892BE2
:103210008093AC02089580959091AC0289238093AD
:10322000AC0208958093AC0208951092AC02089508
:103230009091AB02892B8093AB0208958095909179
:10324000AB0289238093AB0208951092AB020895DC
:103250009091AA02892B8093AA020895809590915B
:10326000AA0289238093AA0208951092AA020895BF
:1032700080918902089508950C943B1990918902D8
:10328000981721F0809389020C943C19089580913D
:103290008902882329F01092890280E00C943C195D
:1032A0000895E0910801F09109018091AC028083BA
:1032B000E0910801F091090190818091AB02892B86
:1032C0008083E0910801F091090190818091AA0228
:1032D000892B808380918902882381F0E091080105
:1032E000F09109019081892B808380910801909150
:1032F00009010E94811A81110E94471980910801D9
:10330000909109010C940C0D08950C94841998E087
:10331000899F90011124262B209388020E948717F1
:10332000809188028595859585950C9485191092D4
:10333000880280E00C948519209188028095822370
:1033400080938802982F977079F430E0482F082EE8
:10335000000C550B2417350739F085958595859513
:103360000E94A8170C9497190895CF92DF92EF92BC
:10337000FF926C01EE24FF24C114D104E104F10496
:1033800021F0C701B60120E101C020E0C72ED82EF0
:10339000E92EFF24C114D104E104F10419F0285FDF
:1033A000C701B6016B017C0154E0F694E794D79411
:1033B000C7945A95D1F7C114D104E104F10419F06E
:1033C0002C5FC701B6016B017C0142E0F694E794E3
:1033D000D794C7944A95D1F7C114D104E104F104FC
:1033E00019F02E5FC701B601DC01CB01B695A79598
:1033F00097958795892B8A2B8B2B09F02F5F822F2E
:10340000FF90EF90DF90CF90089580E090E00E94D1
:10341000DB2621E08D3E9E4F09F020E0822F0895AB
:1034200082E090E00C94D32683E090E00C94D326C5
:1034300084E090E00C94D326682F84E090E00C9414
:10344000E126AB01BC018FE090E00C94F326AB01C8
:10345000BC0183E190E00C94F32660E070E0CB01C6
:103460000C94271A60E070E0CB010E94211A0C94A2
:103470002D1A6DEE7EEF80E090E00E94FF2660E066
:1034800082E090E00E94E12660E083E090E00E940C
:10349000E126109284021092850210928602109208
:1034A000870260E084E090E00E94E12660E085E031
:1034B00090E00E94E12660E086E090E00E94E12634
:1034C0006FEF87E090E00E94E12640E050E0BA0113
:1034D00088E090E00E94F32660E08DE090E00E949A
:1034E000E12640E050E0BA0188E190E00E94F32636
:1034F00060E087E190E00E94E1260C94321A0C947F
:10350000391AFC01329680911901882331F080919B
:10351000E70287FF02C09EE101C096E080E0915083
:1035200028F021912223D9F38F5FF9CF08959C01D0
:10353000FC0132969FEF80E04191461789F09F3F52
:1035400019F4411101C0982F8F5F8630A9F79F3F72
:1035500039F0F901E90FF11D97FDFA95628308959D
:103560000895FC01329608962081261301C010822E
:103570003196E817F907C1F70895262F2695269565
:1035800026952E3168F4FC01E20FF11D677021E0F1
:1035900030E001C0220F6A95EAF78281282B22834E
:1035A0000895262F2695269526952E3170F4FC0138
:1035B000E20FF11D677021E030E001C0220F6A9533
:1035C000EAF720958281282322830895209119010A
:1035D000222329F02091E70227FD0C94BD1A0C94B8
:1035E000971A20911901222329F02091E70227FD43
:1035F0000C94D11A0C94B11A20911901FC01329645
:10360000222331F08091E70287FF02C08EE101C0E2
:1036100086E0DF011D928A95E9F7089508950C94DC
:103620000E1B0E940F1B8091ED02843049F1109215
:10363000AE0220E488E190E00FB6F894A89580935C
:1036400060000FBE2093600080E00E947A070E9415
:103650000F1B83B7817F846083BF83B7816083BF83
:103660007894889583B78E7F83BF0FB6F894A8951A
:1036700080916000886180936000109260000FBEAE
:1036800008950895CF930E9445040E9458040E9413
:10369000411BC0E08C2F0E94BF04811104C0CF5F8A
:1036A000CE30C1F701C081E0CF91089508950C9408
:1036B000561B0E944C130E94000D0E947A070C9426
:1036C000571B1F920F920FB60F9211248F939F9347
:1036D000AF93BF938091AE02811113C08091E3023A
:1036E0009091E402A091E502B091E6024196A11DFD
:1036F000B11D8093E3029093E402A093E502B0939E
:10370000E602BF91AF919F918F910F900FBE0F90E6
:103710001F90189582E084BD93E095BD9AEF97BD08
:1037200080936E0008952FB7F8948091E3029091F2
:10373000E402A091E502B091E6022FBF0895CF9276
:10374000DF92EF92FF920F931F932FB7F89440915F
:10375000E3025091E4026091E5027091E6022FBF0E
:103760006A017B01EE24FF248C0120E030E0C016CA
:10377000D106E206F30610F4415051099A01281BC4
:10378000390BC9011F910F91FF90EF90DF90CF90FF
:10379000089578941F920F920FB60F9211248F9371
:1037A0009F93AF93BF938091E3029091E402A09125
:1037B000E502B091E6020196A11DB11D8093E302DE
:1037C0009093E402A093E502B093E602BF91AF911B
:1037D0009F918F910F900FBE0F901F901895F894A6
:1037E00081E08093E00080E28093D800E9ECF0E093
:1037F00010828FE19EE40197F1F700C000001DBA2E
:10380000109268001CBC10BE1FBA10927A00109271
:103810006E0010926F001092710010927200108270
:10382000ECEBF0E0108214B817B81AB81DB810BA53
:10383000108215B818B81BB81EB811BA0C94003F06
:1038400008950E94051A811102C00E947F1A0E94E9
:10385000101A8093AD020E94181A90E09093E8022B
:103860008093E7020E94141A682F70E080E090E0D5
:103870000C9427178091B30280FF0BC060910D015B
:1038800085E0689FB00111247595679575956795DA
:103890002BC081FF09C060910D0185E0689FB001D8
:1038A00011247595679520C082FF07C060910D01B6
:1038B00085E0689FB001112417C09091B20299234E
:1038C000D1F060910C01961788F720910D0185E0E9
:1038D000289F90011124929FA001939F500D1124C5
:1038E00070E0CA010E948C256038710540F46115B2
:1038F000710539F002C065E070E0862F08958FE70A
:10390000089581E008958091B30280FF08C060911E
:103910000B0170E0759567957595679521C081FFDE
:1039200006C060910B0170E07595679519C082FF24
:1039300004C060910B0170E010C09091B202992315
:10394000C1F060910A019617A0F780910B01899F41
:10395000C001112470E00E948C256038710528F4A4
:103960006115710521F0862F08958FE7089581E094
:10397000089561E070E0F4CF803F21F40E943A1C8A
:10398000819504C0813F29F40E943A1C8093B702BC
:103990000895823F21F40E943A1C819504C0833F20
:1039A00029F40E943A1C8093B6020895893F19F4C5
:1039B0000E94831C05C08A3F31F40E94831C8195BC
:1039C0008093B80208958B3F21F40E94831C819557
:1039D00004C08C3F29F40E94831C8093B90208958F
:1039E000843F21F48091B502816017C0853F21F4A6
:1039F0008091B502826011C0863F21F48091B502AA
:103A000084600BC0873F21F48091B502886005C0B7
:103A1000883F31F48091B50280618093B5020895AA
:103A20008D3F21F48091B30281600BC08E3F21F461
:103A30008091B302826005C08F3F29F48091B30268
:103A400084608093B3020895803F39F48091B70277
:103A500087FF6CC01092B70269C0813F29F4809142
:103A6000B7021816BCF362C09091B602823F29F4E7
:103A700097FF5CC01092B60259C0833F19F4191623
:103A8000CCF354C0893F41F48091B80218160CF071
:103A90004DC01092B8024AC08A3F29F48091B80202
:103AA00087FF44C0F6CF8B3F39F48091B90287FF7E
:103AB0003DC01092B9023AC08C3F29F48091B902FE
:103AC0001816BCF333C0843F21F48091B5028E7F79
:103AD00017C0853F21F48091B5028D7F11C0863FCC
:103AE00021F48091B5028B7F0BC0873F21F4809138
:103AF000B502877F05C0883F31F48091B5028F7E83
:103B00008093B50213C08D3F21F48091B3028E7F64
:103B10000BC08E3F21F48091B3028D7F05C08F3F93
:103B200029F48091B3028B7F8093B3028091B60217
:103B300081110EC08091B70281110AC08091B80234
:103B4000811106C08091B902811102C01092B202A7
:103B5000089584EB92E00E94260D0E94931B90939F
:103B6000B1028093B00208951F93CF93DF938091A9
:103B7000B0029091B1020E949F1BAC019091B202E1
:103B8000992321F020910E0130E006C02091AF0270
:103B90008AE0289F900111244217530708F46EC051
:103BA0008091B602C091B702D091B8021091B902CB
:103BB000811107C0C1115EC0D1115CC011115AC082
:103BC0005DC09F3F19F09F5F9093B202181624F4D6
:103BD0000E943A1C8093B6028091B60287FF05C00E
:103BE0000E943A1C81958093B6021C1624F40E9410
:103BF0003A1C8093B7028091B70287FF05C00E94EC
:103C00003A1C81958093B7024091B602442379F023
:103C10003091B702332359F025EB4203A001112460
:103C20005093B6023203C00111249093B7021D16BF
:103C300024F40E94831C8093B8028091B80287FF0D
:103C400005C00E94831C81958093B802111624F44C
:103C50000E94831C8093B9028091B90287FF05C03E
:103C60000E94831C81958093B902DF91CF911F91AF
:103C70000C94A91D9F3F09F0A6CFAECFDF91CF9145
:103C80001F910895E4EBF2E086E0DF011D928A9532
:103C9000E9F71092B2021092B30208958091DA020D
:103CA00008950F931F93CF93DF9300D01F92CDB74A
:103CB000DEB78C010E94BF20823011F0843021F5E4
:103CC00084E089831B830A8382E08093E9008FEF7D
:103CD0009091E800815095FD06C095ED9A95F1F719
:103CE00000008111F5CF8091E80085FF0DC040E014
:103CF00050E063E070E0CE0101960E94DC208091EC
:103D0000E8008E778093E8000F900F900F90DF917E
:103D1000CF911F910F910895CF93DF9300D01F9201
:103D2000CDB7DEB72091ED02243031F523E02983B1
:103D3000805891099B838A8382E08093E9008FEF0A
:103D40009091E800815095FD06C095ED9A95F1F7A8
:103D500000008111F5CF8091E80085FF0DC040E0A3
:103D600050E063E070E0CE0101960E94DC2080917B
:103D7000E8008E778093E8000F900F900F90DF910E
:103D8000CF910895CF93DF93EC010E94BF20823042
:103D900011F08430F9F482E08093E9009FEF809184
:103DA000E800915085FD06C085ED8A95F1F7000089
:103DB0009111F5CF8091E80085FF0CC040E050E004
:103DC00066E070E0CE010E94DC208091E8008E77F2
:103DD0008093E800DF91CF910895CF93DF93EC01BA
:103DE0000E94BF20823011F08430D9F580911901F2
:103DF000882339F08091E70287FF03C060E282E008
:103E000002C068E081E08093E9008FEF9091E800C4
:103E1000815095FD06C095ED9A95F1F7000081114E
:103E2000F5CF8091E80085FF1CC0809119018111B8
:103E300005C040E050E068E070E003C070E040E0A2
:103E400050E0CE010E94DC208091E8008E778093C4
:103E5000E80080E2FE01AAEBB2E001900D928A95A3
:103E6000E1F7DF91CF9108958091EC02811109C0B3
:103E70000E9471220E94CE228091E2008460809391
:103E8000E20008951092EC020895089508950C94AC
:103E9000591B42E061EC81E00E94EB2142E261ECBF
:103EA00082E00C94EB218091EF02833009F460C032
:103EB00030F4813071F0823009F499C008958A306D
:103EC00009F485C08B3009F46BC0893009F0A7C0B4
:103ED00020C08091EE02813A09F0A1C08091E800F3
:103EE000877F8093E8008091F2029091F302892B02
:103EF00021F460E28AEB92E003C060E080E090E0B1
:103F000070E00E9427218091E8008B778093E80081
:103F100008958091EE02813209F081C08091F20211
:103F20009091F302029708F07AC08091E800877FB1
:103F30008093E8008091E80082FD05C08091ED0249
:103F40008111F8CF6CC02091F3008091F20090E0D5
:103F5000922B029729F48091F1008B7F813021F41C
:103F60008091F1008093DA028091E8008B7753C052
:103F70008091EE02813A09F052C08091F202909154
:103F8000F302892B09F04BC08091E800877F809372
:103F9000E8008091E80080FFFCCF8091190136C0D5
:103FA0008091EE028132D9F58091F2029091F30274
:103FB000892BA9F58091E800877F8093E8000E9413
:103FC00020228091F002809319010C944C1380916F
:103FD000EE02813221F58091E800877F8093E8002E
:103FE0000E9420228091F1028093DB02089580914B
:103FF000EE02813AA1F48091E800877F8093E80087
:104000008091E80080FFFCCF8091DB028093F1007B
:104010008091E8008E778093E8000C942022089528
:1040200084B7877F84BF0FB6F894A895809160000D
:10403000886180936000109260000FBE80E88093DA
:104040006100109261000E946E0D0E9471220E9418
:10405000CE228091E20084608093E20078940E94F6
:104060005D250E94760D8FE091E00E94FB0C80910F
:10407000ED02853069F40E94111B8091EB028823C8
:10408000B1F30E94421B882391F30E94C620EFCF18
:104090000E947E0DECCF0C944D20292F3327233026
:1040A0003105C9F064F42130310581F02230310549
:1040B00009F04CC08BE390E021E535E04BC02132A4
:1040C000310521F12232310589F140C082E190E0D1
:1040D0002CE835E03FC099278130910571F02CF430
:1040E000892BA1F5EDE4F5E00DC08230910541F09A
:1040F000039761F5E7E1F5E005C0E5E3F5E002C00F
:10410000EDE1F5E0849190E09F0124C06115710517
:1041100041F061307105D1F489E090E02CE735E0A1
:1041200019C089E090E023E635E014C061157105FF
:1041300041F06130710551F480EC90E02EE935E0FA
:1041400009C080E490E02EE536E004C080E090E015
:1041500020E030E0FA013183208308950895CF9361
:10416000C82F0E94AE20C093DC02CF9108958091A9
:10417000ED02843011F081E0089582E0089580918D
:10418000DC02811102C00C94B720089580E189BD42
:1041900082E189BD09B400FEFDCF8091D8008F7DFA
:1041A0008093D8008091E00082608093E00080914D
:1041B000E00081FDFCCF0895CF92DF92EF92FF9255
:1041C0000F931F93CF93DF93EC018B016A010E9441
:1041D0003F22811133C0C114D10439F0F60180812E
:1041E0009181081B190BC80FD91FE12CF12C011567
:1041F000110519F18091E80085FD16C08091E80055
:104200008E778093E800C114D10449F0F6018081D3
:104210009181E80EF91EF182E08285E00FC00E94D4
:104220003F22882321F30AC089918093F100015035
:104230001109FFEFEF1AFF0ADACF80E0DF91CF918B
:104240001F910F91FF90EF90DF90CF9008952091F4
:10425000F4023091F5022617370748F06115710511
:1042600039F42091E8002E772093E80001C0B901CD
:1042700040E061157105A9F12091ED02222309F4B6
:1042800043C0253009F442C02091E80023FD40C01E
:104290002091E80022FD32C02091E80020FFE9CF04
:1042A0004091F3002091F20030E0342BFC01CF016B
:1042B0006115710559F02830310540F481918093E2
:1042C000F100615071092F5F3F4FF1CF41E028307D
:1042D000310509F040E02091E8002E772093E800B6
:1042E000C8CF4111C9CF0AC08091ED02882361F087
:1042F000853061F08091E80083FD0AC08091E8007C
:1043000082FFF2CF80E0089582E0089583E008956F
:1043100081E008952091F4023091F50226173707C5
:1043200048F06115710539F42091E8002E7720934B
:10433000E80001C0B901FC0120E06115710591F1AF
:104340008091ED02882309F440C0853009F43FC014
:104350008091E80083FD3DC08091E80082FD2FC080
:104360008091E80080FFE9CF2091F3008091F20076
:1043700090E0922B6115710559F08830910540F459
:1043800024912093F1003196615071090196F2CF8A
:1043900021E0089709F020E08091E8008E77809373
:1043A000E800CBCF2111CCCF0AC08091ED02882349
:1043B00061F0853061F08091E80083FD0AC0809152
:1043C000E80082FFF2CF80E0089582E0089583E064
:1043D000089581E00895982F973058F59093E9005B
:1043E000981739F07091EC002091ED005091F00099
:1043F00003C0242F762F50E021FF19C03091EB002D
:104400003E7F3093EB003091ED003D7F3093ED0027
:104410003091EB0031603093EB007093EC0020930F
:10442000ED005093F0002091EE0027FF07C09F5F42
:10443000D3CF8F708093E90081E0089580E00895E4
:104440008091EE0287FF11C08091E80082FD05C0D7
:104450008091ED028111F8CF11C08091E8008B7737
:104460000BC08091ED02882349F08091E80080FF25
:10447000F8CF8091E8008E778093E800089520912E
:10448000E4003091E50095E64091EC00842F8170C6
:1044900040FF22C08091E80080FD1CC08091ED02A9
:1044A000882391F0853091F08091EB0085FD10C05C
:1044B0004091E4005091E5004217530729F39A0117
:1044C000915011F784E0089582E0089583E0089503
:1044D00081E0089580E008954091E80042FFDECF3A
:1044E00008950E94DF220E94E722E0EEF0E0808142
:1044F00081608083E8EDF0E080818F77808319BC54
:10450000A7EDB0E08C918E7F8C9380818F7E80832D
:104510001092EC0208950F931F93CF93DF930E94A4
:10452000DF220E94E722C8EDD0E088818F77888360
:1045300088818068888388818F7D888319BC1092E8
:10454000ED021092E9021092EB021092EA0200EEE4
:1045500010E0F80180818B7F80838881816088836F
:1045600042E060E080E00E94EB21E1EEF0E080813B
:104570008E7F8083E2EEF0E08081816080838081A5
:1045800088608083F80180818E7F8083888180614C
:104590008883DF91CF911F910F910895E8EDF0E0AE
:1045A00080818F7E8083E7EDF0E080818160808371
:1045B00084E082BF81E08093EC020C948B22E8EDD2
:1045C000F0E080818E7F80831092E2000895109247
:1045D000DA001092E10008951F920F920FB60F9229
:1045E00011242F933F934F935F936F937F938F93F8
:1045F0009F93AF93BF93EF93FF938091E10082FF6E
:104600000BC08091E20082FF07C08091E1008B7FA8
:104610008093E1000E945C258091DA0080FF1FC03A
:104620008091D80080FF1BC08091DA008E7F80933C
:10463000DA008091D90080FF0DC080E189BD82E160
:1046400089BD09B400FEFDCF81E08093ED020E9498
:10465000341F05C019BC1092ED020E94421F8091C8
:10466000E10080FF19C08091E20080FF15C08091B9
:10467000E2008E7F8093E2008091E200806180936F
:10468000E2008091D80080628093D80019BC85E058
:104690008093ED020E94461F8091E10084FF30C0AC
:1046A0008091E20084FF2CC080E189BD82E189BD58
:1046B00009B400FEFDCF8091D8008F7D8093D80093
:1046C0008091E1008F7E8093E1008091E2008F7EF7
:1046D0008093E2008091E20081608093E20080910B
:1046E000E902882311F084E007C08091E30087FD90
:1046F00002C081E001C083E08093ED020E94471F69
:104700008091E10083FF29C08091E20083FF25C0F2
:104710008091E100877F8093E10082E08093ED0249
:104720001092E9028091E1008E7F8093E1008091F8
:10473000E2008E7F8093E2008091E20080618093AE
:10474000E20042E060E080E00E94EB218091F00016
:1047500088608093F0000E94451FFF91EF91BF9108
:10476000AF919F918F917F916F915F914F913F9109
:104770002F910F900FBE0F901F9018951F920F92C0
:104780000FB60F9211242F933F934F935F936F9324
:104790007F938F939F93AF93BF93CF93DF93EF93C9
:1047A000FF93C091E900CF708091EC00D82FD170B9
:1047B00080FDD0E81092E9008091F000877F80931F
:1047C000F00078940E9402241092E9008091F00099
:1047D00088608093F000CD2BCF70C093E900FF91EB
:1047E000EF91DF91CF91BF91AF919F918F917F9189
:1047F0006F915F914F913F912F910F900FBE0F904E
:104800001F9018951F93CF93DF93CDB7DEB7AA976C
:104810000FB6F894DEBF0FBECDBFEEEEF2E088E03B
:104820008E0F9091F10091938E13FBCF0E94531F36
:104830008091E80083FF28C18091EE029091EF0201
:10484000492F50E04A30510508F01EC1FA01E755E2
:10485000FF4F0C94A025803821F0823809F014C154
:1048600008C08091EA029091EB02992389F082605E
:104870000FC08091F2028F70873008F005C18093DD
:10488000E9008091EB0085FB882780F91092E90010
:104890009091E800977F9093E8008093F100109248
:1048A000F100D0C0282F2D7F09F0EEC0882319F029
:1048B000823061F0E9C08091F002813009F0E4C0FB
:1048C000933009F080E08093EB022EC08091F002DB
:1048D00081112AC08091F2028F702FEF280F2630AD
:1048E00008F0D2C08093E9002091EB0020FF1CC0AB
:1048F000933021F48091EB00806214C09091EB0022
:1049000090619093EB0021E030E0A90102C0440FD8
:10491000551F8A95E2F74093EA001092EA008091D1
:10492000EB0088608093EB001092E9008091E80032
:10493000877F8093E8000E942022A6C08111A4C036
:104940001091F0021F778091E3008078812B809393
:10495000E3008091E800877F8093E8000E94202296
:104960008091E80080FFFCCF8091E3008068809315
:10497000E300111102C082E001C083E08093ED02E8
:1049800083C08058823008F07FC08091F0029091FF
:10499000F1028C3D53E0950779F583E08A838AE242
:1049A00089834FB7F894DE01139620E03EE051E290
:1049B000E32FF0E050935700E49120FF03C0E2950D
:1049C000EF703F5FEF708E2F90E0EA3010F0C796E7
:1049D00001C0C0968D939D932F5F243149F74FBF3F
:1049E0008091E800877F8093E8006AE270E0CE0162
:1049F00001960E94272115C06091F2027091F30286
:104A0000AE014F5F5F4F0E944B20BC01892BE1F14B
:104A10009091E800977F9093E80089819A810E94A5
:104A20008A218091E8008B778093E8002DC0803840
:104A300059F58091E800877F8093E8008091E90232
:104A40008093F1008091E8008E7773CF81111CC0B4
:104A50009091F0029230C0F48091E800877F8093BB
:104A6000E8009093E9020E9420228091E9028111DE
:104A700006C08091E30087FD02C081E001C084E0B0
:104A80008093ED020E94491F8091E80083FF0AC0D5
:104A90008091E800877F8093E8008091EB0080623E
:104AA0008093EB00AA960FB6F894DEBF0FBECDBF81
:104AB000DF91CF911F9108950895CF938091ED02DA
:104AC0008823A1F0C091E900CF709091EC00892F6C
:104AD000817090FD80E8C82B1092E9008091E80079
:104AE00083FD0E940224CF70C093E900CF91089506
:104AF000AA1BBB1B51E107C0AA1FBB1FA617B70704
:104B000010F0A61BB70B881F991F5A95A9F780951F
:104B10009095BC01CD01089597FB072E16F40094E3
:104B200007D077FD09D00E94782507FC05D03EF418
:104B3000909581959F4F0895709561957F4F089549
:104B4000EE0FFF1F0590F491E02D0994CF93DF93B2
:104B50008230910510F482E090E0E091F802F0914B
:104B6000F90220E030E0C0E0D0E0309711F1408160
:104B7000518148175907C0F04817590761F48281DD
:104B80009381209719F09B838A832BC09093F9021D
:104B90008093F80226C02115310519F042175307FA
:104BA00018F49A01BE01DF01EF010280F381E02DCC
:104BB000DCCF2115310509F1281B390B24303105D3
:104BC00090F412968D919C9113976115710521F0C7
:104BD000FB019383828304C09093F9028093F802CF
:104BE000FD01329644C0FD01E20FF31F81939193C2
:104BF000225031092D933C933AC02091F602309116
:104C0000F702232B41F420910201309103013093EC
:104C1000F7022093F6022091000130910101211545
:104C2000310541F42DB73EB7409104015091050183
:104C3000241B350BE091F602F091F702E217F3071F
:104C4000A0F42E1B3F0B2817390778F0AC014E5FFC
:104C50005F4F2417350748F04E0F5F1F5093F70240
:104C60004093F6028193919302C0E0E0F0E0CF011F
:104C7000DF91CF9108950F931F93CF93DF93009708
:104C800009F48CC0FC013297138212820091F80261
:104C90001091F9020115110581F420813181820FF3
:104CA000931F2091F6023091F7022817390779F502
:104CB000F093F702E093F60271C0D80140E050E0B3
:104CC000AE17BF0750F412962D913C911397AD018A
:104CD0002115310509F1D901F3CF9D01DA013383A3
:104CE000228360817181860F971F8217930769F471
:104CF000EC0128813981260F371F2E5F3F4F31830A
:104D000020838A819B8193838283452B29F4F093AE
:104D1000F902E093F80242C01396FC93EE931297C7
:104D2000ED01499159919E01240F351FE217F307B8
:104D300071F480819181840F951F029611969C9346
:104D40008E938281938113969C938E931297E0E0C9
:104D5000F0E0D80112968D919C911397009719F06D
:104D6000F8018C01F6CF8D919C9198012E5F3F4FF9
:104D7000820F931F2091F6023091F702281739070E
:104D800069F4309729F41092F9021092F80202C0E7
:104D9000138212821093F7020093F602DF91CF91F3
:104DA0001F910F910895F999FECF92BD81BDF89A98
:104DB000992780B50895A8E1B0E042E050E00C9456
:104DC0000727262FF999FECF92BD81BDF89A01974A
:104DD00000B4021639F01FBA20BD0FB6F894FA9A43
:104DE000F99A0FBE08950396272F0E94E2260E948B
:104DF000E126252F0E94E226242F0C94E22601961C
:104E0000272F0E94E2260C94E126DC01CB01FC0155
:104E1000F999FECF06C0F2BDE1BDF89A319600B413
:0E4E20000D9241505040B8F70895F894FFCF1E
:104E2E000000FA02200020008A0228083C07144ED7
:104E3E001EED1EC21E8C1E511E01000D010D020D17
:104E4E00030D040D050D000C010C020C030C040CDB
:104E5E00050C000B010B020B030B040B050B000AD8
:104E6E00010A020A030A040A050A000901090209D5
:104E7E0003090409050900080108020803080408CB
:104E8E0005080007010702070307040705070006C8
:104E9E0001060206030604060506000501050205C5
:104EAE0003050405050500040104020403040404BB
:104EBE0005040003010302030303040305030002B8
:104ECE0001020202030204020502000101010201B5
:104EDE0003010401050100000100020003000400AB
:024EEE000500BD
:00000001FF
