:100000000C946F020C948C020C948C020C948C0255
:100010000C948C020C948C020C948C020C948C0228
:100020000C948C020C948C020C943C180C94781751
:100030000C943E110C948C020C948C020C948C0247
:100040000C948C020C948C020C948C020C948C02F8
:100050000C948C020C94CC100C948C020C948C029A
:100060000C948C020C948C020C948C020C948C02D8
:100070000C948C020C948C020C948C020C948C02C8
:100080000C948C020C948C020C948C020C948C02B8
:100090000C948C020C948C020C948C020C948C02A8
:1000A0000C948C020C948C020C948C028B048D04A6
:1000B00098048F0491049304950497049A049C0473
:1000C0009E04A904A004A204A404A604A804AB04EA
:1000D0004D054D058B058B05C705E705C9072208AA
:1000E0002906220826072607330733073307330775
:1000F0003307330733073307330733073307330730
:10010000330733073307330744076C077107780752
:100110009007C808CB08CE08D108D408D708DA0859
:100120006B1370137A136E13731378137613891588
:10013000B0155017B0155017F8151B165017191792
:100140002C179F1C9F1CB21CB21CA81CB21CB21CFA
:10015000B21C9F1C9F1CAD1CB21CB21CAD1C3500F8
:100160002B002961E100025800001E003400040049
:100170003300E3002C001F00360012001400E300DF
:100180004B022000370008000D0001582800210014
:10019000130018000E00E200520022001C000C00A8
:1001A0001B00000050004C002A0000002C00000042
:1001B0004F004C002A00000028000000A800230087
:1001C00009000700050000004F0024000A000B0092
:1001D0001000E200A9002500060017001A000158CF
:1001E0002C002600150011001900E3004E00270026
:1001F0000F0016001D00E300AA00310038002D7129
:10020000E5000258000001000100105001001050EC
:100210000000010001000100010010504C0001002D
:1002200001005000010010504B000100520051002D
:10023000F10010504E0001000100FB00F0001050D2
:100240004D000100F900FC00FA0000004A004600E1
:100250000100000001000000010046000100000054
:100260000100000001000100010001000100000088
:1002700001000100F400F200F40010500100010040
:10028000F000F100F500105001000100F500F3004E
:100290000100105001000100F300010001001050A6
:1002A00001000100010001000100105000003502B2
:1002B00001001050E100105000003A004A003100E7
:1002C000330210502A003B002D0054003802105019
:1002D000E1003C0008002602510010502C004D00A7
:1002E0002E0008005200105001003E004B00310269
:1002F0004E000000010044002A0000002800000019
:10030000390045002A00000028000000A8003F0036
:10031000540025022D000000010040002400500080
:100320001E001050A900410025005D001F00105064
:100330002C0042002600230020001050E50043005E
:100340004F002D0028001050AA00010001002D715F
:10035000E5001050000005010902A1018502090114
:10036000A10005091901290515002501950575014B
:10037000810295017503810105010930093115815B
:10038000257F95027508810609381581257F95011D
:1003900075088106050C0A38021581257F950175BF
:1003A000088106C0C005010980A10185031601006E
:1003B0002603001A81002A8300751095018100C070
:1003C000050C0901A1018504160100269C021A01F1
:1003D000002A9C02751095018100C005010906A143
:1003E000018505050719E029E71500250195087520
:1003F00001810205081901290595057501910295EC
:1004000001750391010507190029EF1500250195D4
:10041000F075018102C005010906A101050719E077
:1004200029E71500250195087501810295017508D8
:1004300081010508190129059505750191029501AC
:10044000750391010507190029FF150026FF009586
:100450000675088100C009023B00020100A0FA09EC
:1004600004000001030101000921110100012240E3
:10047000000705810308000A0904010001030000C8
:100480000009211101000122C0000705820320009C
:100490000A1201100100000008EDFE07130100011F
:1004A00002030104033000000016034500720067D8
:1004B000006F0044006F007800200045005A0000E3
:1004C0000016034500720067006F0044006F00785B
:1004D00000200045005A0000000403090400112414
:1004E0001FBECFEFDAE0DEBFCDBF11E0A0E0B1E08C
:1004F000E6EDF3E402C005900D92AC3BB107D9F7ED
:1005000022E0ACEBB1E001C01D92AF3EB207E1F7D3
:100510000E940C1A0C94E9210C9400008F929F9277
:10052000AF92BF92CF92DF92EF92FF920F931F9301
:10053000CF93DF93CDB7DEB728970FB6F894DEBF21
:100540000FBECDBFFC01F080118183819481892B86
:1005500009F4AFC51F3F21F40FEFF01609F4A9C548
:100560006F0185E0DE01119601900D928A95E1F709
:10057000F601228189819A81222349F00E94681222
:10058000082F682F89819A810E94E11203C00E947E
:10059000B412082F26E0129FF001112434E5039FC6
:1005A000E00DF11D1124EF0DF11DEE0FFF1FE25ABA
:1005B000FE4F05911491F6018281053FFCE51F076E
:1005C000A1F5882309F475C51CC01092BD01F60180
:1005D00092810531FCE51F0708F40DC10C3DECE5E7
:1005E0001E0709F466C108F414C10D3D3CE513076C
:1005F00009F465C10E3D1C4509F006C2992309F4B2
:1006000058C528960FB6F894DEBF0FBECDBFDF9158
:10061000CF911F910F91FF90EF90DF90CF90BF90FF
:10062000AF909F908F900C94CA11882309F498C0C2
:10063000033E2CE51207C1F050F4013E8CE518078B
:1006400081F0023E9CE51907B9F481E010C0043E38
:10065000ECE51E0759F0053EFCE51F0769F484E050
:1006600006C01092AA0205C082E001C083E0809318
:10067000AA020E94A40A74C0013020E8120708F4FC
:100680006FC07801E894F7F8809179028093BC01FB
:10069000109279028091AA02813071F048F0823084
:1006A000D9F08430F9F486EE0E942A1F88E118C040
:1006B00082EE0E94321F16C080EE0E94321F81EE31
:1006C0000E94321F88E10E942A1F81EE0E94C31EF1
:1006D00080EE0E94C31E06C082EE0E94321F87E594
:1006E0000E942A1F8FE39CE90197F1F700C00000E8
:1006F0005CE0A52EB12CC7010A2C02C09695879507
:100700000A94E2F7282F2F7041F0822F90E02A30D0
:1007100010F44D9604C0069702C087E290E00E9454
:100720002A1F94E0A91AB108ECEFAE16EFEFBE064F
:1007300011F78091AA02813039F040F0823031F017
:10074000843051F488E206C08CE204C082EE0E943C
:10075000C31E02C00E942A1F8091BC0180937902AF
:10076000003FFCE51F07C1F188F4083D3CE5130795
:10077000D9F0093D8CE51807D9F1073D9CE519072B
:1007800009F023CF26E241EE61EE11C0023FECE515
:100790001E0751F128F1033F2CE5120709F015CF90
:1007A00027E246EE66EE03C027E245EE65EEC6019F
:1007B00028960FB6F894DEBF0FBECDBFDF91CF9164
:1007C0001F910F91FF90EF90DF90CF90BF90AF906F
:1007D0009F908F900C94450A26E240EE60EEE7CFA2
:1007E00027E244EE64EEE3CF26E242EE62EEDFCF94
:1007F00028E241E0DBCF02302CE5120708F066C0AA
:1008000001153CE5130751F001301C4509F448C0BF
:10081000FBC006311C4509F4C3C0F6C0992309F496
:1008200048C4109279020E949B1E9FEFE4E3FCE013
:100830009150E040F040E1F700C00000F89481E002
:100840008093E00080E28093D8001092C9008FE18D
:100850009EE40197F1F700C000001DBA10926800F5
:100860001CBC10BE1FBA10927A0010926E0010923B
:100870006F0010927100109272001092C9001092D5
:10088000BC0014B817B81AB81DB810BA1092BC0042
:1008900015B818B81BB81EB811BA0C94003F09C49B
:1008A000992309F406C48091D90281608093D9020A
:1008B00000C4992309F4FDC31092E802FAC39923F6
:1008C00009F4F7C382E08093E802F3C3992309F4A3
:1008D0009BC080E090E00E9454208D3E9E4F11F01E
:1008E0000E94CA1184E090E00E944C2090E0909316
:1008F000BD028093BC02F801E350FC45E231F105F2
:1009000030F4EA5AFF4F8091BC020C94B6208091DB
:10091000BC02816027C0826025C0846023C08061E2
:1009200021C080621FC080641DC080681BC08460BD
:10093000886018C08E7F16C08D7F14C08B7F12C058
:100940008F7E10C08F7D0EC08F7B0CC08F770AC04A
:100950008B7F877F07C087FB222720F991E09227B2
:1009600090FB87F98093BC026091BC0284E090E028
:100970000E945A201092790228960FB6F894DEBF92
:100980000FBECDBFDF91CF911F910F91FF90EF90E0
:10099000DF90CF90BF90AF909F908F900C949B1E54
:1009A00080917902992389F0982F9A7A81E009F44D
:1009B00080E08093BE01811102C069E201C065E35D
:1009C00088ED91E00E9492110BC08091BE018111CF
:1009D00002C069E201C065E388ED91E00E94671101
:1009E00028960FB6F894DEBF0FBECDBFDF91CF9132
:1009F0001F910F91FF90EF90DF90CF90BF90AF903D
:100A00009F908F900C942212F601008111819923FE
:100A100049F0C8010E946812F82E682FC8010E9490
:100A2000E11204C0C8010E94B412F82EB8018F2D43
:100A30000E94AA0A182F382FF601258122952F70BF
:100A40000281011110926D0280916B028770A9F0F2
:100A5000002399F080E2810F883078F082E02F83C4
:100A600038879E830E94AD1380916B028770EE24BD
:100A7000E3942F8138859E818111E12CA92EA294C7
:100A80004FE0A422B12CFCE0AF16B10408F0DAC2AA
:100A9000F501E859FF4F0C94B620892F807F9F7095
:100AA000F92E882319F0F29480EFF8220023B9F090
:100AB000FF2009F458C280E2810F883010F0311114
:100AC00006C090917902F92AF092790205C09091BE
:100AD0006D02F92AF0926D020E94221244C2812F07
:100AE00038870E94C31E3885FF2009F4ABC2105E10
:100AF000F094183010F0311106C090917902F9226B
:100B0000F092790205C090916D02F922F0926D0287
:100B10000E94221297C2492F407F892F8F70403246
:100B200011F08295807F332319F03130E9F025C030
:100B3000002381F030916E02222351F0213041F4E4
:100B4000982F932B391709F47DC290936E027AC2C5
:100B5000832B91C1222319F0213009F473C28E83B3
:100B60000E941C128E818DC1002321F0223008F0DA
:100B700069C281C1211166C284C1002321F02223F0
:100B800009F479C1F0C1222309F47BC1FEC1292FE8
:100B900026952695237030E02115310521F021306E
:100BA000310559F04FC2002319F0812F937002C014
:100BB00080E090E00E94230A53C2002319F0812FA5
:100BC000937002C080E090E00E940D0A49C20023A9
:100BD000F9F0153F51F0163F71F0143FA9F48091E0
:100BE000BF019091C00181600BC08091BF019091C5
:100BF000C001826005C08091BF019091C0018460F6
:100C00009093C0018093BF01812F0E9464101EC089
:100C1000153F51F0163F71F0143FA9F48091BF01C8
:100C20009091C0018E7F0BC08091BF019091C00157
:100C30008D7F05C08091BF019091C0018B7F909303
:100C4000C0018093BF01812F0E949A0F0E9428113A
:100C500007C2892F837009F079C00111FFC1812F6C
:100C6000829586958770880F880F412F4F7050E0CE
:100C700060E070E04A015B01082E04C0880C991CFA
:100C8000AA1CBB1C0A94D2F714FF14C04FE050E01A
:100C900060E070E08A019B0104C0000F111F221F59
:100CA000331F8A95D2F7B901A801409550956095F8
:100CB000709503C040E050E0BA0196959695937008
:100CC000892F90E000916F021091700220917102C3
:100CD0003091720282309105A9F083309105E9F0DC
:100CE000019759F0482959296A297B29CB01BA0172
:100CF000602371238223932326C0802A912AA22A6B
:100D0000B32A1BC0482959296A297B29CB01BA017A
:100D1000602771278227932716C0CB01BA01602371
:100D20007123822393230E94E71340916F02509115
:100D300070026091710270917202CB01BA01682950
:100D400079298A299B290E94E71388C1002319F079
:100D5000892F817001C08695882309F47FC1812F76
:100D6000829586958770880F880F412F4F7050E0CD
:100D700060E070E04A015B01082E04C0880C991CF9
:100D8000AA1CBB1C0A94D2F714FF14C04FE050E019
:100D900060E070E08A019B0104C0000F111F221F58
:100DA000331F8A95D2F7B901A801409550956095F7
:100DB000709503C040E050E0BA0196959695937007
:100DC000892F90E0009167021091680220916902DA
:100DD00030916A0282309105A9F083309105E9F0E3
:100DE000019759F0482959296A297B29CB01BA0171
:100DF000602371238223932326C0802A912AA22A6A
:100E0000B32A1BC0482959296A297B29CB01BA0179
:100E1000602771278227932716C0CB01BA01602370
:100E20007123822393230E941113409167025091F2
:100E300068026091690270916A02CB01BA01682967
:100E400079298A299B290E94111308C1412F50E05A
:100E5000FA01E05EF109E531F10508F07FC0EC58D8
:100E6000FF4F0C94B6201F70892F8F71002331F033
:100E70000E94C613812F0E94B91EE4C00E948813ED
:100E8000812F0E94AE1EDEC0002311F12111DAC0B5
:100E9000292F2F7181E090E0A0E0B0E0AC01BD010E
:100EA00004C0440F551F661F771F2A95D2F7809103
:100EB000670290916802A0916902B0916A028A016A
:100EC0009B01082719272A273B27C901B80125C0FC
:100ED000223008F0B7C0DCCF002329F0892F8F71B2
:100EE0002EC00023D9F3892F8F710E948813AAC0C6
:100EF000002381F0292F2F7181E090E0A0E0B0E085
:100F0000BC01CD0104C0660F771F881F991F2A9569
:100F1000D2F703C060E070E0CB010E94111392C0D1
:100F2000002381F0192F1F71812F0E94C61328E022
:100F3000129FC0011124836080936B02812F0E9455
:100F4000C61380C081E02F830E94AD132F81223011
:100F500008F478C082E00E94AD1374C0002339F019
:100F6000222309F4BBCF812F0E94321F6BC02223A2
:100F700009F4B9CF193349F43FEF87EE93E03150CC
:100F800080409040E1F700C00000812F0E94C31E06
:100F900059C0323FB1F028F4303F49F0313FF9F009
:100FA00028C0343FB9F058F0353F71F022C000231B
:100FB00009F456C09091EA0281E0892708C081E0D7
:100FC00008270093EA024CC001114AC081E08093D7
:100FD000EA0246C0011144C01092EA0241C0002357
:100FE00029F08091E902882329F329C0222311F3F3
:100FF00037C08091E9022223C1F0882341F090910B
:10100000EA0281E089278093EA021092E902812FA7
:10101000002319F00E94321F23C00E94C31E86E0E5
:10102000F60111928A95E9F71BC08823C9F00111D6
:1010300017C09091EA0281E089278093EA0210921A
:10104000E9020EC0F8E0AF16B10441F04CF01AE02E
:10105000A11AB10822E0A216B10410F40E94390AC4
:10106000EE2039F180916B0280FD23C0F6011282DF
:101070008595859585950E94C613C6010E948E02AE
:1010800080916B0285958595859528960FB6F89485
:10109000DEBF0FBECDBFDF91CF911F910F91FF90AB
:1010A000EF90DF90CF90BF90AF909F908F900C9477
:1010B000881328960FB6F894DEBF0FBECDBFDF9120
:1010C000CF911F910F91FF90EF90DF90CF90BF9045
:1010D000AF909F908F9008959091BC0292FF0DC0A9
:1010E000282F2871283019F4877F846006C0282FA4
:1010F0002471243011F48B7F886093FF0DC0282F5A
:101100002871283119F4877E846106C0282F247144
:10111000243111F48B7E886194FD877E0895CF93EE
:10112000E82F873058F58091070190910801892BAD
:1011300009F042C0CE2F80E40E942214909308014F
:1011400080930701892BB1F482E10E94FB139093F5
:10115000080180930701892B69F481E090E001C0C8
:10116000880FCA95EAF780950E94FB1390930801B7
:101170008093070184E98093BC001EC090E0FC01CD
:101180003797E730F105C0F4E757FF4F0C94B620CE
:10119000209A289811C0219A29980EC0229A2A983C
:1011A0000BC0239A2B9808C0529A5A9805C0539A9C
:1011B0005B9802C03E9A4698CF910895CF93DF93F3
:1011C000873008F047C08091070190910801892B72
:1011D00009F049C080E40E94221490930801809392
:1011E0000701892B11F080E031C083E10E94FB13DD
:1011F0009093080180930701892BA9F781E40E944D
:1012000022149093080180930701892B61F784E8E9
:101210008093BC000E941C11EC019091BC0097FDD2
:101220000EC00E941C118C1B9D0B84369105A8F3E7
:101230008EEF9FEF9093080180930701D4CF8091A8
:10124000BB008095109208011092070194E99093D9
:10125000BC000AC09FB18FB1807F86958695937040
:10126000892B809501C080E0DF91CF910895EF92A6
:10127000FF920F931F93CF93DF93CDB7DEB767979E
:101280000FB6F894DEBF0FBECDBF4B8B5C8B6D8B62
:101290007E8B8F8B0E891F8901151105C1F15F3F70
:1012A00011F44F3FA1F1E42EF12CA1E0B0E0042EA7
:1012B00001C0AA0F0A94EAF7852F90E0662319F07F
:1012C0002091EA0206C09C0126533E4FF90120817D
:1012D0002A232223A9F046E0489F9001499F300D20
:1012E0001124F701E20FF31FEE0FFF1FED5EFE4F1B
:1012F00040815181FC01E653FE4F9081A92B06C02D
:10130000FC01E653FE4FA0958081A823A08386E0D0
:10131000FE013D96DF01982F1D929A95E9F74D87C2
:101320005E876F87198B088BDE01179601900D92EF
:101330008A95E1F7CE0107960E94B61C811137C04D
:1013400086E0FE013796DE01119601900D928A9596
:10135000E1F7FF81E8856A857B856115710539F1C3
:10136000EF3F11F4FF3F19F12091FE0130E0C90178
:1013700001968770992740912F0250E084179507B6
:1013800079F1F983EA837D836C8396E0929FD001A3
:10139000939FB00D1124A150BE4FFE0131960190D4
:1013A0000D929A95E1F78093FE010E94F11316E0E9
:1013B00080912F029091FE01891711F1189FC001B1
:1013C000112481509E4F0E94B61C8823C9F0809141
:1013D0002F0290E001968770992780932F02E8CF23
:1013E000109279020E949B1E1092FE0110922F0211
:1013F000E8EFF1E086E0DF011D928A95E9F7D7CFAB
:1014000067960FB6F894DEBF0FBECDBFDF91CF91C8
:101410001F910F91FF90EF9008952091C801309196
:10142000C9018217930771F09093C9018093C80195
:10143000E091BE02F091BF02309721F00084F18567
:10144000E02D099408952091C6013091C7018217BB
:10145000930771F09093C7018093C601E091BE029B
:10146000F091BF02309721F00680F781E02D0994BA
:101470000895E091BE02F091BF02309721F00190F3
:10148000F081E02D099480E008950F931F93CF938E
:10149000DF93C62FD42F022FFC01828110E2160F9A
:1014A0008823B9F06093BD010E941C119093C5017F
:1014B0008093C401183008F042C0C77081E001C0B9
:1014C000880FCA95EAF7DF91CF911F910F910C9485
:1014D000B91E183048F481E0962F977001C0880F2C
:1014E0009A95EAF70E94AE1E8091BD018C1327C029
:1014F0008091C4019091C5010E94F210883C910531
:10150000F0F4C0E2CD0FC83048F481E09D2F977011
:1015100001C0880F9A95EAF70E94B91E802F0E9499
:101520002A1FC83060F4D77081E001C0880FDA95B7
:10153000EAF7DF91CF911F910F910C94AE1EDF91CE
:10154000CF911F910F9108956091AA028CE090E0D5
:101550000C945A20CF93DF9326E0729FF001112460
:1015600034E5839FE00DF11D1124E60FF11DEE0F10
:10157000FF1FE25AFE4FC591D491CE01C238D1056A
:1015800049F1B0F4C133D10509F464C048F4C9325B
:10159000D10509F458C0CA32D10509F462C068C047
:1015A000C533D10509F448C0C933D10599F060C0ED
:1015B000C33ED10541F138F4C03ED10591F0C23EA1
:1015C000D105B1F055C0C63ED10521F1C73ED105C8
:1015D00061F14EC02091BC0220FD14C221FD12C257
:1015E00013C22091BC0220FF0FC289E390E00CC21D
:1015F0002091BC0222FF08C28091BC0284FDB4C1CC
:1016000083EE90E001C28091BC0282FFF5CF82EEB2
:1016100090E0FAC12091BC0223FFF6C18091BC0288
:1016200084FDA2C187EE90E0EFC18091BC0283FFF0
:10163000F5CF86EE90E0E8C12091BC0225FFE4C121
:1016400089E290E0E1C12091BC0225FFDDC185E384
:1016500090E0DAC12091BC0226FFD6C18AE290E078
:10166000D3C12091BC0226FFCFC181E390E0CCC161
:10167000C11520E5D20708F047C0C11530E4D307F3
:1016800008F034C1C83ED10518F5C03ED10508F0B8
:10169000BBC1C83AD10570F4C53AD10508F0B0C055
:1016A000C130D10509F4B0C108F45EC1249708F433
:1016B0005BC1AAC1CF3BD10508F4ADC0C03CD10588
:1016C00008F452C1FE01EE0FFF1FEA52FE4F02C1A5
:1016D000C11520E2D20760F4C11531E0D30708F04C
:1016E00093C1C03FD10508F43FC1CE0190658CC1C4
:1016F000C11580E3D80708F0F0C0FE01FF70EE0FBF
:10170000FF1FEA5AFC4FE6C0C11595E5D90708F05E
:1017100044C0C11524E5D20708F000C1C11532E567
:10172000D30710F5C11581E5D80708F0E3C02C2FC9
:10173000237081E090E002C0880F991F2A95E2F79C
:101740009C689E0174E0369527957A95E1F72370A1
:10175000922BEC2FEF70E695E69530E2E39FF001D7
:1017600011248E2B9F2B50C18C2F86958695AE0110
:1017700043705527C115D34508F0C1C090E2899F39
:101780009001112481E090E002C0880F991F4A95D2
:10179000E2F7822B932B9C6837C1C1152AE5D2074B
:1017A000A0F4C11539E5D30708F0C6C0C11586E518
:1017B000D80708F4B8C0C11598E5D90708F4D4C013
:1017C0009C2F8827806F906A1FC1C1152BE5D20717
:1017D00008F4CAC0CE01C1153CE5D30708F4C1C066
:1017E00090568115904208F0BFC08D2F8F710E94D6
:1017F0006C08FE01FF27F0628F719F01382BAFC08C
:10180000C53AD10509F4B3C0C63AD10509F0B2C052
:1018100082E890E4F9C0C83AD10509F4AEC0C93AEB
:10182000D10509F4ADC0CA3AD10509F4ACC0CB3A30
:10183000D10509F4ABC0CC3AD10509F4AAC0CB3B21
:10184000D10509F4A9C0CC3BD10509F4A8C0CD3A13
:10185000D10509F4A7C0C03BD10509F4A6C0CE3A12
:10186000D10509F4A5C0CF3AD10509F4A4C0C13B04
:10187000D10509F4A3C0C23BD10509F4A2C0C33B02
:10188000D10509F4A1C0C43BD10509F4A0C0C53BF2
:10189000D10509F49FC0C63BD10509F49EC0C73BE2
:1018A000D10509F49DC0C83BD10509F49CC0C93BD2
:1018B000D10509F49BC0CD3BD10509F49AC0CE3BBC
:1018C000D10509F499C0CA3BD10509F498C080E05C
:1018D00094E49AC08591949197C09E013327C901E1
:1018E000D3FF02C0986C90C0906C8EC0CE019F70E8
:1018F000906A8AC09C2F8827816F906A85C090E289
:10190000899F9001112481E090E002C0880F991F07
:101910004A95E2F7822B932B9A6876C09C2F8827F2
:10192000846F906A71C08C2F0E946C088F7190E058
:10193000982F8827906268C08C2F8F700E946C0847
:10194000FE0194E0F695E7959A95E1F7EF70F0E0E7
:10195000FE2FEE27F06A8F70806E9F01282BC90141
:1019600053C09927906650C080E090E04DC081E858
:1019700090E44AC083E890E447C082EE94E444C017
:1019800089EE94E441C08AEE94E43EC085EB94E491
:101990003BC086EB94E438C083EB94E435C084EB21
:1019A00094E432C087EB94E42FC08CEC94E42CC018
:1019B0008DEC94E429C083E895E426C08AE895E498
:1019C00023C082E995E420C084E995E41DC081E24A
:1019D00096E41AC083E296E417C084E296E414C049
:1019E00085E296E411C086E296E40EC087E296E4B2
:1019F0000BC08FE694E408C080E794E405C08AE257
:101A000096E402C080EE90E0DF91CF91089580E2ED
:101A100090E090930801809307018091C3018111A8
:101A200011C01092B9008CE08093B80081E08093DF
:101A3000C3012FEF83ED90E3215080409040E1F708
:101A400000C0000080E40E9422149093080180935B
:101A50000701892B09F040C080E00E94FB1390939E
:101A6000080180930701892BB9F580E00E94FB13E0
:101A70009093080180930701892B71F58FE30E94F1
:101A8000FB139093080180930701892B29F584E9C2
:101A90008093BC0080E40E942214909308018093FC
:101AA0000701892BC9F48CE00E94FB139093080175
:101AB00080930701892B81F480E00E94FB139093AF
:101AC000080180930701892B39F48FE30E94FB13EF
:101AD000909308018093070184E98093BC00809172
:101AE0000701089556985E9825982D9826982E9867
:101AF00027982F988FEF90E090938900809388002B
:101B000090938B0080938A0090938D0080938C003B
:101B1000259A2D9A2FEF80E792E021508040904047
:101B2000E1F700C00000269A2E9A2FEF80E792E09E
:101B3000215080409040E1F700C00000279A2F9A82
:101B40002FEF80E792E0215080409040E1F700C005
:101B5000000025982D982FEF80E792E021508040DB
:101B60009040E1F700C0000026982E982FEF80E704
:101B700092E0215080409040E1F700C0000027989B
:101B80002F9856985E9825982D9826982E982798E5
:101B90002F98089584B1807F84B985B1807F85B9FD
:101BA0008AB1837F8AB98BB1837F8BB93E9846987F
:101BB000089580B38C7080BB81B3836F81BB08951F
:101BC000AF92BF92CF92DF92EF92FF920F931F934B
:101BD000CF93DF938091070190910801892B91F0B9
:101BE0008091C2018F5F8093C20181110BC00E945E
:101BF000070D90E09093080180930701892B11F461
:101C00000E94720D0EEA12E045EBE42E42E0F42E43
:101C10006801C0E0B12C37E0A32EAC0E8C2F0E94DF
:101C20008F088A2D0E948F088C2F0E94DE08D60113
:101C30009C91981719F08C93D1E001C0D0E08A2DC7
:101C40000E94DE08F7019081981719F0808381E0E7
:101C500001C080E0D82BBD2A0E94CA0DCF5FFFEFE4
:101C6000CF1ADF0A6FEFE61AF60AC730A1F60E9414
:101C70001C116AEF70E00E948E20782F6091C101E4
:101C8000662381F11092C101E091A802F091A902AE
:101C9000DF01AC5ABF4FF12C2BEFE22ECAEFD0E0A0
:101CA000AF014A5F5F4F20812B3F99F0C22ED12CAC
:101CB000721720F09C012C193D0905C09E012C19BA
:101CC0003D09280F391F2530310514F0E08201C08D
:101CD000F62E3196E417F50731F7EA17FB0701F7FF
:101CE000F092C101BB20A1F14091A8025091A9023C
:101CF0006091C101E1ECF2E0EE24E394F12C9EE06E
:101D0000D92EDE0ED8019D918D0180819827DA01B0
:101D100020E030E0E701022E01C0CC0F0A94EAF780
:101D2000CC2EC92241F0CC90DBEFBD2ECB1003C0EE
:101D30007C938C2761E011962F5F3F4F2630310551
:101D400049F74A5F5F4F8193DE12DCCF6093C10198
:101D500081E0DF91CF911F910F91FF90EF90DF9085
:101D6000CF90BF90AF90089580917B020895CF935C
:101D7000DF9300D01F92CDB7DEB720919E022430B2
:101D800031F523E02983805891099B838A8382E07F
:101D90008093E9008FEF9091E800815095FD06C097
:101DA00095ED9A95F1F700008111F5CF8091E8004B
:101DB00085FF0DC040E050E063E070E0CE01019689
:101DC0000E946C148091E8008E778093E8000F9059
:101DD0000F900F90DF91CF9108950F931F93CF93A2
:101DE000DF9300D01F92CDB7DEB78C010E94001A9E
:101DF000823011F0843021F584E089831B830A83CB
:101E000082E08093E9008FEF9091E800815095FD8A
:101E100006C095ED9A95F1F700008111F5CF8091FC
:101E2000E80085FF0DC040E050E063E070E0CE01C7
:101E300001960E946C148091E8008E778093E800F0
:101E40000F900F900F90DF91CF911F910F910895F8
:101E5000CF93DF93EC010E94001A823011F084309E
:101E6000F9F482E08093E9009FEF8091E8009150BF
:101E700085FD06C085ED8A95F1F700009111F5CF3B
:101E80008091E80085FF0CC040E050E066E070E023
:101E9000CE010E946C148091E8008E778093E80058
:101EA000DF91CF910895CF93DF93EC010E94001A48
:101EB000823011F08430D9F580910601882339F001
:101EC0008091BC0287FF03C060E282E002C068E04C
:101ED00081E08093E9008FEF9091E800815095FDBB
:101EE00006C095ED9A95F1F700008111F5CF80912C
:101EF000E80085FF1CC080910601811105C040E00B
:101F000050E068E070E003C070E040E050E0CE01D7
:101F10000E946C148091E8008E778093E80080E244
:101F2000FE01ACE7B2E001900D928A95E1F7DF91F6
:101F3000CF910895803F39F48091D20287FF6CC021
:101F40001092D20269C0813F29F48091D202181602
:101F5000BCF362C09091D102823F29F497FF5CC02C
:101F60001092D10259C0833F19F41916CCF354C012
:101F7000893F41F48091D30218160CF04DC01092A5
:101F8000D3024AC08A3F29F48091D30287FF44C01C
:101F9000F6CF8B3F39F48091D40287FF3DC0109279
:101FA000D4023AC08C3F29F48091D4021816BCF3B5
:101FB00033C0843F21F48091D0028E7F17C0853FCB
:101FC00021F48091D0028D7F11C0863F21F4809151
:101FD000D0028B7F0BC0873F21F48091D002877F96
:101FE00005C0883F31F48091D0028F7E8093D0026B
:101FF00013C08D3F21F4809177028E7F0BC08E3FFE
:1020000021F4809177028D7F05C08F3F29F4809164
:1020100077028B7F809377028091D10281110EC06D
:102020008091D20281110AC08091D302811106C031
:102030008091D402811102C01092D502089580913E
:10204000770280FD16C081FD16C082FD18C0809108
:10205000D502882391F0883290F428E0829FC00155
:10206000112468E270E00E94A220862F672B29F0DD
:1020700007C082E0089584E0089581E0089588E033
:1020800008958091770280FD17C081FD17C082FD01
:1020900019C08091D502882399F08C3398F423E2FB
:1020A000829FC00111246CE370E00E94A220862F61
:1020B000672B49F481E0089588E0089581E108954F
:1020C00085E0089583E20895803F21F40E94411045
:1020D000819504C0813F29F40E9441108093D2026F
:1020E0000895823F21F40E944110819504C0833FEE
:1020F00029F40E9441108093D1020895893F19F478
:102100000E941F1005C08A3F31F40E941F10819564
:102110008093D30208958B3F21F40E941F10819574
:1021200004C08C3F29F40E941F108093D4020895AC
:10213000843F21F48091D002816017C0853F21F453
:102140008091D002826011C0863F21F48091D0023C
:1021500084600BC0873F21F48091D002886005C065
:10216000883F31F48091D00280618093D00208953D
:102170008D3F21F48091770281600BC08E3F21F466
:1021800080917702826005C08F3F29F480917702A9
:10219000846080937702089578941F920F920FB60F
:1021A0000F9211248F939F93AF93BF9380917302EB
:1021B00090917402A0917502B09176020196A11DD2
:1021C000B11D8093730290937402A0937502B09333
:1021D0007602BF91AF919F918F910F900FBE0F909C
:1021E0001F901895CF92DF92EF92FF920F931F935B
:1021F0002FB7F89440917302509174026091750268
:10220000709176022FBF6A017B01EE24FF248C01BE
:1022100020E030E0C016D106E206F30610F441508B
:1022200051099A01281B390BC9011F910F91FF9089
:10223000EF90DF90CF9008952FB7F89480917302BC
:1022400090917402A0917502B09176022FBF08950B
:10225000E091BE02F091BF02309749F082E0809396
:10226000CF020480F581E02D8FEC92E009950E9469
:102270001C119093D7028093D60208951F920F925B
:102280000FB60F9211248F939F93AF93BF938091BA
:10229000C002811113C08091730290917402A091C9
:1022A0007502B09176024196A11DB11D8093730213
:1022B00090937402A0937502B0937602BF91AF9190
:1022C0009F918F910F900FBE0F901F9018952091A6
:1022D0000601222321F02091BC0227FD04C0FC014D
:1022E0003296089619C0262F2695269526952E31CA
:1022F000C0F4FC01E20FF11D677081E090E001C0C5
:10230000880F6A95EAF780959281892382830895E0
:102310003196E817F90729F020812613F9CF1082AA
:10232000F7CF089520910601222321F02091BC02CD
:1023300027FD05C0FC0132962FEF30E019C0262F93
:102340002695269526952E3120F5FC01E20FF11DEC
:10235000677081E090E001C0880F6A95EAF792818A
:10236000892B828308952F3F39F03F5F363041F04B
:1023700041914613F8CF0DC04111F7CF232FF5CF70
:102380002F3F39F0FC01E20FF11D27FDFA95628322
:10239000089508956DEE7EEF80E090E00E94782031
:1023A00060E082E090E00E945A2060E083E090E0EC
:1023B0000E945A2010926F021092700210927102C5
:1023C0001092720260E084E090E00E945A2060E087
:1023D00085E090E00E945A2060E086E090E00E9454
:1023E0005A206FEF87E090E00E945A2040E050E0D2
:1023F000BA0188E090E00E946C2060E08DE090E0FF
:102400000E945A2040E050E0BA0188E190E00E942A
:102410006C2060E087E190E00E945A2040E050E0AC
:10242000BA018FE090E00E946C2040E050E0BA01D9
:1024300083E190E00C946C2080916E0281111092E7
:102440006E02089590916D0280917902892B2091FE
:102450006C02982F922B9093D80180916E02882362
:10246000D9F0892B8093D80180910601882331F01F
:102470008091BC0287FF02C08EE101C086E0EAEDD8
:10248000F1E090E0815028F021912223D9F39F5F61
:10249000F9CF91110E941C12E091BE02F091BF028F
:1024A0003097A9F080910601882359F08091BC02F1
:1024B00087FF07C08091D8018093D90185E0809380
:1024C000D8010280F381E02D88ED91E00994089510
:1024D000BF92CF92DF92EF92FF920F931F93CF9311
:1024E000DF938C01C0906F02D0907002E090710277
:1024F000F09072028091670290916802A091690247
:10250000B0916A02C82AD92AEA2AFB2ACFE1D0E090
:10251000D701C6010C2E04C0B695A795979587954F
:102520000A94D2F780FF07C0BC2EB8018C2F0E94FE
:10253000AA0A019719F4219758F7B12C8B2DDF9136
:10254000CF911F910F91FF90EF90DF90CF90BF90B0
:102550000895CF93DF93EC010E946812BE010E94A0
:10256000AA0ADF91CF910895292F220F920F990F78
:10257000890F682F669566956695982F977085E008
:10258000689FB001112440E050E080E0FA01E60FBE
:10259000F71FE05DFD4F208130E0092E02C0369527
:1025A00027950A94E2F721703327042E01C0220FE9
:1025B0000A94EAF7822B4F5F5F4F4530510531F7A0
:1025C0000895292F220F920F990F890FA82FA695F2
:1025D000A695A695877051E001C0550F8A95EAF738
:1025E00085E0A89FD001112420E030E070E0F901DF
:1025F000EA0FFB1FE05DFD4F4081CB01022E02C0C0
:10260000969587950A94E2F781709927819584279A
:102610008523842780832F5F3F4F2530310539F78D
:1026200008950F931F93AB01BC01CB01AA27BB27D1
:102630000097A105B10511F0E0E103C0DB01CA017B
:10264000E0E0092F1A2F2B2F332701151105210543
:10265000310519F0E85FD901C8018C019D01F4E052
:102660003695279517950795FA95D1F70115110518
:102670002105310519F0EC5FD901C8018C019D01DC
:10268000F2E03695279517950795FA95D1F701153C
:1026900011052105310519F0EE5FD901C801B69584
:1026A000A79597958795892B8A2B8B2B09F0EF5F40
:1026B00056985E9825982D9826982E9827982F98AA
:1026C0008E2F90E0FC013197E730F105A8F4E05738
:1026D000FF4F0C94B620259A2D9A0EC0259A2D9A5C
:1026E000269A2E9A09C0259A2D9A04C0259A2D9AC9
:1026F000269A2E9A279A2F9A40936702509368023F
:102700006093690270936A021F910F910C94801E6E
:102710000F931F9341E050E060E070E004C0440F6D
:10272000551F661F771F8A95D2F740955095609583
:1027300070958091670290916802A0916902B091B2
:102740006A028A019B01082319232A233B23C9011A
:10275000B8011F910F910C94111320916B02809579
:10276000822380936B02982F977079F430E0482F82
:10277000082E000C550B2417350739F085958595E3
:1027800085950E94881310926B0208950F931F93F2
:1027900041E050E060E070E004C0440F551F661F48
:1027A000771F8A95D2F78091670290916802A09175
:1027B0006902B0916A028A019B01082B192B2A2B0E
:1027C0003B2BC901B8011F910F910C941113609319
:1027D0006F027093700280937102909372020C9456
:1027E000801E80912F029091FE01891719F08F5F52
:1027F0008770FBCF0895CF93DF938093BB0084E86D
:102800008093BC000E941C11EC019091BC0097FDCC
:102810000AC00E941C118C1B9D0B84369105A8F3E5
:102820008EEF9FEF0CC02091B900287F81E090E0EF
:10283000283211F480E090E0919581959109DF9123
:10284000CF9108950F931F93CF93DF93C82F1092CA
:10285000BC0084EA8093BC000E941C118C01909102
:10286000BC0097FD0AC00E941C11801B910B84368E
:102870009105A8F38EEF9FEF2AC09091B900987F41
:10288000983041F09091B900987F903119F08FEF16
:102890009FEF1DC0C093BB0084E88093BC000E94E2
:1028A0001C11EC019091BC0097FD08C00E941C1106
:1028B0008C1B9D0B84369105A8F3DCCF8091B90069
:1028C000887F883111F0803411F780E090E0DF914B
:1028D000CF911F910F910895CF92DF92FF920F93A6
:1028E0001F93CF93DF931F92CDB7DEB7F82E8B01E6
:1028F00099830E941719998181111CC0CF2CD92E60
:1029000001151105B1F08091E80085FD0AC08091A4
:10291000E8008E778093E8000E941719882381F3DE
:1029200009C0F60181916F018093F10001501109F6
:10293000E7CF80E00F90DF91CF911F910F91FF9033
:10294000DF90CF9008951F93CF93DF93CDB7DEB77D
:10295000AA970FB6F894DEBF0FBECDBFE0EAF2E053
:1029600088E08E0F9091F10091938E13FBCF8091B0
:10297000A102833009F460C030F4813071F08230FC
:1029800009F49CC0B3C08A3009F488C08B3009F4C4
:102990006BC0893009F0AAC020C08091A002813AA2
:1029A00009F0A4C08091E800877F8093E8008091BF
:1029B000A4029091A502892B21F460E28CE792E0B9
:1029C00003C060E080E090E070E00E949D1980917B
:1029D000E8008B778093E80089C08091A002813263
:1029E00009F084C08091A4029091A502029708F09A
:1029F0007DC08091E800877F8093E8008091E800A7
:102A000082FD05C080919E028111F8CF6FC0209198
:102A1000F3008091F20090E0922B029729F48091CC
:102A2000F1008B7F813021F48091F10080937B0253
:102A30008091E8008B7756C08091A002813A09F01E
:102A400055C08091A4029091A502892B09F04EC037
:102A50008091E800877F8093E8008091E80080FF04
:102A6000FCCF8091060139C08091A0028132F1F53E
:102A70008091A4029091A502892BC1F58091E80074
:102A8000877F8093E8000E9449198091A202809379
:102A90000601109279020E949B1E28C08091A0021C
:102AA000813221F58091E800877F8093E8000E94C1
:102AB00049198091A30280937A0218C08091A002E4
:102AC000813AA1F48091E800877F8093E8008091AB
:102AD000E80080FFFCCF80917A028093F100809122
:102AE000E8008E778093E8000E9449198091E80001
:102AF00083FFD6C18091A0029091A102492F50E09E
:102B00004A30510508F0CCC1FA01E956FF4F0C9448
:102B1000B620803821F0823809F0C2C108C0809107
:102B20009C0290919D02992389F082600FC0809150
:102B3000A4028F70873008F0B3C18093E9008091C0
:102B4000EB0085FB882780F91092E9009091E8005E
:102B5000977F9093E8008093F1001092F10074C188
:102B6000282F2D7F09F09CC1882319F0823061F055
:102B700097C18091A202813009F092C1933009F08F
:102B800080E080939D022EC08091A20281112AC014
:102B90008091A4028F702FEF280F263008F080C19B
:102BA0008093E9002091EB0020FF1CC0933021F4BA
:102BB0008091EB00806214C09091EB009061909343
:102BC000EB0021E030E0A90102C0440F551F8A95B7
:102BD000E2F74093EA001092EA008091EB008860EF
:102BE0008093EB001092E9008091E800877F2FC16D
:102BF000811156C11091A2021F778091E300807865
:102C0000812B8093E3008091E800877F8093E80028
:102C10000E9449198091E80080FFFCCF8091E30079
:102C200080688093E300111102C082E001C083E05C
:102C300080939E0235C18058823008F031C1809166
:102C4000A2029091A3028C3D53E0950779F583E0B1
:102C50008A838AE289834FB7F894DE01139620E0D5
:102C60003EE051E2E32FF0E050935700E49120FF63
:102C700003C0E295EF703F5FEF708E2F90E0EA3077
:102C800010F0C79601C0C0968D939D932F5F24319D
:102C900049F74FBF8091E800877F8093E8006AE2A0
:102CA00070E0CE0101960E949D19BDC04091A40222
:102CB0005091A502292F332723303105B9F06CF448
:102CC0002130310509F4FBC02230310509F0E8C09C
:102CD0008BE390E0E6E5F4E054C02132310509F4DD
:102CE00033C02232310509F43CC0DAC09927813063
:102CF0009105D1F05CF4892B09F0D2C0E9EDF4E044
:102D0000E4918E2F90E0E9EDF4E038C08230910537
:102D100099F0039709F0C4C0E3EAF4E0E4918E2F40
:102D200090E0E3EAF4E02AC0E1ECF4E0E4918E2FD5
:102D300090E0E1ECF4E022C0E9EAF4E0E4918E2FC7
:102D400090E0E9EAF4E01AC04115510509F4BCC06D
:102D50004130510509F0A4C089E090E0E1E8F4E0D9
:102D600010C04115510509F4B4C04130510509F0B6
:102D700097C080EC90E0E6E5F3E003C0009709F42B
:102D80008FC02091E800277F2093E8002091A602C1
:102D90003091A7022817390708F4C90140E00097CD
:102DA00089F120919E02222309F43DC02530D9F1FA
:102DB0002091E80023FD37C02091E80022FD2FC0BC
:102DC0002091E80020FFEBCF4091F3002091F2002A
:102DD00030E0342B009759F02830310540F444910D
:102DE0004093F100319601972F5F3F4FF3CF41E0C1
:102DF0002830310509F040E02091E8002E7720933B
:102E0000E800CDCF4111CDCF0AC080919E0288232A
:102E100051F0853041F08091E80083FD04C080913D
:102E2000E80082FFF2CF8091E8008B778093E80082
:102E300037C08038A9F58091E800877F8093E8004B
:102E400080919F028093F1008091E8008E778093BB
:102E5000E8000E94491924C0811122C01091A202E9
:102E60001230F0F48091E800877F8093E80010939F
:102E70009F020E944919111106C08091E30087FD4D
:102E800002C081E001C084E080939E0242E061ECD8
:102E900081E00E94681942E261EC82E00E946819B8
:102EA0008091E80083FF1AC08091E800877F8093BB
:102EB000E8008091EB0080628093EB000FC082E11C
:102EC00090E0E1E9F4E05DCF89E090E0E8E6F4E04D
:102ED00058CF80E490E0E6E1F4E053CFAA960FB635
:102EE000F894DEBF0FBECDBFDF91CF911F91089543
:102EF0001F920F920FB60F9211242F933F934F936F
:102F00005F936F937F938F939F93AF93BF93CF9371
:102F1000DF93EF93FF93C091E900CF708091EC00B5
:102F2000D82FD17080FDD0E81092E9008091F00098
:102F3000877F8093F00078940E94A3141092E90098
:102F40008091F00088608093F000CD2BCF70C0930B
:102F5000E900FF91EF91DF91CF91BF91AF919F91E8
:102F60008F917F916F915F914F913F912F910F9032
:102F70000FBE0F901F901895E8EDF0E080818E7FD6
:102F800080831092E2001092DA001092E100A0EE2D
:102F9000B0E08C9181608C9380818F77808319BCA5
:102FA000A7EDB0E08C918E7F8C9380818F7E8083A3
:102FB000109278020895CF92DF92EF92FF920F93D2
:102FC0001F93CF93DF93C8EDD0E088818F7E8883F5
:102FD000E7EDF0E080818160808384E082BF81E062
:102FE0008093780288818E7F888302EE10E0F8015A
:102FF00010821092DA0081EEC82ED12CF6011082D8
:1030000088818F77888388818068888388818F7D95
:10301000888319BC10929E0210929F0210929D020A
:1030200010929C0290EEE92EF12CF70180818B7FAB
:10303000808388818160888342E060E080E00E9434
:103040006819F60180818E7F8083F801808181601C
:103050008083808188608083F70180818E7F808378
:10306000888180618883DF91CF911F910F91FF90BC
:10307000EF90DF90CF9008951F920F920FB60F92AE
:1030800011242F933F934F935F936F937F938F936D
:103090009F93AF93BF93EF93FF938091E10082FFE3
:1030A00009C08091E20082FF05C08091E1008B7F22
:1030B0008093E1008091DA0080FF2AC08091D800DF
:1030C00080FF26C08091DA008E7F8093DA008091A5
:1030D000D90080FF18C080E189BD82E189BD09B4B3
:1030E00000FEFDCF81E080939E02809178028111E5
:1030F0000FC00E94BC170E94DB178091E200846021
:103100008093E20005C019BC10929E0210927802D2
:103110008091E10080FF17C08091E20080FF13C022
:103120008091E2008E7F8093E2008091E2008061D6
:103130008093E2008091D80080628093D80019BC0F
:1031400085E080939E028091E10084FF34C08091ED
:10315000E20084FF30C080E189BD82E189BD09B40D
:1031600000FEFDCF8091D8008F7D8093D8008091A4
:10317000E1008F7E8093E1008091E2008F7E80935A
:10318000E2008091E20081608093E20080919F02E2
:10319000882311F084E007C08091E30087FD02C01E
:1031A00081E001C083E080939E02109279020E9428
:1031B0009B1E0E94390A8091E10083FF27C0809105
:1031C000E20083FF23C08091E100877F8093E100CC
:1031D00082E080939E0210929F028091E1008E7F98
:1031E0008093E1008091E2008E7F8093E2008091E5
:1031F000E20080618093E20042E060E080E00E94B3
:1032000068198091F00088608093F000FF91EF9141
:10321000BF91AF919F918F917F916F915F914F91EE
:103220003F912F910F900FBE0F901F9018952091F6
:10323000E4003091E50095E64091EC00842F817028
:1032400040FF22C08091E80080FD1CC080919E025A
:10325000882391F0853091F08091EB0085FD10C0BE
:103260004091E4005091E5004217530729F39A0179
:10327000915011F784E0089582E0089583E0089565
:1032800081E0089580E008954091E80042FFDECF9C
:1032900008958091A00287FF11C08091E80082FD0F
:1032A00005C080919E028111F8CF11C08091E80085
:1032B0008B770BC080919E02882349F08091E800B3
:1032C00080FFF8CF8091E8008E778093E800089522
:1032D000982F973058F59093E900981739F070912E
:1032E000EC002091ED005091F00003C0242F762FC8
:1032F00050E021FF19C03091EB003E7F3093EB008E
:103300003091ED003D7F3093ED003091EB00316066
:103310003093EB007093EC002093ED005093F0009D
:103320002091EE0027FF07C09F5FD3CF8F7080935F
:10333000E90081E0089580E008952091A60230918F
:10334000A7022617370748F06115710539F4209157
:10335000E8002E772093E80001C0B90140E0611534
:103360007105A9F120919E02222309F443C0253062
:1033700009F442C02091E80023FD40C02091E800FC
:1033800022FD32C02091E80020FFE9CF4091F300F8
:103390002091F20030E0342BFC01CF016115710562
:1033A00059F02830310540F481918093F10061504B
:1033B00071092F5F3F4FF1CF41E02830310509F00F
:1033C00040E02091E8002E772093E800C8CF41111B
:1033D000C9CF0AC080919E02882361F0853061F0D8
:1033E0008091E80083FD0AC08091E80082FFF2CF5F
:1033F00080E0089582E0089583E0089581E00895D3
:103400008091E802811107C080919E02843011F002
:1034100081E0089582E00895CF93DF93CDB7DEB7C2
:103420002A970FB6F894DEBF0FBECDBF84B7877F53
:1034300084BF0FB6F894A89580916000886180934E
:103440006000109260000FBE80E8809361001092CF
:10345000610085B7806885BF85B7806885BF0E9499
:10346000BC170E94DB178091E20084608093E20029
:10347000789480919E028823A1F01091E9001F703A
:103480009091EC00892F817090FD80E8182B1092AC
:10349000E9008091E80083FD0E94A3141F7010933F
:1034A000E90082E084BD93E095BD9AEF97BD8093DB
:1034B0006E000E94070D90E0909308018093070131
:1034C0000E94CA0D0E94D90DAEEAB2E0E1ECF2E032
:1034D0001EE0F12EFE0E11921D92FE12FCCF84E52D
:1034E00090E00E94BC20AC019093A9028093A802B6
:1034F00020E030E08BEFFA01E20FF31F96E08193BA
:103500009150E9F72A5F3F4F24353105A1F780E05C
:1035100090E00E9454208D3E9E4F11F00E94CA11EF
:103520008CE090E00E944C2090E0A0E0B0E080931E
:10353000AA029093AB02A093AC02B093AD0289EAC9
:103540008093800089E08093810024982C983F9894
:103550008AB18F7C8AB96E98479A8BB180638BB998
:10356000769A0E94720D80E090E00E9454208D3E79
:103570009E4F11F00E94CA1182E090E00E944C2000
:103580008093D90284E090E00E944C2090E09093D8
:10359000BD028093BC0283E090E00E944C20682F23
:1035A00070E080E090E00E94E71389E091E0909362
:1035B000BF028093BE02EE24EA94CC24C394D12CA3
:1035C00050E1552E62E1662E78E1A72EB12CE0E4A1
:1035D0007E2E80919E02853009F043C080919E022C
:1035E000843009F11092C0020FB6F894A895A09209
:1035F00060000FBE7092600083B7817F846083BFDC
:1036000083B7816083BF7894889583B78E7F83BFAB
:103610000FB6F894A895809160008861809360004F
:10362000109260000FBE80919D02882391F20E944B
:10363000070D90E090930801809307010E94CA0D46
:103640000E94D90DE1ECF2E01192FE12FDCF0E9432
:10365000E00DE1ECF2E081918111EEC0FE12FBCFB2
:10366000B8CF0E94E00DEAEDF2E0A1ECB2E000E09C
:1036700010E0702F6D9121912627B1F180E090E04C
:1036800030E0982EA901082E02C0559547950A945E
:10369000E2F740FF25C089837A83C60102C0880F04
:1036A000991F9A94E2F74C01862F90E08821992186
:1036B00021E0892B09F420E02B830E941C118160FA
:1036C000782F9D838C8349815A816B818D810E94E3
:1036D0003709F801E652FD4F80818826808219C0A3
:1036E00001968630910569F60F5F1F4F0E30110568
:1036F00009F0BFCFEE82EF8218860E941C11816014
:10370000782F9A8789874E815F8168858A850E9494
:1037100037098091D6029091D7020E94F2109C0145
:103720009091D502992321F02431310508F478C015
:103730008091D1021091D20281110BC0111190C061
:103740002091D30221118CC02091D402211188C074
:1037500067C09F3F19F09F5F9093D502181624F41D
:103760000E9441108093D1028091D10287FF05C051
:103770000E94411081958093D102111624F40E9479
:1037800041108093D2028091D20287FF05C00E942F
:10379000411081958093D2023091D1023323E1F020
:1037A0002091D2022223C1F045EB3403C001112441
:1037B000892F990F990B009709F481E08093D1022A
:1037C00035EB2303C0011124892F990F990B009722
:1037D00009F481E08093D2028091D302181624F478
:1037E0000E941F108093D3028091D30287FF05C0EF
:1037F0000E941F1081958093D3028091D4021816E5
:1038000024F40E941F108093D4028091D40287FF79
:1038100005C00E941F1081958093D4020E94281138
:103820001091D8020E94390A181709F4D2CE0E94CA
:10383000390A8093D802CDCE59BC69BC09B400FEC8
:10384000FDCF8091D8008F7D8093D8008091E000DB
:1038500082608093E0008091E00081FDFCCFB9CED2
:103860009F3F09F078CF80CF8091FD0182958F70C6
:1038700009F054C08091FA01882309F44FC0809167
:103880002F02A091FE016091F8017091F901409121
:10389000FB015091FC01B6E08A1709F43FC090E0AB
:1038A00041155105C1F17F3F11F46F3FA1F1B89F60
:1038B000F001B99FF00D1124E150FE4F21817213E8
:1038C0002AC02081621327C02281211124C02381B4
:1038D00034812417350710F421503109241B350B8E
:1038E000283C3105C0F42091FD012F702061209308
:1038F000FD0126E0289FF001299FF00D1124EC5FC7
:10390000FD4F80818F708061808388EF91E00E94FD
:103910008E020C94F11301968770BECF08950E9419
:10392000A912292F2F7092959F70E92FF0E03297FE
:10393000EE30F105B8F4EF55FF4F0C94B620803F00
:1039400099F018F4803E70F40FC0843F59F40CC015
:10395000803E50F0813F31F407C0822F86958695D6
:103960008695089580E0089581E00895BF92CF92F2
:10397000DF92EF92FF920F931F93CF93DF93CDB718
:10398000DEB761970FB6F894DEBF0FBECDBF8C01D6
:1039900085E0F801DE011D9601900D928A95E1F710
:1039A000D8013C9111962C9111971296EC90129798
:1039B0001396CD90DC9014975091F8016091F90125
:1039C0008091FB019091FC01009709F44FC16F3F7A
:1039D00019F45F3F09F44AC1B090FA01BB2009F421
:1039E000ECC04091FD01C816D90628F0F601E81B8D
:1039F000F90BCF0104C0809590958C0D9D1DFF247F
:103A0000F394883C910548F0F12C407F09F09FC069
:103A100088EF91E00E948E0221C1842F807F09F0FF
:103A200044C0621312C0531310C0E1100EC04F7097
:103A300040614093FD0188EF91E00E948E028091E9
:103A4000FD01D80115968C932EC0CD2819F12F3F7A
:103A500011F43F3FF9F0FE2CE1101CC080912F02C1
:103A60004091FE0156E0841709F458C090E0589F39
:103A7000F001599FF00D1124E150FE4F6181261392
:103A800006C06081361303C06281611103C00196D4
:103A90008770E9CFFE2CEE2009F421C18091FD0151
:103AA00081608093FD01F12C1AC162130AC0531387
:103AB00008C0E11006C08091FD01D80115968C93D5
:103AC000B0C03D872E878D859E850E948F1C8823E0
:103AD000D1F1EE20C1F12091FD01822F82958F70EE
:103AE00090E0029774F08091F8019091F901988725
:103AF0008F831986DB86CA862C87CE0107960E94A3
:103B00008E0286E0F801A8EFB1E001900D928A954F
:103B1000E1F70E94341CFF24F394E1C03D872E8717
:103B20008D859E850E94A912292F22952F7030E045
:103B3000223031050CF0C7C09F7009F0C1C0805E13
:103B4000883008F4CCC0C8010E948E02E4CF621312
:103B500014C0531312C0E11010C08091FD01F80190
:103B60008583C8010E948E0286E0E8EFF1E0DF0164
:103B70001D928A95E9F7FB2CB2C03D872E878D8573
:103B80009E850E948F1C8823F1F2EE20E1F22091A5
:103B9000FD01822F82958F7090E002970CF4B1CFD7
:103BA0008091F8019091F9019A8389831B82DD82CB
:103BB000CC822E83CE010196A2CFC816D90638F04A
:103BC000C81AD90AB8ECCB16D10450F007C08095BA
:103BD00090958C0D9D1D883C910510F0F12C3EC0F8
:103BE000FE2CEE2009F4AFCF621327C0531325C07B
:103BF0002091FD0120FD18C0822F82958F70482FE3
:103C000050E04115510581F0F80125834F305105F1
:103C100041F08F5F982F9295907F822F8F70892B24
:103C20008583C8010E948E0286E0F801A8EFB1E00A
:103C300001900D928A95E1F752C03D872E878D85C0
:103C40009E850E948F1C81115CCF8091FD01816057
:103C50008093FD01C8010E948E0241C0E8EFF1E0AF
:103C600086E0DF011D928A95E9F739C0EE2009F45C
:103C70006ACF3D872E878D859E850E948F1CF82EEA
:103C8000882309F460CF86E0F801A8EFB1E0019045
:103C90000D928A95E1F78091F8019091F9010E94C7
:103CA000A91292959F70963041F48091EA0291E0BA
:103CB00089278093EA029093E9020E94341C0FC086
:103CC00081113DCF0CC0243031050CF03CCF9F70EA
:103CD00009F435CFF8019581907F09F030CF8F2D11
:103CE00061960FB6F894DEBF0FBECDBFDF91CF91C6
:103CF0001F910F91FF90EF90DF90CF90BF900895AC
:103D000010926D0210926C020E942212EFECF2E00F
:103D100086E0DF011D928A95E9F71092D502109294
:103D200077020E94281180E090E00E94230A80E040
:103D300090E00C940D0A80910601882331F0809167
:103D4000BC0287FF02C08EE101C086E0EAEDF1E02F
:103D5000DF011D928A95E9F70C94801E882341F0BB
:103D60008095909179028923809379020C94221294
:103D70000895882339F090917902892B80937902F4
:103D80000C9422120895882309F463C0823869F4E0
:103D90000E94390A81FF5DC069E388ED91E00E94CD
:103DA00092110E94221269E30EC0833891F40E949E
:103DB000390A80FF4EC063E588ED91E00E949211C0
:103DC0000E94221263E588ED91E00E9467110C9435
:103DD0002212843869F40E94390A82FF3AC067E4EB
:103DE00088ED91E00E9492110E94221267E4EBCFCD
:103DF0009CEF980F913A10F4682FE5CF90E2980F5E
:103E0000983088F4877021E030E0A90102C0440FA7
:103E1000551F8A95E2F7CA0180959091790289230E
:103E200080937902D4CF9BE5980F933020F480E003
:103E300090E00C94230A98E5980F973120F480E0E5
:103E400090E00C940D0A803F20F00E949A0F0C9491
:103E500028110895CF93C82F0E94321F8C2FCF9125
:103E60000C94C31E882309F416C18238B1F40E9451
:103E7000390A81FD10C169E388ED91E00E94921139
:103E80000E9422122FEF41EE54E02150404050405A
:103E9000E1F700C0000069E317C08338D9F40E943D
:103EA000390A80FDF8C063E588ED91E00E94921127
:103EB0000E9422128FEF91EE24E08150904020402A
:103EC000E1F700C0000063E588ED91E00E94671112
:103ED0000C9422128438B1F40E94390A82FDDBC0AE
:103EE00067E488ED91E00E9492110E9422124FEF48
:103EF00051EE84E0415050408040E1F700C00000A6
:103F000067E4E2CF9CEF980F913A30F4682F88ED88
:103F100091E00E949211DCCF90E2980F983080F4EB
:103F2000877021E030E0A90102C0440F551F8A9537
:103F3000E2F7CA0190917902892B80937902C8CF68
:103F40009BE5980F933070F4853A29F0863A31F06A
:103F500083E890E005C081E890E002C082E890E04C
:103F60000C94230A98E5980F973108F08EC0883A90
:103F700009F445C0893A09F445C08A3A09F445C0B4
:103F80008B3A09F445C08C3A09F445C08B3B09F4DF
:103F900045C08C3B09F445C08D3A09F445C0803BCF
:103FA00009F445C08E3A09F445C08F3A09F445C07A
:103FB000813B09F445C0823B09F445C0833B09F4C9
:103FC00045C0843B09F445C0853B09F445C0863BA8
:103FD00009F445C0873B09F445C0883B09F445C056
:103FE000893B09F445C08D3B09F445C08E3B09F47B
:103FF00045C08A3B09F445C080E090E044C082EEB1
:1040000090E041C089EE90E03EC08AEE90E03BC077
:1040100085EB90E038C086EB90E035C083EB90E014
:1040200032C084EB90E02FC087EB90E02CC08CEC8A
:1040300090E029C08DEC90E026C083E891E023C099
:104040008AE891E020C082E991E01DC084E991E016
:104050001AC081E292E017C083E292E014C084E2C9
:1040600092E011C085E292E00EC086E292E00BC0C1
:1040700087E292E008C08FE690E005C080E790E01C
:1040800002C08AE292E00C940D0A803F20F00E9468
:1040900064100C9428110895F999FECF92BD81BD4A
:1040A000F89A992780B50895A8E1B0E042E050E081
:1040B0000C948020262FF999FECF92BD81BDF89AED
:1040C000019700B4021639F01FBA20BD0FB6F8945C
:1040D000FA9AF99A0FBE08950396272F0E945B2043
:1040E0000E945A20252F0E945B20242F0C945B20D5
:1040F0000196272F0E945B200C945A20DC01CB01F3
:10410000FC01F999FECF06C0F2BDE1BDF89A3196E7
:1041100000B40D9241505040B8F70895AA1BBB1B44
:1041200051E107C0AA1FBB1FA617B70710F0A61BB7
:10413000B70B881F991F5A95A9F780959095BC01D8
:10414000CD01089597FB072E16F4009407D077FD54
:1041500009D00E948E2007FC05D03EF490958195F1
:104160009F4F0895709561957F4F0895EE0FFF1F43
:104170000590F491E02D0994CF93DF93823091055F
:1041800010F482E090E0E091ED02F091EE0220E088
:1041900030E0C0E0D0E0309711F140815181481704
:1041A0005907C0F04817590761F48281938120971D
:1041B00019F09B838A832BC09093EE028093ED02CB
:1041C00026C02115310519F04217530718F49A013A
:1041D000BE01DF01EF010280F381E02DDCCF21156C
:1041E000310509F1281B390B2430310590F4129662
:1041F0008D919C9113976115710521F0FB019383BB
:10420000828304C09093EE028093ED02FD0132960A
:1042100044C0FD01E20FF31F8193919322503109B5
:104220002D933C933AC02091EB023091EC02232B6A
:1042300041F420910201309103013093EC0220936C
:10424000EB0220910001309101012115310541F46B
:104250002DB73EB74091040150910501241B350B49
:10426000E091EB02F091EC02E217F307A0F42E1BB1
:104270003F0B2817390778F0AC014E5F5F4F2417CA
:10428000350748F04E0F5F1F5093EC024093EB024E
:104290008193919302C0E0E0F0E0CF01DF91CF91F4
:1042A00008950F931F93CF93DF93009709F48CC069
:1042B000FC013297138212820091ED021091EE02FE
:1042C0000115110581F420813181820F931F209106
:1042D000EB023091EC022817390779F5F093EC02E4
:1042E000E093EB0271C0D80140E050E0AE17BF0789
:1042F00050F412962D913C911397AD012115310583
:1043000009F1D901F3CF9D01DA0133832283608162
:104310007181860F971F8217930769F4EC0128813A
:104320003981260F371F2E5F3F4F318320838A81CB
:104330009B8193838283452B29F4F093EE02E093D3
:10434000ED0242C01396FC93EE931297ED01499152
:1043500059919E01240F351FE217F30771F48081F4
:104360009181840F951F029611969C938E93828162
:10437000938113969C938E931297E0E0F0E0D8011E
:1043800012968D919C911397009719F0F8018C016A
:10439000F6CF8D919C9198012E5F3F4F820F931F16
:1043A0002091EB023091EC022817390769F430971D
:1043B00029F41092EE021092ED0202C013821282D2
:1043C0001093EC020093EB02DF91CF911F910F91BC
:0643D0000895F894FFCFF0
:1043D6000000EF022000012000B40E530F280FB793
:1043E6000EED0E000D010D020D030D040D050D0061
:1043F6000C010C020C030C040C050C000B010B0247
:104406000B030B040B050B000A010A020A030A043C
:104416000A050A0009010902090309040905090038
:104426000801080208030804080508000701070236
:10443600070307040705070006010602060306042C
:104446000605060005010502050305040505050028
:104456000401040204030404040504000301030226
:10446600030303040305030002010202020302041C
:104476000205020001010102010301040105010018
:0C4486000001000200030004000500001B
:00000001FF
