:100000000C9492020C94AF020C94AF020C94AF02C9
:100010000C94AF020C94AF020C94AF020C94AF029C
:100020000C94AF020C94AF020C9449120C948B11F7
:100030000C94641C0C94AF020C94AF020C94AF02AD
:100040000C94AF020C94AF020C94AF020C94AF026C
:100050000C94AF020C94231C0C94AF020C94AF02CE
:100060000C94AF020C94AF020C94AF020C94AF024C
:100070000C94AF020C94AF020C94AF020C94AF023C
:100080000C94AF020C94AF020C94AF020C94AF022C
:100090000C94AF020C94AF020C94AF020C94AF021C
:1000A0000C94AF020C94AF020C94AF02E603EB0386
:1000B000F503E903EE03F303F103BF043305C704BB
:1000C00091049504CB049804CE04D904A304290513
:1000D000A704DD04AB04E1040B05AF04E50415053A
:1000E000B504EB04F5049C04D2049F04D504BA04BF
:1000F000F0040105210523058D04C3043C05D20548
:10010000D205050605068206A0069D079D07A506E1
:1001100019072A072A07910FB80F7311B80F731127
:100120000410271073112911391105010980A1014B
:10013000850319012AB700150126B700950175102E
:100140008100C0050C0901A101850419012AA00242
:10015000150126A002950175108100C00501090650
:10016000A1018506050719E029E715002501950875
:10017000750181020507190029EF1500250195F089
:10018000750181020508190129059505750191027E
:10019000950175039101C005010902A1010901A1A1
:1001A0000005091901290815002501950875018127
:1001B000020501093009311581257F9502750881F5
:1001C0000609381581257F950175088106050C0AF9
:1001D00038021581257F950175088106C0C006602B
:1001E000FF0961A1010962150026FF00952075082D
:1001F00081020963150026FF00952075089102C051
:1002000005010906A101050719E029E715002501E7
:10021000950875018102950175088101050719008E
:1002200029FF150026FF00950675088100050819AD
:1002300001290515002501950575019102950175A6
:10024000039101C009027400040100A0FA0904002E
:1002500000010301010009211101000122440007EE
:1002600005810308000109040100020300000009E0
:10027000211101000122220007058303200001074C
:100280000504032000010904020001030102000922
:100290002111010001224700070582031000010916
:1002A0000403000103000000092111010001226D77
:1002B000000705850320000112010002000000086C
:1002C000973274490001010203011A0339007000DA
:1002D00034006F006F002F00360061005800770077
:1002E00045004200000016034500720067006F00E1
:1002F00064006F007800200045005A0000002803C9
:100300005A0053004100200054006500630068005B
:100310006E006F006C006F006700790020004C00D9
:1003200061006200730000000403090435002B0023
:100330002921E100C25200001E00140004001D002B
:10034000290051001F001A0016001B00E3004A009C
:100350002000080007000600E2002C002100150024
:1003600009001900E2005200220017000A000500EF
:10037000000050004C002A000000280000004F0040
:100380004C002A00000028000000420023001C004E
:100390000B00110000003B00240018000D001000AD
:1003A000E600430025000C000E003600E6002C009D
:1003B000260012000F003700E3004D002700130055
:1003C0003300380045004400310034002D31E50091
:1003D000C2520000010001000100010000520000B3
:1003E000010001000100010001004C0001000100BA
:1003F0005000010001004B00010052005100CE00EE
:1004000001004E0001000100DB00CD0001004D00A5
:100410000100D900DC00DA0000004A0046000100BB
:100420000000010000000100460001000000010082
:1004300000000100010001000100010000000100B6
:100440000100D100CF00D100005201000100CD0019
:10045000CE00D200010001000100D200D000010056
:10046000010001000100D0000100010001000100B5
:1004700001000100010001000052000035020100EE
:100480002921E100010000003A004A003100330256
:1004900000522A003B002D00540038020052E100B7
:1004A0003C0008002602510036022C004D002E00B0
:1004B00008005200005201003E004B0031024E0085
:1004C0000000010044002A0000002800000039005C
:1004D00045002A00000028000000A8003F0054004A
:1004E00025022D00000001004000240050001E00E5
:1004F0000052A900410025005D001F0027002C00CC
:1005000042002600230020000052E50043004F0077
:100510002D0028000052AA00010001002D31E50045
:100520000100000011241FBECFEFDAE0DEBFCDBF17
:1005300011E0A0E0B1E0E8E8F0E402C005900D921F
:10054000AA38B107D9F722E0AAE8B1E001C01D92AC
:10055000A13BB207E1F70E945A090C9442200C9487
:100560000000982F92959F7019F0892F24E001C008
:1005700020E0982F9695969511F02E5F892F982F51
:10058000969509F02F5F822F089590E0FC01EF5DB2
:10059000FE4F208121111AC0F894FC01ED5EFE4F40
:1005A0008081E82FE295EF70F0E031A1282F2F70C5
:1005B00081E090E001C0880F2A95EAF7982F909586
:1005C000932391A392A1892B82A378940895A6E006
:1005D000B0E0EDEEF2E00C949B1F49835A83498111
:1005E0005A81992361F0222351F0CA010E94E01838
:1005F000182F682F89819A810E94501904C0CA015E
:100600000E941C19182F69817A81812F0E948614FB
:100610002696E3E00C94B71FA4E3B0E0E2E1F3E038
:100620000C94981F4FA758AB69AB7AAB8BAB9CABC4
:10063000192F911110921F02DE01989687E0FD019B
:1006400011928A95E9F786E0FE01BF9601900D921E
:100650008A95E1F7EFA4F8A80BA90023E9F021E0BF
:10066000A7016AA57BA5C8010E94E7028091C2018B
:10067000882391F0111102C087E001C086E08983D0
:10068000EA82FB828EEF8C8340E250E0BE016F5F16
:100690007F4F83E00E94A11BE8A6F9A60CA71DA727
:1006A00087E0FE01B896DE01919601900D928A9541
:1006B000E1F7CE0181960E94AA1681112CC087E035
:1006C000FE01B196DE01119601900D928A95E1F737
:1006D0006DA1662301F12091E30130E0C90101968B
:1006E0008770992740911C0250E08417950761F1AB
:1006F0006D8397E0929FD001939FB00D1124AC5170
:10070000BE4FFE01319601900D929A95E1F78093CC
:10071000E3010E94471617E080911C029091E301CB
:100720008917F9F0189FC00111248C519E4F0E9427
:10073000AA168823B1F080911C0290E00196877080
:10074000992780931C02E8CF0E94C9191092E301F7
:1007500010921C02ECEDF1E087E0DF011D928A951A
:10076000E9F7E496E6E00C94B41F27982F982F98A9
:10077000089526982E982E98089525982D982D98AE
:100780000895279A2F9A0895269A2E9A0895259AC1
:100790002D9A0895A0E2B0E0E0EDF3E00C949A1FEA
:1007A000082F0E94B102182F5E980E94BD030E947C
:1007B000B9030E94B503812F90E0FC013197E73027
:1007C000F105A8F4EA5AFF4F0C942F200E94C703AA
:1007D0000EC00E94C7030E94C40309C00E94C70341
:1007E00004C00E94C7030E94C4030E94C1038091F9
:1007F000C2018823D9F080918D011817B9F01093A8
:100800008D018FE39CE90197F1F700C0000085E0BE
:10081000898380918D018A838EEF8B8340E250E043
:10082000BE016F5F7F4F83E00E94A11B802FA096C7
:10083000E4E00C94B61FA0E0B0E0E1E2F4E00C9438
:10084000951FFC018481882309F4FEC38F0121E0F8
:10085000408151816281738195810E94E702EC01A0
:1008600081159E47D1F5F80185818823B1F19091DA
:10087000A00181E0890F8770987F853020F4892B53
:100880008093A00102C09093A0018091A001877085
:10089000FFEF8F9FC00111249595879595958795BA
:1008A0009927909389008093880090938B00809380
:1008B0008A0090938D0080938C004091A00150910C
:1008C000A1016091A2017091A3018FE090E00E94CC
:1008D000F91F80919F010E94CA03F8018581882336
:1008E00009F406C1CE019057839708F0DBC084E07D
:1008F00090E00E94D11F9093AB028093AA02FE0168
:10090000E150F047E232F10520F4E35AFF4F0C9436
:100910002F208091AA028160ACC08091AB028860D8
:10092000B4C08091AA028260A4C08091AA0220C0B3
:100930008091AA0288609DC08091AB021EC0809108
:10094000AB028260A2C08091AA02806192C08091B5
:10095000AA0280628EC08091AA0280648AC00E942E
:10096000C9198091AA02806884C08091AA02886017
:1009700084607FC08091AB028260816086C080917C
:10098000AA028E7F76C08091AB02877F7EC0809165
:10099000AA028D7F6EC08091AA0220C08091AA0217
:1009A000877F67C08091AB021EC08091AB028D7FB4
:1009B0006CC08091AA028F7E5CC08091AA028F7D5C
:1009C00058C08091AA028F7B54C00E94C91980919F
:1009D000AA028F774EC08091AA02877F8B7F49C081
:1009E0008091AB028D7F8E7F50C08091AA0282FBE6
:1009F000222720F991E0922790FB82F990FB83F95E
:100A000038C08091AB02982F909591708E7F892B82
:100A100090FB81F93AC08091AA0286FB222720F937
:100A200091E0922790FB86F924C00E94C919809119
:100A3000AA0287FB222720F991E0922790FB87F9F1
:100A400018C061E001C060E08EE090E00E94E71F06
:100A50001EC08091AA0284FB222720F991E09227F0
:100A600090FB84F906C08091AA02982F909590FB84
:100A700080F98093AA020BC08091AB0283FB2227EE
:100A800020F991E0922790FB83F98093AB0260916B
:100A9000AA027091AB0284E090E00E9405200E94BF
:100AA000C91914C0C6312CE7D20709F078C2809169
:100AB00048028A7A91E009F490E090938E018111C6
:100AC000C1C289E20E94BB1C0E94C71580911D0211
:100AD000877009F4B9C2F8018581882309F4B4C28A
:100AE0008091AB0282FFB0C282E00E941916ACC2B4
:100AF000C631DC4709F449C2F8018581C081D18142
:100B0000882349F0CE010E94E018F82E682FCE010C
:100B10000E94501904C0CE010E941C19F82EBE017B
:100B20008F2D0E9486140E94A314F82EC92FC82E60
:100B3000F801D581E680E2949FE0E92280911D02D0
:100B4000877001F1DD23F1F08C2F807F803469F014
:100B500080E28F0D8830B0F08C2F807E803229F4B7
:100B6000F1E0FF1578F4EE2069F08091AB0282FF8E
:100B700009C082E00E94191680911D028770DD2451
:100B8000D3948111D12CBC2EB2948FE0B8228B2D3E
:100B900090E08C30910508F0D0C1FC01E158FF4F86
:100BA0000C942F208C2F807FCF70882311F0C2955A
:100BB000C07FDD23B9F0CC2309F4ADC180E28F0DF5
:100BC000883010F0C11006C090914802C92BC09324
:100BD000480205C090911F02C92BC0931F020E94BA
:100BE000C71599C18F2D0E94F71ACC2309F4A5C10E
:100BF00080E28F0D883088F1CC2079F1C0959091FA
:100C00001F02C923C0931F022BC08C2F807FCF707F
:100C1000803211F0C295C07F8F2DCC2029F021E0C9
:100C2000C21609F44CC055C08091AB0282FD1BC0B6
:100C3000DD2369F0CC2339F090914802C92BC09391
:100C400048020E94C71580E00E942A1B76C180E0FE
:100C50000E94F71ACC2309F470C18C2F0E94C01592
:100C60000E94C7156AC1DD2381F0EE20B1F181E059
:100C7000E81263C190911E028C2F8923C81709F4D2
:100C80005CC1C92BC0931E0258C1E11056C18C2F04
:100C90000E94FA1980911E029C2F982329F09C2F04
:100CA0009095892380931E0220918F018C2F82239F
:100CB00009F443C1C0952C2320938F013EC1DD234D
:100CC00029F091E09E1508F438C107C0E11035C144
:100CD00015C0DD2331F0E1101EC18C2F0E94011AD6
:100CE0002CC1EE2059F0893309F024C1EFEFF7EE63
:100CF00023E0E150F0402040E1F71AC18C2F0E9420
:100D0000FA191BC18C2F86958695837019F0813056
:100D100061F013C1DD2321F08F2D9C2F937002C051
:100D200080E090E00E94171D0EC1DD2321F08F2D81
:100D30009C2F937002C080E090E00E94F21C03C1DF
:100D40006D2F8F2D0E940B1AFEC08C2F8370A9F57A
:100D5000D111F7C04F2D429546954770440F440F6F
:100D60008F2D8F7090E09C01042E01C0220F0A94F9
:100D7000EAF7F4FE08C08FE090E001C0880F4A95C2
:100D8000EAF7809501C080E0C695C695C370C23071
:100D900069F088F490919E01C13019F0822B89236B
:100DA00002C0922B892B0E94A319CBC0822B909159
:100DB0009E018927F8CF822BF6CFDD2319F08C2FE7
:100DC000817001C08695882309F4BBC04F2D4295E0
:100DD00046954770440F440F8F2D8F7090E09C0113
:100DE000042E01C0220F0A94EAF7F4FE08C08FE037
:100DF00090E001C0880F4A95EAF7809501C080E035
:100E0000C695C695C370C23059F078F490919F0191
:100E1000C13019F0822B892309C0922B892B06C07F
:100E2000822B90919F01892701C0822B0E948519F6
:100E300088C0CF70DD2339F08C2F0E9497198F2D39
:100E40000E94011A7EC08F2D0E94FA198C2F0E94D9
:100E50008A1977C08F2D92EFC91669F19C1538F069
:100E6000E0EFCE1659F0F1EFCF1601F150C023EFAD
:100E7000C21641F194EFC916A9F049C0DD2369F00B
:100E8000E1105BC0CF7181E090E001C0880FCA958E
:100E9000EAF790919F0189271FC0E1E0EE1508F461
:100EA0004CC0F0CF8091AB0282FD19C0DD2329F048
:100EB0008C2F8F711FC0DD23D9F38C2F8F710E946F
:100EC0008A193BC0DD2339F0CF7181E001C0880F62
:100ED000CA95EAF701C080E00E9485192EC0DD2383
:100EE00061F08C2F8F71F8E08F9F900111242360A7
:100EF00020931D020E94971920C081E00E941916BC
:100F000021E02E15D0F482E00E94191616C0DD23D0
:100F100021F0EE2069F28F2D97CEEE2071F2893309
:100F200049F48FEF97EEE3E081509040E040E1F725
:100F300000C000008F2D0E94F71A88EF8B0D8430BF
:100F400010F40E943C1DDD20A9F080911D0280FD5F
:100F500011C0F80115828695869586950E9497198D
:100F6000C8010E941B0480911D0286958695869576
:100F70000E948A1920E0F8014081518162817381C9
:100F8000848195810E94E7025FC080918E0181116A
:100F900004C089E20E948D1C97CD85E3FBCFC3304E
:100FA000FCE7DF0779F190F4C1158CE7D807E1F091
:100FB000C130DC4709F0A0CD0E94C919FFEF24E33E
:100FC0008CE0F15020408040E1F72BC0CB35ECE7BE
:100FD000DE07A1F1CC35FCE7DF0741F1CA35DC477C
:100FE00009F08ACD81E02BC00E94C9198FEF94E3EC
:100FF000ECE081509040E040E1F700C000000E942A
:10100000F11B64CD6FEF7FEF80E090E00E94052040
:101010000E94C9199FEFE4E3FCE09150E040F040EA
:10102000E1F700C000000E94E61B50CD8091AB02AA
:1010300082FB882780F991E0892701C080E00E9427
:1010400030165ACD85E33ECDCDB7DEB7E9E00C943E
:10105000B11FA0E2B0E0EFE2F8E00C949C1F9FEF1C
:1010600099838A8340E250E0BE016F5F7F4F83E047
:101070000E94A11BA096E2E00C94B81FA1E0B0E092
:10108000E4E4F8E00C949A1F8730F8F420910A0108
:1010900030910B01232BD1F521E030E0A90102C0F2
:1010A000440F551F8A95E2F7CA01809589830AE0AB
:1010B00010E0AE014F5F5F4F62E180E40E94911E3D
:1010C00090930B0180930A0121C090E0FC01EF5D39
:1010D000FE4F208121111AC0F894FC01ED5EFE4FF5
:1010E0008081E82FE295EF70F0E031A1282F2F707A
:1010F00081E090E001C0880F2A95EAF7932F982BA2
:1011000091A392A18095892382A378942196E4E00B
:101110000C94B61F0F931F93CF9308E211E0C7E022
:10112000F80181918F01811103C08C2F0E94C502AB
:10113000CF5FCE30A9F7CF911F910F910895A1E015
:10114000B0E0E5EAF8E00C949A1F082F8730C8F465
:1011500080910A0190910B01892BE9F519820AE02F
:1011600010E021E030E0AE014F5F5F4F63E180E4CB
:101170000E94DF1E90930B0180930A018981809564
:101180002BC00E943E08ADE0B1E020E030E010E06E
:1011900051E04D91E42FE295EF70F0E080A190E0F6
:1011A0004F7002C0959587954A95E2F780FD07C07C
:1011B000852F022E01C0880F0A94EAF701C080E053
:1011C000182B2F5F3F4F2630310519F7802F0E94D3
:1011D000C502812F01C080E02196E4E00C94B61F87
:1011E000CF93DF93ADE0B1E043E151E061E070E027
:1011F000F8948D91E82FE295EF70F0E021A18F70C7
:10120000EB0102C0CC0FDD1F8A95E2F7CE019C2FC7
:101210009095922391A392A1892B82A378944A1747
:101220005B0731F7DF91CF910895A2E0B0E0EBE1E9
:10123000F9E00C949A1F80E290E090930B01809368
:101240000A0180918C0181110EC00E94141E81E060
:1012500080938C012FEF83ED90E3215080409040EC
:10126000E1F700C0000019828FE38A830AE010E0F2
:1012700022E030E0AE014F5F5F4F60E080E40E940B
:10128000911E90930B0180930A01892B69F422E04F
:1012900030E0AE014F5F5F4F6CE080E40E94911E32
:1012A00090930B0180930A0180910A012296E4E059
:1012B0000C94B61FA6E4B0E0E0E6F9E00C94901FB1
:1012C00085B7806885BF85B7806885BF84B7877F0D
:1012D00084BF0FB6F894A8958091600088618093D0
:1012E0006000109260000FBE90E080E80FB6F894A6
:1012F00080936100909361000FBE83E593E190932A
:101300008B0180938A010E94CF110E94EE1180917F
:10131000E20084608093E20078948091D201882377
:10132000A1F01091E9001F709091EC00892F81705D
:1013300090FD80E8182B1092E9008091E80083FD71
:101340000E94AF0E1F701093E90082E084BD93E00D
:1013500095BD9AEF97BD80936E000E94150990E0AD
:1013600090930B0180930A010E948A080E94F00862
:10137000E0E9F1E08EE991E0A4EAB1E011921D927A
:101380008E179F07D9F780E090E00E94D11F853E1D
:101390009E4F09F46EC065EE7EEF80E090E00E9403
:1013A000052060E082E090E00E94E71F81E08093EA
:1013B0009E0161E083E090E00E94E71F60E074E13D
:1013C00084E090E00E94052060E086E090E00E94CA
:1013D000E71F60E087E090E00E94E71F40E050E0F8
:1013E000BA0188E090E00E94F91F60E083E290E09B
:1013F0000E94E71F60E08CE090E00E94E71F60E041
:101400008DE090E00E94E71F19821A821B821C82E5
:101410001D821E821F82188648E050E067E170E05E
:10142000CE0101960E94D71F40E050E0BA018FE143
:1014300090E00E94F91F1092A0011092A101109259
:10144000A2011092A30184E08093A0014091A00129
:101450005091A1016091A2017091A3018FE090E0F1
:101460000E94F91F40E050E0BA0183E190E00E9441
:10147000F91F82E090E00E94C31F8093B20184E0D4
:1014800090E00E94D11F9093AB028093AA020E9429
:1014900055188FEF93EFE1E081509040E040E1F785
:1014A00000C000000E9455188091A40180FF08C070
:1014B0006FEF7FEF80E090E00E9405200E94F11B1B
:1014C00083E090E00E94C31F0E94A31980919F01B6
:1014D0000E94CA0389EA8093800089E0809381009A
:1014E00024982C983F98479A54985C9A55985D9AFE
:1014F0006E98769A569A8FE090E00E94CB1F609388
:10150000A0017093A1018093A2019093A301677041
:101510001FEF169FB0011124759567957595679516
:101520007727709389006093880070938B00609395
:101530008A0070938D0060938C005E980E94BD03BA
:101540000E94B9030E94B5038FEF90E09093890049
:101550008093880090938B0080938A0090938D00F5
:1015600080938C000E94C703FFEF20E782E0F150D8
:1015700020408040E1F700C000000E94C4039FEFBC
:10158000E0E7F2E09150E040F040E1F700C00000F9
:101590000E94C1032FEF80E792E0215080409040ED
:1015A000E1F700C000000E94BD03EFEFF0E722E08A
:1015B000E150F0402040E1F700C000000E94B90374
:1015C0008FEF90E7E2E081509040E040E1F700C00B
:1015D00000000E94B5038091A0018770189FC00190
:1015E00011249595879595958795992790938900CE
:1015F0008093880090938B0080938A0090938D0055
:1016000080938C005E980E94BD030E94B9030E94E3
:10161000B50380E091E09093A7028093A60208E1D1
:1016200010E08091D201853009F056C030E4D32E0D
:1016300040E1E42E52E1F52E8091D201853009F08F
:1016400047C08091D201843009F11092AC020FB6EC
:10165000F894A895009360000FBED092600083B705
:10166000817F846083BF83B7816083BF78948895CE
:1016700083B78E7F83BF0FB6F894A89580916000E2
:10168000886180936000109260000FBE8091D1014C
:10169000882391F20E94150990E090930B018093AA
:1016A0000A010E948A080E94F008E4EAF1E011921F
:1016B00021E0E23BF207D9F70E945518E4EAF1E095
:1016C0008191811152C281E0E23BF807C9F7B4CFA2
:1016D0000E94C9190E943C1D0E94551823EBC22E7E
:1016E00021E0D22EA4EAB1E0F60191918D918927F3
:1016F00091E0E13CF90719F08823B9F305C08111A5
:1017000003C00E94311855C094EA892E91E0992EA9
:10171000F12CF40171904F01F601A080A724B9F1DA
:10172000E12CBB24B394662463948A2D8B2141F170
:101730002296EFAE22972396FFAE23970E94581C65
:1017400025969FAF8EAF259726966FAE269791E090
:10175000872D8B2109F490E027969FAF279722963B
:101760004FAD229723965FAD239724966FAD2497B4
:1017700025967FAD259726968FAD26970E940C0360
:10178000E394BB0CF6E0EF12D0CFF6017082F39435
:10179000FFEFCF1ADF0A2EE0F212BBCF8FB7F8941B
:1017A0004091AD025091AE026091AF027091B002D3
:1017B0008FBFB0909F02C090A002F090A102D09085
:1017C000A202E090A3021092A0021092A102109235
:1017D000A2021092A302C11003C0FF2009F447C067
:1017E00080919D0290919E020E94491C9C019091C3
:1017F0009802992309F4CFC125313105C0F19F3FEB
:1018000019F09F5F90939802CC2061F00E94901D88
:101810001C1414F491E001C09FEF899F802D1124C6
:101820008093A002FF2061F00E94901D1F1414F00D
:101830009FEF01C091E0899F802D11248093A10228
:101840008091A002882399F0A090A102AA2079F0AB
:101850000E94B31D811101C081E08093A0028A2DF6
:101860000E94B31D811101C081E08093A102D110BB
:1018700003C0EE2009F447C080919B0290919C0226
:101880000E94491C9C0190919902992309F487C1F7
:1018900025313105C0F19F3F19F09F5F9093990268
:1018A000DD2061F00E94701D1D1414F491E001C050
:1018B0009FEF899F802D11248093A202EE2061F07A
:1018C0000E94701D1E1414F09FEF01C091E0899FCB
:1018D000802D11248093A3028091A202882399F085
:1018E000A090A302AA2079F00E94B31D811101C02B
:1018F00081E08093A2028A2D0E94B31D811101C054
:1019000081E08093A30280919F028B111AC0809185
:10191000A002882311F08C1114C08091A1028823A9
:1019200011F0F8120EC08091A302882311F0E81282
:1019300008C09091A202992331F081E0D91204C02D
:1019400002C081E001C080E080FD15C08091A0024E
:1019500081110FC08091A10281110BC08091A20260
:10196000811107C081E09091A302911103C080E032
:1019700001C081E080FD0E94491DB0929F02C0928B
:10198000A002F092A102D092A202E092A3020E94D1
:101990003C1D9091C101891769F08093C1018FB7F7
:1019A000F8944091AD025091AE026091AF027091F7
:1019B000B0028FBF8091D201843009F032CE809383
:1019C000E9008091E80082FF2CCE8091E80085FF3D
:1019D00024C00E94201381111EC080E2E82EF12C49
:1019E0006E0181E2C80ED11C09C08091F100F601A0
:1019F00081936F01F1E0EF1AF10869F08091E8003E
:101A000085FDF3CF8091E8008B778093E8000E94FA
:101A10002013882399F391E001C090E08091E800C1
:101A20008B778093E800992309F4FBCD89A1863058
:101A300009F479C0B0F4823009F4F3CD60F488235E
:101A400029F1813009F08DC08093C20184E089833F
:101A50008EEF8A837DC0843031F1853009F463C014
:101A600080C0893009F45FC030F4873099F1883044
:101A700009F459C076C08A3009F457C08E3F09F086
:101A800070C0898394E09A838B8362C019828DE051
:101A9000EFE2F1E0DE01129601900D928A95E1F7F6
:101AA0008EEF8E8755C08091C201882309F4B9CD8D
:101AB0008AA1811104C08BA10E948A19B2CD81E054
:101AC00090E00BA002C0880F991F0A94E2F70E94D1
:101AD0008519A7CD81E08093C4018AA18230C1F02D
:101AE00000F5882319F0813051F01BC08BA18823A9
:101AF00019F00E94C70395CD0E94BD0392CD8BA122
:101B0000882319F00E94C4038CCD0E94B90389CDAB
:101B10008BA1882319F00E94C10383CD0E94B503D5
:101B200080CD85E01FC084E01DC08AA1FF24F3940E
:101B3000811101C0F12CF092C401811106C00E94F4
:101B4000BD030E94B9030E94B5038BE08983FA822A
:101B500040E250E0BE016F5F7F4F83E00E94A11B17
:101B600060CD8FEF0E9429085CCDE9BCF9BC09B4B7
:101B700000FEFDCF8091D8008F7D8093D8008091AA
:101B8000E00082608093E0008091E00081FDFCCF66
:101B90000E94C91951CD232B09F033CE68CE2139CB
:101BA000314008F07ACEAFCE8091D40187FF11C0CA
:101BB0008091E80082FD05C08091D2018111F8CFAB
:101BC00011C08091E8008B770BC08091D2018823EF
:101BD00049F08091E80080FFF8CF8091E8008E778F
:101BE0008093E8000895982F973068F59093E90066
:101BF000981739F07091EC002091ED005091F000B1
:101C000003C0242F762F50E021FD02C09F5FECCF50
:101C10003091EB003E7F3093EB003091ED003D7F43
:101C20003093ED003091EB0031603093EB00709316
:101C3000EC002093ED005093F0002091EE0027FD82
:101C4000E5CF80E008958F708093E90081E00895EA
:101C50002091DA013091DB012617370748F0611532
:101C6000710539F42091E8002E772093E80001C037
:101C7000B901FC0120E06115710579F18091D20173
:101C80008823F1F18530F1F18091E80083FD3CC0BB
:101C90008091E80082FD2EC08091E80080FFEBCFAC
:101CA0002091F3008091F20090E0922B6115710574
:101CB00051F08830910538F421912093F100615062
:101CC00071090196F3CF21E0089709F020E0809197
:101CD000E8008E778093E800CECF2111CFCF0AC0E5
:101CE0008091D201882361F0853061F08091E80015
:101CF00083FD0AC08091E80082FFF2CF80E0089562
:101D000082E0089583E0089581E0089543E050E083
:101D1000BC0185E00E94A11B089545E050E0BC0194
:101D200082E00E94A11B089540E250E0BC0185E0E2
:101D30000E94A11B0895CF93DF93EC0148E050E08F
:101D4000BC0181E00E94A11B88E0FE01A8ECB1E08B
:101D500001900D928A95E1F7DF91CF910895AAE263
:101D6000B0E0E5EBFEE00C949B1FE4EDF1E0809128
:101D7000F100819341E0EC3DF407C9F78091D50172
:101D8000833009F463C030F4813071F0823009F49B
:101D90009DC0B4C08A3009F489C08B3009F46EC08C
:101DA000893009F0ABC020C08091D401813A09F09C
:101DB000A5C08091E800877F8093E8008091D801DA
:101DC0009091D901892B21F468E088EC91E003C05F
:101DD00060E080E090E070E00E94280E8091E800D2
:101DE0008B778093E8008AC08091D401813209F01A
:101DF00085C08091D8019091D901009719F003977F
:101E000009F07CC08091E800877F8093E800809192
:101E1000E80082FD05C08091D2018111F8CF6EC02B
:101E20002091F3008091F20090E0922B029731F420
:101E30008091F100813011F0863021F48091F10021
:101E40008093C7018091E8008B7754C08091D401C2
:101E5000813A09F053C08091D8019091D901892B22
:101E600009F04CC08091E800877F8093E800809162
:101E7000E80080FFFCCF80910C0137C08091D40135
:101E80008132E1F58091D8019091D901892BB1F58A
:101E90008091E800877F8093E8000E94D40D8091B4
:101EA000D60180930C010E94C91928C08091D401E9
:101EB000813221F58091E800877F8093E8000E94BD
:101EC000D40D8091D7018093C60118C08091D401B0
:101ED000813AA1F48091E800877F8093E8008091A7
:101EE000E80080FFFCCF8091C6018093F1008091D3
:101EF000E8008E778093E8000E94D40D8091E8007E
:101F000083FFF1C18091D4019091D501492F50E018
:101F10004A30510508F0E7C1FA01E557FF4F0C942C
:101F20002F20803821F0823809F0DDC108C080916F
:101F3000D0019091D101992389F082600FC08091E6
:101F4000D8018F70873008F0CEC18093E90080916E
:101F5000EB0085FB882780F91092E9009091E8005A
:101F6000977F9093E8008093F1001092F1007DC17B
:101F7000282F2D7F09F0B7C1882319F0823061F036
:101F8000B2C18091D601813009F0ADC1933009F022
:101F900080E08093D1012EC08091D60181112AC0AA
:101FA0008091D8018F702FEF280F263008F09BC149
:101FB0008093E9002091EB0020FF1CC0933021F4B6
:101FC0008091EB00806214C09091EB00906190933F
:101FD000EB0021E030E0A90102C0440F551F8A95B3
:101FE000E2F74093EA001092EA008091EB008860EB
:101FF0008093EB001092E9008091E800877F809346
:10200000E8000E94D40D6FC181116DC11091D601FD
:102010001F778091E3008078812B8093E30080918B
:10202000E800877F8093E8000E94D40D8091E8004B
:1020300080FFFCCF8091E30080688093E300111162
:1020400002C082E001C083E08093D2014CC180587D
:10205000823008F048C12091D6013091D7012C3D43
:1020600053E0350779F583E08A838AE289834FB7A5
:10207000F894DE01139620E03EE051E2E32FF0E019
:1020800050935700E49120FF03C0E295EF703F5F4B
:10209000EF708E2F90E0EA3010F0C79601C0C09626
:1020A0008D939D932F5F243149F74FBF8091E800B6
:1020B000877F8093E8006AE270E0CE0101960E947B
:1020C000280EC1C08091D8019091D901432F552786
:1020D00043305105B1F068F44130510509F412C1A3
:1020E0004230510509F0FFC084E790E0E4E4F2E0FB
:1020F00057C04132510589F14232510509F43CC0C3
:10210000F2C0C901992781309105B9F070F0823091
:102110009105D9F0039709F0E6C0EAECF2E0E4910A
:102120008E2F90E0EAECF2E038C0E8E2F3E0E491D0
:102130008E2F90E0E8E2F3E030C0EEEFF2E0E491C1
:102140008E2F90E0EEEFF2E028C0E6EEF2E0E491B0
:102150008E2F90E0E6EEF2E020C08430910508F08A
:10216000C2C0880F991FFC01E85BFE4F0190F0810F
:10217000E02D89E090E014C08430910508F0B3C0F0
:10218000FC01EE0FFF1FE05CFE4F0190F081E02D9F
:10219000DC01A45CBE4F8C9190E0009709F4A3C0D1
:1021A0002091E800277F2093E8002091DA01309108
:1021B000DB018217930708F49C0140E021153105EB
:1021C00089F18091D201882309F43DC08530D9F18D
:1021D0008091E80083FD37C08091E80082FD2FC028
:1021E0008091E80080FFEACF4091F3008091F200F7
:1021F00090E0942B2115310559F08830910540F479
:1022000044914093F1003196215031090196F2CF6B
:1022100041E0089709F040E08091E8008E778093D4
:10222000E800CCCF4111CDCF0AC08091D2018823E4
:1022300051F0853041F08091E80083FD04C0809129
:10224000E80082FFF2CF8091E8008B778093E8006E
:102250004AC0803809F047C08091E800877F8093AA
:10226000E8008091D3018093F1008091E8008E779F
:10227000C6CE811138C08091D6019091D70199279F
:1022800002978CF58091E800877F8093E800109199
:10229000D6011093D3010E94D40D111106C0809174
:1022A000E30087FD02C081E001C084E08093D20199
:1022B00042E061EC81E00E94F30D42E161EC82E0DA
:1022C0000E94F30D42E261EC85E00E94F30D42E2D0
:1022D00061EC83E00E94F30D42E260EC84E00E9436
:1022E000F30D8091D2018091E80083FF10C08091AE
:1022F000E800877F8093E8008091EB008062809304
:10230000EB0005C082E190E0E8EBF2E049CFAA964D
:10231000E3E00C94B71F1F920F920FB60F92112497
:102320002F933F934F935F936F937F938F939F93DD
:10233000AF93BF93CF93DF93EF93FF93C091E900E7
:10234000CF708091EC00D82FD17080FDD0E8109232
:10235000E9008091F000877F8093F00078940E94DC
:10236000AF0E1092E9008091F00088608093F00039
:10237000CD2BCF70C093E900FF91EF91DF91CF910A
:10238000BF91AF919F918F917F916F915F914F918D
:102390003F912F910F900FBE0F901F901895E8ED71
:1023A000F0E080818E7F80831092E2001092DA004C
:1023B0001092E100A0EEB0E08C9181608C9380815E
:1023C0008F77808319BCA7EDB0E08C918E7F8C93C2
:1023D00080818F7E80831092C5010895A0E0B0E0D7
:1023E000E4EFF1E10C94961FC8EDD0E088818F7E78
:1023F0008883E7EDF0E080818160808384E082BFA4
:1024000081E08093C50188818E7F888302EE10E091
:10241000F80110821092DA0081EEC82ED12CF6015C
:10242000108288818F7788838881806888838881FB
:102430008F7D888319BC1092D2011092D301109223
:10244000D1011092D00190EEE92EF12CF70180819C
:102450008B7F808388818160888342E060E080E0B8
:102460000E94F30DF60180818E7F8083F8018081C8
:1024700081608083808188608083F70180818E7F86
:102480008083888180618883CDB7DEB7E8E00C94D3
:10249000B21F1F920F920FB60F9211242F933F93EA
:1024A0004F935F936F937F938F939F93AF93BF935C
:1024B000EF93FF938091E10082FF09C08091E200D9
:1024C00082FF05C08091E1008B7F8093E1008091C5
:1024D000DA0080FF2AC08091D80080FF26C080915A
:1024E000DA008E7F8093DA008091D90080FF18C0D7
:1024F00080E189BD82E189BD09B400FEFDCF81E0A4
:102500008093D2018091C50181110FC00E94CF112B
:102510000E94EE118091E20084608093E20005C089
:1025200019BC1092D2011092C5018091E10080FF88
:1025300017C08091E20080FF13C08091E2008E7F7F
:102540008093E2008091E20080618093E2008091BC
:10255000D80080628093D80019BC85E08093D201B6
:102560008091E10084FF30C08091E20084FF2CC0A4
:1025700080E189BD82E189BD09B400FEFDCF809173
:10258000D8008F7D8093D8008091E1008F7E80936A
:10259000E1008091E2008F7E8093E2008091E20072
:1025A00081608093E2008091D301882311F084E060
:1025B00007C08091E30087FD02C081E001C083E095
:1025C0008093D2018091D2018091E10083FF27C0E6
:1025D0008091E20083FF23C08091E100877F809398
:1025E000E10082E08093D2011092D3018091E1005A
:1025F0008E7F8093E1008091E2008E7F8093E200E5
:102600008091E20080618093E20042E060E080E03F
:102610000E94F30D8091F00088608093F000FF919C
:10262000EF91BF91AF919F918F917F916F915F914A
:102630004F913F912F910F900FBE0F901F901895C3
:102640002091E4003091E50095E64091EC00842F64
:10265000817040FF23C08091E80080FD1DC0809103
:10266000D201882399F0853099F08091EB0085FDA7
:1026700011C04091E4005091E5002417350729F37B
:10268000915011F09A01E1CF84E0089582E008951D
:1026900083E0089581E0089580E008954091E80086
:1026A00042FFDDCF089580E008959091AA0292FF45
:1026B00010C041E0282F2471243009F040E031E0BF
:1026C000282F2871283009F030E0431711F02CE052
:1026D000822793FF10C041E0282F2471243109F094
:1026E00040E031E0282F2871283109F030E043170D
:1026F00011F02CE082273091AB0230FF10C051E086
:10270000282F2171213009F050E041E0282F287155
:10271000283009F040E0541711F029E0822731FFFA
:1027200010C041E0282F2171213109F040E031E053
:10273000282F2871283109F030E0431711F029E0E3
:10274000822794FD877E08958238910569F1B0F45F
:102750008133910509F475C048F48932910509F473
:1027600067C08A32910509F471C0089585339105D7
:1027700009F459C089339105B9F00895833E910554
:1027800089F138F4803E9105D1F0823E910529F11E
:102790000895863E9105C9F1873E9105D9F1843EA1
:1027A000910509F06CC027C02091AA0220FD57C0F6
:1027B00021FD55C02091AB0223FD5BC0089580919F
:1027C000AA0280FD48C08091AB0280FF48C0809182
:1027D000AA0284FD46C083EE51C08091AA0282FF06
:1027E0003CC0F5CF8091AA0282FD37C08091AB0238
:1027F00080FD35C0ECCF8091AB0281FF36C0809167
:10280000AA0284FD2EC087EE39C08091AA0283FF00
:102810002AC0F5CF8091AA0283FD25C08091AB022A
:1028200081FD23C0ECCF8091AA0285FD22C01FC08C
:102830008091AA0285FD1BC08091AB0283FF19C065
:102840000AC08091AA0286FD16C017C08091AA0214
:1028500086FD13C010C089E311C082EE0FC080EE68
:102860000DC080E00BC086EE09C084EE07C085E392
:1028700005C089E203C08AE201C081E390E00895C7
:102880009091480280911F02892B90911E029923FA
:10289000E1F0892B90910C01992341F09091AA02CB
:1028A00097FF04C09EE12AE732E003C096E022E7EA
:1028B00032E0F90120E0915028F031913323D9F32F
:1028C0002F5FF9CF211110921E02089520911C0252
:1028D0009091E30157E02917A9F030E0529FF001F1
:1028E000539FF00D1124EC51FE4F7181761306C0F9
:1028F0007081781303C07581741306C02F5F3F4F3A
:102900002770E9CF80E0089581E008957E30B0F42B
:102910006630A0F48330A0F494E5899FF00111247F
:1029200086E0789FE00DF11D1124E60FF11DEE0FFA
:10293000FF1FE45DFC4F85919491089580E001C0F4
:1029400081E090E008951F93CF93DF930E94A4133A
:10295000EC01C11580E5D807E8F5C11590E4D90769
:1029600008F0A8C0C03ED10530F5CD3CD10508F037
:1029700094C0C83AD10578F4C53AD10508F083C0AF
:10298000C130D10509F47CC008F4F2C0C430D105CF
:1029900008F0F1C0EDC0C33CD10508F0E9C0C85A49
:1029A000D0E0CC0FDD1FCD5ADE4F0990D881C02D6D
:1029B000CE019464E1C0C11580E2D80708F0CBC015
:1029C000C11591E0D90708F06BC0C83ED10508F4E5
:1029D000D2C0CEC0C03682E5D80728F5C03492E513
:1029E000D90708F079C0C03282E5D80708F06CC07A
:1029F000C11592E5D90708F481C04C2F469546953C
:102A000080E2489FA0011124C37021E030E0C90199
:102A100002C0880F991FCA95E2F7EA01C82BD92B8B
:102A2000CE019D68A9C0C03A82E5D807B8F48C2FC2
:102A30008F71C03892E5D90708F07BC086958695DE
:102A400090E2899F90011124C37081E090E002C060
:102A5000880F991FCA95E2F79A6868C0C03C82E562
:102A6000D80708F46DC0C03E92E5D90708F080C0D1
:102A7000CF71DD27DC2FCC27CE01806F906A7CC020
:102A800081E090E079C0C55AD0E0C05BDE4F88811C
:102A9000C82FD0E0CE0190646FC0CE0190656CC0AD
:102AA0008D2F0E945513182FCE0199270E94A41331
:102AB0001F715CC0CE0199270E94A413CC27DF7040
:102AC000D06A8C2B9D2B58C0CF71D0E0DC2FCC2747
:102AD000CE01816F906A50C08C2F8F71869586953C
:102AE00090E2899F90011124C37081E090E002C0C0
:102AF000880F991FCA95E2F79C6818C08C2F8F71B8
:102B00000E94551395E0D695C7959A95E1F7CF7039
:102B1000D0E0DC2FCC27282F30E084FF05C084E0F4
:102B2000220F331F8A95E1F7D069CE01822B932BB8
:102B300023C090E0D82FCC27CE01846F906A1CC0B0
:102B40008C2F8F710E9455138F7190E0D82FCC2756
:102B5000CE01906211C08D2F8F710E945513182FD6
:102B6000CE0199270E94A4131F719062912B04C07B
:102B700080E090E001C0CE01DF91CF911F910895D8
:102B8000809590914802892380934802089580910E
:102B90000C01882351F18091AA0287FF26C00E9470
:102BA00040148093790240E250E060E272E088E7EE
:102BB00092E00E943520892BD9F180E2E8E7F2E02B
:102BC000A0E2B2E001900D928A95E1F7E091A602B1
:102BD000F091A702309761F186E08093780204803B
:102BE000F581E02D88E792E022C00E944014809396
:102BF000700248E050E060E472E080E792E00E94FA
:102C00003520892BA9F088E0E0E7F2E0A0E4B2E00B
:102C100001900D928A95E1F7E091A602F091A7024A
:102C2000309731F00280F381E02D80E792E0099542
:102C3000089590911D028095892380931D02282F6D
:102C4000277069F4981759F09091AB0292FF07C072
:102C50008695869586950E948A1910921D02089580
:102C60009091AB0292FB222720F9281779F080FB84
:102C700092F99093AB026091AA027091AB0284E04A
:102C800090E00E94052082E00E941916089580912C
:102C90001C029091E301891719F08F5F8770FBCFB9
:102CA0000895CF93DF938091E20182958F7009F0B0
:102CB0004EC08091E101882309F449C080911C0233
:102CC0004091E3015091DD016091DC01C091DE0192
:102CD000D091DF0177E08417D1F190E0789FF00187
:102CE000799FF00D1124DF01AC51BE4F14962C9149
:102CF0001497222349F111962C911197251324C082
:102D00002C91261321C015962C91159721111CC0CA
:102D100012962D913C9113972C1B3D0B283C3105AD
:102D200098F48091E2018F7080618093E201E65116
:102D3000FE4F80818F70806180838CED91E00E94D6
:102D40001B040E94471603C001968770C4CFDF9111
:102D5000CF910895A4E1B0E0E0EBF6E10C94921F6E
:102D60008C0186E0F801DE011F9601900D928A9594
:102D7000E1F7F8018481E5809CED892E91E0992EA0
:102D80009091E001911120C0882309F463C1EE20E5
:102D900009F442C0C8010E94A619F82E8823E1F167
:102DA00087E0F801D40101900D928A95E1F78091B6
:102DB000E001813031F48091DC019091DD010E94CD
:102DC0000F190E94511648C1F801D080C180A2801D
:102DD000B380F090E1012091DE013091DF01FF200E
:102DE00009F4E7C0A501421B530B483C510508F00C
:102DF0009DC0882309F430C18091E201282F207FF3
:102E00009091DD01222361F09C1509F460C0C80196
:102E10000E94A619811163C0C8010E941B041AC137
:102E20009C1113C09091DC019D110FC0E1100DC0E9
:102E30008F7080618093E2018CED91E00E941B0411
:102E40008091E201F801868303C1E1103AC040E0BD
:102E50006C2D8D2D0E94661440E06C2D8D2D0E94EE
:102E60006614E82E8111F4C0DF86C88A8F859889A0
:102E70000E940F19292F22952F70243020F49F7063
:102E8000223028F009C02A50223080F014C0992343
:102E900049F0811107C013C0992321F0F8019681F0
:102EA000907F69F0805E883030F409C0803F38F050
:102EB000815F833020F0C8010E941B04EF2CFE2CA0
:102EC000CBC08091E20181608093E201C1C090910A
:102ED000DC019D119CCFE1109ACFF80198C0EE2043
:102EE00009F49ACF2091E201822F82958F7090E0B1
:102EF00002978CF08091DC019091DD0199878887A1
:102F0000BB86AA868091E0018C871D862E87CE0124
:102F100008960E941B0487E0F801ACEDB1E0019037
:102F20000D928A95E1F70E94511694C09091E201AA
:102F3000292F207F51F48CED91E00E941B0487E043
:102F4000F40111928A95E9F783C0882309F484C0BB
:102F50008091DD018C110CC08091DC018D1108C0C5
:102F6000E11006C0F8019683C8010E941B046AC0E4
:102F7000C8010E94A619882309F44ECFEE2009F457
:102F80004BCF2091E201822F82958F7090E00297C3
:102F900014F28091DC019091DD019A838983BC82D7
:102FA000AB828091E0018D831E822F83CE0101963A
:102FB000B0CFA21AB30AF8ECAF16B10408F042C0C1
:102FC000882309F447C0FE2CEE2009F425CF809118
:102FD000DD018C1129C08091DC018D1125C09091FB
:102FE000E20190FD18C0892F82958F70282F30E064
:102FF0002115310581F0F80196832F30310541F01C
:103000008F5F982F9295907F86818F70892B868312
:10301000C8010E941B0487E0F801ACEDB1E001900B
:103020000D928A95E1F718C0C8010E94A619811176
:1030300072CF8091E20181608093E201C8010E9419
:103040001B040AC087E0F40111928A95E9F704C0D5
:10305000F12C02C0FF24F3948F2D6496ECE00C94C5
:10306000AE1FA6E0B0E0E7E3F8E10C949A1F0E94DF
:10307000581C8C018091490290914A020817190747
:1030800081F019821A820E94581C682F49815A8146
:10309000792F80E090E00E940C0310934A02009385
:1030A00049022696E4E00C94B61FEF92FF920F932C
:1030B0001F93CF93DF9380910A0190910B01892B8D
:1030C000D9F080914B028F5F80934B02811114C025
:1030D0000E94150990E090930B0180930A01892BBF
:1030E00059F42FEF83EC99E0215080409040E1F7B4
:1030F00000C000000E94E61B00E911E0C0E0D0E043
:1031000087E0E82EED0E8D2F0E943E088E2D0E9446
:103110003E088D2F0E949F088F73F80190818917B8
:1031200021F08083FF24F39401C0F12C8E2D0E94A6
:103130009F088F73F8019781891719F0878381E0C1
:1031400001C080E0F82ACF290E948A08DF5F0F5F64
:103150001F4FD730A9F6CC2359F081E080934E025F
:103160000E94581C90934D0280934C02C0E022C0F4
:1031700080914E028823F1F080914C0290914D0293
:103180000E94491C4497B0F04EE050E060E971E0C5
:1031900084EA91E00E943520892B51F08EE0E0E92D
:1031A000F1E0A4EAB1E001900D928A95E1F7C1E067
:1031B00010924E028C2FCDB7DEB7E6E00C94B41F10
:1031C000CF92DF92FF920F931F93CF93DF936C0107
:1031D00000919F0180919E01082BC7E0D0E010E094
:1031E000C8010C2E02C0959587950A94E2F780FDE0
:1031F00004C02197A8F7F12C09C0FC2EB6018C2F32
:103200000E9486140E94A314019799F38F2DDF91D9
:10321000CF911F910F91FF90DF90CF900895CF93A2
:10322000DF93EC010E94E018BE010E9486140E9408
:10323000A314DF91CF910895292F9E3078F5863021
:1032400068F590E036E0239F800D911D1124682FD2
:10325000677023E0969587952A95E1F7FC01EE0FBC
:10326000FF1FE80FF91FE15BFD4F40E050E080E0F9
:10327000219130E0062E02C0369527950A94E2F798
:1032800021703327042E01C0220F0A94EAF7822B03
:103290004F5F5F4F4330510559F7089580E008951F
:1032A000292F9E3088F5863078F590E036E0239F10
:1032B000800D911D1124282F277051E001C0550F5A
:1032C0002A95EAF723E0969587952A95E1F7FC0180
:1032D000EE0FFF1FE80FF91FE15BFD4F20E030E02C
:1032E00070E04081CB01022E02C0969587950A942A
:1032F000E2F78170819584278523842781932F5F4E
:103300003F4F2330310569F708950E94CA03809327
:103310009F01089521E030E001C0220F8A95EAF76D
:10332000209580919F0182230E948519089521E0B4
:1033300030E001C0220F8A95EAF780919F01822B2D
:103340000E948519089580939E010895FC012481AF
:103350002223D9F0808191810E940F1992959F704C
:10336000963079F010F4925001C09A50923068F47F
:10337000803F69F018F4883E40F409C0843F29F486
:1033800006C0883E20F0813F11F080E0089581E082
:1033900008951092480280910C01882341F0809199
:1033A000AA0287FF04C08EE1EAE7F2E003C086E0EC
:1033B000E2E7F2E0DF011D928A95E9F780E090E014
:1033C0000E94171D80E090E00E94F21C10921F02E4
:1033D0000E94C715EFE9F2E085E0DF011D928A95B2
:1033E000E9F7109298021092990210929A020E94A4
:1033F000491D0895882321F00E94C0150E94C71519
:103400000895882339F090914802892B80934802CF
:103410000E94C71508959091A002662309F470C018
:1034200091110CC09091A102911108C09091A3023A
:10343000911104C09091A202992331F098E09093E9
:10344000980291E0909399028D3C21F40E94901D86
:10345000819504C08E3C29F40E94901D8093A102A6
:10346000C3C08F3C21F40E94901D819504C0803D13
:1034700029F40E94901D8093A002B6C0893D19F4E2
:103480000E94701D05C08A3D31F40E94701D819517
:103490008093A202A9C08B3D21F40E94701D8195EA
:1034A00004C08C3D29F40E94701D8093A3029CC02F
:1034B0009FE2980F983078F421E030E0A90102C033
:1034C000440F551F9A95E2F7CA0190919F02892BEC
:1034D00080939F0289C08D3D21F480919A02816082
:1034E0000CC08E3D21F480919A02826006C08F3D0F
:1034F00009F07AC080919A02846080939A0274C025
:103500008D3C39F49091A10297FF33C01092A10233
:1035100057C08E3C29F49091A1021916BCF329C022
:103520008F3C29F497FF25C01092A00249C0803D2E
:1035300019F41916CCF31DC09091A202893D29F40B
:103540001916BCF41092A2023BC08A3D19F497FFF1
:1035500010C0F8CF8B3D39F49091A30297FF09C0BA
:103560001092A3022DC08C3D21F49091A302191654
:10357000BCF39FE2980F983080F421E030E0A9017D
:1035800002C0440F551F9A95E2F7CA0180959091A9
:103590009F02892380939F0213C08D3D21F4809167
:1035A0009A028E7F0BC08E3D21F480919A028D7F0E
:1035B00005C08F3D29F480919A028B7F80939A02F7
:1035C0008091A002811106C08091A102811102C0E8
:1035D000109298028091A202811106C08091A302EC
:1035E000811102C0109299020E94491D08958823FA
:1035F00081F19CEF980F913A18F40E948D1C0DC038
:1036000090E2980F983060F4877091E001C0990FB4
:103610008A95EAF7892F0E94C0150E94C715089560
:103620009BE5980F933028F480E090E00E94171DEE
:10363000089598E5980F9B3128F480E090E00E946F
:10364000F21C089593E3980F933118F460E00E9400
:103650000B1A0895CF93882309F46EC0C82F8CEFFE
:103660008C0F813AA0F580910C018823E1F08091C4
:10367000AA0287FF18C0EC2FE695E695E695F0E0E4
:10368000E858FD4F8281282F30E04C2F477081E0B1
:1036900090E002C0880F991F4A95E2F78223932396
:1036A000892B61F410C0E2E7F2E088E792E0219113
:1036B000C21721F08E179F07D1F705C08C2F0E94EB
:1036C0008D1C0E94C7158C2F0E94BB1C10C080E26D
:1036D0008C0F883078F4C77081E090E001C0880FCB
:1036E000CA95EAF790914802892B809348020E947C
:1036F000C71522C0EBE5EC0FE33040F4F0E0E05BEF
:10370000FE4F808190E00E94171D16C0E8E5EC0F87
:10371000EB3150F4F0E0EE0FFF1FED5AFE4F8081C9
:1037200091810E94F21C08C083E38C0F833120F446
:1037300061E08C2F0E940B1ACF9108958091C701F0
:1037400008950F931F93CF93DF938B01EA0190911C
:10375000D2019430A9F58F708093E9008FEF90919A
:10376000E800815095FD06C095ED9A95F1F70000AF
:103770008111F5CF8091E80085FF22C00E942013BF
:10378000811115C0209789F08091E80085FD06C061
:103790008091E8008E778093E800F0CFF801819166
:1037A0008F018093F1002197EDCF90E001C0982F19
:1037B0008091E8008E778093E80081E0911101C04C
:1037C00080E0DF91CF911F910F9108959AE088E1F9
:1037D0000FB6F894A895809360000FBE9093600098
:1037E000FFCFF89481E08093E00080E28093D800DE
:1037F000E9ECF0E010828FE19EE40197F1F700C060
:1038000000001DBA109268001CBC10BE1FBA1092B6
:103810007A0010926E0010926F0010927100109258
:1038200072001082ECEBF0E0108214B817B81AB8EE
:103830001DB810BA108215B818B81BB81EB811BA46
:103840000C94003F089578941F920F920FB60F9238
:1038500011248F939F93AF93BF938091AD0290916A
:10386000AE02A091AF02B091B0020196A11DB11DB0
:103870008093AD029093AE02A093AF02B093B002DA
:10388000BF91AF919F918F910F900FBE0F901F909E
:1038900018959C014FB7F8948091AD029091AE02BB
:1038A000A091AF02B091B0024FBF821B930B08955D
:1038B0002FB7F8948091AD029091AE02A091AF0223
:1038C000B091B0022FBF08951F920F920FB60F92C2
:1038D00011248F939F93AF93BF938091AC0281117A
:1038E00013C08091AD029091AE02A091AF02B09151
:1038F000B0024196A11DB11D8093AD029093AE021E
:10390000A093AF02B093B002BF91AF919F918F91FE
:103910000F900FBE0F901F90189590910C01992356
:1039200021F09091AA0297FD03C0E0E7F2E01DC0EC
:10393000E82FE695E695E695EE31E0F4F0E0E858FC
:10394000FD4F877021E030E0A90102C0440F551FF0
:103950008A95E2F7CA01809592818923828308952E
:10396000319652E0E637F50729F092818913F8CFB6
:103970001282F6CF089590910C019923D1F0909185
:10398000AA0297FF16C0E82FE695E695E695EE3178
:1039900040F5F0E0E858FD4F877021E030E0A901E4
:1039A00002C0440F551F8A95E2F7CA019281892B04
:1039B00016C0A2E7B2E0EFEF90E02D91821789F0F8
:1039C000EF3F19F4211101C0E92F9F5F9630A9F74D
:1039D000EF3F39F00E2E000CFF0BE059FD4F8283B4
:1039E00008950895A3E0B0E0E8EFFCE10C949C1F7B
:1039F0002091A8023091A90228173907A1F09093CD
:103A0000A9028093A802E091A602F091A702309744
:103A100051F024E029839B838A830084F185E02D83
:103A2000CE01019609952396E2E00C94B81FA3E01D
:103A3000B0E0EDE1FDE10C949C1F2091A4023091D7
:103A4000A50228173907A1F09093A5028093A4023C
:103A5000E091A602F091A702309751F023E029836C
:103A60009B838A830084F185E02DCE010196099520
:103A70002396E2E00C94B81FE091A602F091A70211
:103A8000309729F00190F081E02D0995089580E0AC
:103A900008950E94581C2091A002211104C0209179
:103AA000A102222321F090939E0280939D022091F7
:103AB000A202211104C02091A302222321F090939D
:103AC0009C0280939B02E091A602F091A70230979E
:103AD00031F00680F781E02D8FE992E00995089595
:103AE00080919A0280FD18C081FD14C082FD16C02D
:103AF00080919902882381F08C3380F427E0829FA3
:103B0000C00111246CE370E00E941B20862F672BFC
:103B100019F005C083E0089581E0089587E00895D5
:103B200080919A0280FD17C081FD17C082FD19C0E7
:103B300080919802882399F08C3398F428E3829F2F
:103B4000C00111246CE370E00E941B20862F672BBC
:103B500049F481E008958EE008958CE1089588E0AD
:103B6000089588E30895282F35EB2303C00111241D
:103B700097FF03C08058910902C080589F4F892F3A
:103B80000895EF92FF920F931F93CF93DF93182F17
:103B9000EB011092BC0084EA8093BC000E94581C88
:103BA0007C018091BC0087FD0DC0CF3F8FEFD8070F
:103BB000C1F3C7010E94491CC817D90790F78EEFBF
:103BC0009FEF2DC08091B900887F883041F08091AF
:103BD000B900887F803119F08FEF9FEF20C01093DC
:103BE000BB0084E88093BC000E94581C8C0180912B
:103BF000BC0087FD0BC0CF3F8FEFD807C1F3C801D2
:103C00000E94491CC817D90790F7D9CF8091B900F5
:103C1000887F883111F08034F9F680E090E0CDB7EC
:103C2000DEB7E6E00C94B41F1092B9008CE08093EC
:103C3000B80008950F931F93CF93DF93EB01809308
:103C4000BB0084E88093BC000E94581C8C018091CA
:103C5000BC0087FD0DC0CF3F8FEFD807C1F3C8016F
:103C60000E94491CC817D90790F78EEF9FEF0CC030
:103C70002091B900287F81E090E0283211F480E0A3
:103C800090E0919581959109DF91CF911F910F91CE
:103C900008950F931F93CF93DF93EC0184EC8093EF
:103CA000BC000E94581C8C018091BC0087FD0DC097
:103CB000CF3F8FEFD807C1F3C8010E94491CC81736
:103CC000D90790F78EEF9FEF03C08091BB0090E083
:103CD000DF91CF911F910F9108950F931F93CF9371
:103CE000DF93EC0184E88093BC000E94581C8C0197
:103CF0008091BC0087FD0DC0CF3F8FEFD807C1F387
:103D0000C8010E94491CC817D90790F78EEF9FEF92
:103D100003C08091BB0090E0DF91CF911F910F9184
:103D20000895A0E0B0E0E7E9FEE10C94901F682E52
:103D3000762E5A0169010E94581C4C01043111056C
:103D400058F00F3F8FEF180751F0C80164E170E0A1
:103D50000E94781FEB0105C0C1E0D0E002C0C5E0C1
:103D6000D0E0BE01862D0E94C11D7C0197FF0BC0D3
:103D70000F3F8FEF1807A9F3C4010E94491C0817D1
:103D8000190778F713C0B801872D0E941A1E7C010D
:103D9000E501CA0CDB1CCC15DD0541F0F7FC06C0C3
:103DA000B80189910E941A1E7C01F5CF84E98093A5
:103DB000BC00C701CDB7DEB7EEE00C94AC1FA0E0AD
:103DC000B0E0E5EEFEE10C94901F782E662E7A01AD
:103DD000E9010E94581C5C010431110558F00F3FA5
:103DE0008FEF180759F0C80164E170E00E94781F56
:103DF0006B0107C0CC24C394D12C03C025E0C22E94
:103E0000D12CB601872D0E94C11D4C0197FF0BC01C
:103E10000F3FEFEF1E07A9F3C5010E94491C0817C9
:103E2000190778F72BC0B801862D0E941A1E4C0185
:103E300097FD24C0F72DF1607F2E0E94581C5C0175
:103E40000431110528F10F3F8FEF180729F1C80140
:103E500064E170E00E94781F6B01B601872D0E941B
:103E6000C11D4C0197FD1CC067012197C6018E1929
:103E70009F098C179D0758F597FE1DC084E9809314
:103E8000BC00C4011816190674F580E090E02BC040
:103E9000CC24C394D12CE1CF85E0C82ED12CDDCF2A
:103EA0000F3FEFEF1E07C9F2C5010E94491C08171A
:103EB000190798F6D9CFC8010E94491E4C0197FDF9
:103EC00002C0F6018083FFEFCF1ADF0ACFCF97FC45
:103ED000D5CFC8010E946D1E4C0197FDCFCFCE0DEE
:103EE000DF1D8883CBCFCDB7DEB7EEE00C94AC1FDF
:103EF000AA1BBB1B51E107C0AA1FBB1FA617B70710
:103F000010F0A61BB70B881F991F5A95A9F780952B
:103F10009095BC01CD0108952F923F924F925F92F0
:103F20006F927F928F929F92AF92BF92CF92DF92C9
:103F3000EF92FF920F931F93CF93DF93CDB7DEB72E
:103F4000CA1BDB0B0FB6F894DEBF0FBECDBF0994C2
:103F50002A88398848885F846E847D848C849B8419
:103F6000AA84B984C884DF80EE80FD800C811B8127
:103F7000AA81B981CE0FD11D0FB6F894DEBF0FBE56
:103F8000CDBFED010895F999FECF92BD81BDF89A9C
:103F9000992780B50895A6E1B0E044E050E00C9484
:103FA0000D20A8E1B0E042E050E00C940D20DC01CF
:103FB000A40FB51F4150504048F0CB01840F951F0E
:103FC0002E910E94E81F41505040D0F70895262FAF
:103FD000F999FECF92BD81BDF89A019700B40216FF
:103FE00039F01FBA20BD0FB6F894FA9AF99A0FBEAD
:103FF00008950396272F0E94E81F0E94E71F252F90
:104000000E94E81F242F0C94E81F0196272F0E947E
:10401000E81F0C94E71FDC01CB01FC01F999FECFEE
:1040200006C0F2BDE1BDF89A319600B40D92415040
:104030005040B8F7089597FB072E16F4009407D068
:1040400077FD09D00E94781F07FC05D03EF49095BB
:1040500081959F4F0895709561957F4F0895EE0F5C
:10406000FF1F0590F491E02D0994FB01DC0104C0D1
:104070008D910190801921F441505040C8F7881B60
:08408000990B0895F894FFCF9D
:104088009E1B9B0E940E8D0E860E200001F0F1F4FF
:10409800F5F6F7000000000000003031323392934B
:1040A8006601010101010101000000000000003962
:1040B80070346F6F2F366158774542004422476D40
:1040C8000002DE0197012A0156026F028F02A80240
:1040D800818283E200E900EA00B500B600B700CDAE
:1040E800008301CC008A0192019401210223022459
:1040F800022502260227022A02B300B4006F0070CC
:0A410800009F01CB019F02A00200FE
:00000001FF
